:020000040800F2
:1000000078BD0020F523000813030008150300083D
:10001000190300081D030008210300080000000068
:1000200000000000000000000000000025030008A0
:10003000270300080000000087F00008213F0008A7
:100040000F2400080F2400080F2400080F240008C4
:100050000F2400080F2400080F2400080F240008B4
:100060000F2400080F2400080F2400080F240008A4
:100070000F2400080F2400080F2400080F24000894
:100080000F2400080F2400080F2400080F24000884
:100090000F2400080F2400080F2400080F24000874
:1000A0000F2400080F2400080F2400080F24000864
:1000B0000F2400083D1800080F2400080F24000832
:1000C0000F2400080F2400080F2400080F24000844
:1000D0000F24000845400008711A00083D19000867
:1000E0000F2400080F2400080F2400080F24000824
:1000F0000F2400080F2400080F2400080F24000814
:100100000F2400080F2400080F2400080F24000803
:100110000F2400080F2400080F2400080F240008F3
:100120000F2400080F2400080F2400080F240008E3
:100130000F2400080F2400080F2400080F240008D3
:100140000F2400080F2400080F2400080F240008C3
:100150000F2400080F2400080F240008C5220008FF
:100160000F2400080F2400080F2400080F240008A3
:100170000F2400080F2400080F2400080F24000893
:100180000F2400080F24000800F002F800F0B2F875
:100190000AA090E8000C82448344AAF10107DA45E2
:1001A00001D100F0A7F8AFF2090EBAE80F0013F082
:1001B000010F18BFFB1A43F00103184780F8000035
:1001C000A0F800000A444FF0000C10F8013B13F0B7
:1001D000070408BF10F8014B1D1108BF10F8015BA0
:1001E000641E05D010F8016B641E01F8016BF9D193
:1001F00013F0080F1EBF10F8014BAD1C0C1B09D1EA
:100200006D1E58BF01F801CBFAD505E014F8016B5B
:1002100001F8016B6D1EF9D59142D6D370470000ED
:100220000023002400250026103A28BF78C1FBD8FF
:10023000520728BF30C148BF0B6070476E290DF0D0
:10024000B38470290DF0F58566290FF0B08165291A
:100250000FF0AD8167290FF0AA816129AFF300800B
:1002600003681B0A28BF41F0800169290DF06084F2
:1002700064290DF05D8475290DF05A846F290DF005
:10028000828578290DF0C185E9290DF01D85E429C5
:100290000DF01A85F5290DF01785EF290DF07F85F2
:1002A000F8290DF0C0850368DB0928BF41F0800103
:1002B00063290EF09B8173290EF0A081E3290EF0D3
:1002C000AB81F3290EF0B081002070471FB50FF00D
:1002D00069F90EF0FBF90400002000210EF044FF44
:1002E000401C6060002000210EF028FFE0601FBD70
:1002F00010B510BD0EF0BCF91146FFF7E7FF00F096
:100300004BFA0EF095FA03B4FFF7F2FF03BC0EF0C0
:10031000DDFA704700BFFEE700BFFEE700BFFEE763
:1003200000BFFEE7704770470CB5002001900090B9
:100330007648006840F480307449086000BF734814
:10034000006800F4003000900198401C0190009873
:1003500018B90198B0F5A04FF1D16C48006800F4CD
:10036000003010B10120009001E0002000900098C2
:10037000012846D165484030006840F0805063490C
:10038000403108606248006840F4404060490860BD
:100390005E48083000685D4908310860084600681A
:1003A00040F4004008600846006840F4A05008602F
:1003B0005848091F0860081F006840F08070091F36
:1003C000086000BF5148006800F000700028F9D0B4
:1003D00040F20570504908604C480830006820F031
:1003E00003004A49083108600846006840F00200EE
:1003F000086000BF45480830006800F00C0008287D
:10040000F8D10CBD10B54548006840F47000434970
:1004100008603E48006840F001003C490860002048
:100420003A4908310860394800683D490840374971
:1004300008603C48091D0860081F006820F48020FF
:10044000091F0860002031490C310860FFF76CFF7C
:100450004FF0006031498039086010BD70B5002050
:100460000022022300240221284D08352D6805F0C2
:100470000C0020B1042806D0082834D107E02A4D0A
:100480002A4E356033E02A4D284E35602FE01F4D4F
:100490002D1D2D68C5F380541C4D2D1D2D6805F0B4
:1004A0003F0154B1224DB5FBF1F5184E361D3668AB
:1004B000C6F3881605FB06F209E01B4DB5FBF1F506
:1004C000124E361D3668C6F3881605FB06F20F4D30
:1004D0002D1D2D68C5F301456D1C6B00B2FBF3F5B6
:1004E000124E356003E0104D104E356000BF00BF66
:1004F000064D08352D68C5F303150E4E705D0B4D86
:100500002D68C540094E356070BD000000380240BE
:100510000070004008544007003C024088ED00E0B5
:10052000FFFFF6FE103000240024F400000000203D
:1005300000127A000400002070B504460D462A46D9
:100540002146FE4801F00EFB70BD10B50A2003F0F5
:100550004CFD10BD02E00A2003F047FDFBE702E07E
:100560000A2003F042FDFBE700240BE00A2003F021
:100570003CFDF349D1F810018047601C84B2642C23
:1005800000D10024F2E700BF03E04FF47A7003F0DB
:100590002CFDFAE703E040F6B83003F026FDFAE759
:1005A0000CE0642003F021FD0020E649086064208F
:1005B00003F01BFD0120E449C1F8A002F1E730B5CA
:1005C0008BB00446002500BF03F028FE0AA809F0FE
:1005D00092FD0AAA0121084605F01BFE00BF00BFDC
:1005E00000BF03F053FF054600BF00BFD7480078A7
:1005F000401CD649087000BF00BF284603F04AFFE0
:1006000000BF00BF00BF0AA8032100220592CDE968
:100610000621089010464FF480711922CC4BCDE989
:100620000132CDE9031004200023AFF28B02C9A1EF
:100630000090CB480AF036F90AA80321002205925F
:10064000CDE90621089010464FF480711922C54B60
:10065000CDE90132CDE9031005200023AFF2CB0232
:10066000C1A10090C3480AF01DF90AA80321002285
:100670000592CDE90621089010464FF480711922A9
:10068000BD4BCDE90132CDE9031006200023AFF2C6
:100690000912BAA10090BC480AF004F90AA8032183
:1006A00000220592CDE90621089010464FF48061A2
:1006B0006622B64BCDE90132CDE9031007200023B5
:1006C000AFF25B12B2A10090B4480AF0EBF80AA8AE
:1006D000032100220592CDE90621089010464FF42F
:1006E00080711922AE4BCDE90132CDE9031008200B
:1006F0000023AFF29512ABA10090AD480AF0D2F8FA
:100700000AA8032100220592CDE90621089010468F
:100710004FF480711922A74BCDE90132CDE90310C6
:1007200009200023AFF2D312A3A10090A5480AF03C
:10073000B9F800BF00BF00BF03F0A8FE054600BF28
:1007400000BF82480078401E804908700846007843
:10075000A0B99D480088002809DD00BF00BF2846D9
:1007600003F098FE00BF00BF06F03CF90DE000BFAB
:1007700000BF284603F08EFE00BF06E000BF00BFAA
:10078000284603F087FE00BF00BF00BF0AA9002073
:100790000AF0DCF90BB030BD10B58AB00024A820F7
:1007A00003F0CAFB4FF4A06001F044FE4FF4165072
:1007B00003F062FC00F0DDFF00F0E8FF01F020F83C
:1007C0004FF4E13001F055F94FF4165001F0CDF837
:1007D0004FF4E13001F08DFD5948D0F808110120A7
:1007E00088475748D0F81411AFF2B32088475448CF
:1007F000D0F81811AFF2AD20884709A805F0E0FA4B
:1008000000BF00BF00BF03F041FE044600BF00BFB1
:100810004E480078401C4D49087000BF00BF20467C
:1008200003F038FE00BF00BF00BF09A8032100226B
:100830000592CDE90621089010464FF480711922E7
:10084000624BCDE90132CDE9031003200023AFF262
:1008500091225FA1009061480AF024F800BF00BF18
:1008600000BF03F013FE044600BF00BF3748007806
:10087000401E3649087008460078A0B952480088E2
:10088000002809DD00BF00BF204603F003FE00BFC3
:1008900000BF06F0A7F80DE000BF00BF204603F040
:1008A000F9FD00BF06E000BF00BF204603F0F2FDE7
:1008B00000BF00BF00BF09A805F04BFD00200AB033
:1008C00010BD0FB42DE970412DED068B81B080462F
:1008D0000C4600250FA800904148009A0E990DF093
:1008E00029F8002000903E480DF036F886B23246D6
:1008F0003B493C4801F036F904E00A2003F075FB5F
:10090000681C85B220460EF0A9FD41EC1A0B9FED44
:10091000360B53EC102B0EF049FC41EC180B28461B
:100920000EF09CFD41EC190B53EC182B0EF0AAFDB8
:10093000E3D34FF4C8712E485CE00000004800404B
:1009400030000020A082404200804042000200208F
:10095000EC0700205461736B31207461736B0000ED
:1009600028070020B00C00207461736B3220746182
:10097000736B0000EC0B0020741100205461736B4A
:1009800033207461736B0000B01000203816002013
:100990005461736B34207461736B00007415002014
:1009A000FC2600205461736B35207461736B00006A
:1009B00038260020C02B00205461736B36207461F0
:1009C000736B0000FC2A0020C401002028030020D3
:1009D0007374617274207461736B00006402002090
:1009E000D87F0020001401400000000000002440D7
:1009F000688100200DF014F83FB1012001B0BDEC7A
:100A0000068BBDE870015DF814FB0020F6E70000DE
:100A100030B502460B464FF6FF70002112E0555CE0
:100A2000684000240AE000F0010525B140104AF2B8
:100A30000105684000E04010651CACB2082CF2DBF8
:100A40004D1CA9B29942EADB30BD2DE9F041804648
:100A50000F460024002500264FF48061FE480CF06C
:100A6000DFFFFE480078FC49087000BF31E018F84D
:100A70000600C11700EB11710C1118F80600C11720
:100A800000EB11710911A0EB0111CDB2092C03DCAF
:100A900004F13000C4B206E00A2C04DB0F2C02DCA7
:100AA00004F13700C4B2092D03DC05F13000C5B2F2
:100AB00006E00A2D04DB0F2D02DC05F13700C5B27C
:100AC0007000401CE4490C547000801C0D54701CD4
:100AD00086B2BE42CBDBE24801787800401CDE4A99
:100AE00011547800801C81B21046DE4A126890478B
:100AF000BDE8F0812DE9F04707468846002400262E
:100B0000002538460CF028FF1FFA80F900BF2CE0C2
:100B10007C5D681C3E5C302C05DB392C03DCA4F1C9
:100B2000300084B206E0412C04DB462C02DCA4F148
:100B3000370084B2302E05DB392E03DCA6F13000FD
:100B400086B206E0412E04DB462E02DCA6F1370019
:100B500086B206EB0411284605EBD072521008F855
:100B60000210681C85B2681C85B24D45D0DBBDE81B
:100B7000F087BD4908807047BC490988B1F5006F0E
:100B800008DABA490A880988491CB84B1980B8495B
:100B9000885406E0B2490A78B4490988491EB44B22
:100BA0005A54704770B501464C7A0D7A44EA0522D2
:100BB0008B7A002000BF12E01418802C0DDC0C246E
:100BC00004EB40040C5D0B2505EB40054D5D44EA4C
:100BD00005241518A74E26F81540441CA0B29842CB
:100BE000EADB70BD10B5437A047A43EA0421C37A84
:100BF000847A43EA0422802902DA9E4B23F81120EA
:100C000010BD2DE9F04104460026607A217A40EAC1
:100C1000012794F80A8000254FF4806196480CF073
:100C2000FFFE207894490870607848708E480088EC
:100C3000001288708C480078C87002200871A07873
:100C40004871E07888710420C8710120087200BFE3
:100C500019E07819802803DD00208749087210E028
:100C60000120854908720C2000EB4500205C0B2117
:100C700001EB4501615C40EA012079197D4A22F8C7
:100C80001100681C85B24545E3DB09217A48FFF76E
:100C9000BFFE06463012784948728E720B217648A4
:100CA000FFF7D3FEBDE8F0812DE9F04105464FF096
:100CB0000008AE7A687A297A40EA012700244FF4C6
:100CC00080616D480CF0ACFE28786B49087068783C
:100CD0004870654800880012887063480078C870C2
:100CE00002200871A8784871E87888710320C871DB
:100CF000287A0872687A4872A87A887200BF21E060
:100D0000381980280ADDFF200B2101EB44015A4AE3
:100D100050540C2101EB4401505411E0381955494D
:100D200031F8100000120B2101EB4401524A5054DB
:100D30003819504911F810000C2101EB44015054AE
:100D4000601C84B2B442DBDB0B2000EB460081B2B6
:100D50004948FFF75DFE80464FEA28200B2101EB52
:100D60004601454A50540B2000EB4600401C02F857
:100D700000800B2000EB4600801C81B21046FFF77C
:100D800064FEBDE8F0812DE9F04104460025607A5B
:100D9000217A40EA0126E07AA17A40EA01274FF45D
:100DA000806135480CF03CFE20783349087060784B
:100DB00048702D480088001288702B480078C87051
:100DC00002200871A0784871E07888710220C8710B
:100DD000802E02DD0020087205E0012026490872FD
:100DE000244820F8167009212348FFF711FE054614
:100DF0002812214948728D720B211F48FFF725FEEA
:100E0000BDE8F08170B504460026607A217A40EA98
:100E100001254FF4806118480CF002FE2078164935
:100E200008706078487010480088001288700E487A
:100E30000078C87002200871A0784871E078887145
:100E40000120C871207A0872607A4872802D15DD01
:100E5000FF208872C8721BE0C073002024000020AD
:100E6000250000201C000020140000201800002095
:100E7000C02F002030000020C06F0020FE4830F856
:100E800015000012FD498872FB4810F81500C87261
:100E90000C21FA48FFF7BCFD06463012F7490873EB
:100EA0004E730E21F548FFF7D0FD70BD2DE9F05FC0
:100EB00004460D4600270026B146A079617940EA34
:100EC0000120EF49098888427FD1A81E81B22046BF
:100ED000FFF79EFD80464FEA282A08F0FF0BA81E68
:100EE000205C504571D1681E205C58456DD1207939
:100EF00001281BD1E079012806D0022808D0032858
:100F00000AD0042810D10BE02046FFF77BFF0CE04D
:100F10002046FFF738FF08E02046FFF7C5FE04E053
:100F20002046FFF76EFE00E000BF4EE0207910285B
:100F30000FD1E079022802D0042808D103E020462E
:100F4000FFF750FE04E02046FFF72CFE00E000BF54
:100F50003BE02079022838D1002734E0C94800EB73
:100F60008720007878B9C74901EB87210D700026EA
:100F700006E0A15DC34800EB8722701C115486B2C5
:100F8000AE42F6DB1DE0092F1BD14FF0000908E04F
:100F90000020BC4901EB8921087009F101001FFA0A
:100FA00080F9B9F10A0FF3DBB6490D70002606E0AF
:100FB000A15DB44800EB8722701C115486B2AE428A
:100FC000F6DB781C87B20A2FC8DBBDE8F09F2DE95D
:100FD000F0410026002400270025AB480088401E71
:100FE000AA49085CAA49097888425BD1A6480288C8
:100FF000A649A8480CF0CFFCA3480088A649088061
:101000004FF40061A1480CF00BFD00209E490880C0
:101010003DE00027254613E09E48405D9F49097842
:10102000884200D12E46A64208DB9A48405D984986
:101030000978884202D12C46012705E0681C85B258
:10104000954800888542E7DB00BF012F1AD1A01B1D
:10105000012800D11BE0A01B421E8E4B701C1918EA
:101060008F480CF098FC8F498D48FFF743FDA01B7B
:10107000A0F1010808EBD870C0F34F018948FFF7D1
:1010800015FF00E008E088480068804700BF8248FC
:101090000188601C8142BCDC00BF4FF400617D48C8
:1010A0000CF0BEFCBDE8F0818049086070477E49C5
:1010B0000860704770B504467D4806880088401C6B
:1010C0007B4908804FF480616C480CF0A9FC301219
:1010D0006A4908704E706A48008800128870684833
:1010E0000078C87000200871201248718C710721A7
:1010F0006248FFF78DFC054628126049C8710D72E1
:1011000009215E48FFF7A1FC70BD2DE9FC5F054693
:101110000E4617464FF000096548B0F800800024DD
:10112000A246A3460088401C614908804FF48061B4
:1011300052480CF075FC4FEA28205049087081F89D
:1011400001804F480088001288704D480078C870B0
:1011500001200871301248718E710120C871381257
:1011600008724F720A214548FFF752FC81464FEA48
:1011700029204249887281F80B9000BF45E00C217C
:101180003E48FFF762FC4FF0000B37E000242CE0F4
:101190003C4800EB8420007828B33A4800EB8420D8
:1011A0008078384901EB8421497840EA01204045A4
:1011B00019D101208DF80000324800EB8420007B1B
:1011C000304901EB8421C97A40EA0120ADF80200E0
:1011D00000202C4901EB84210870DDE90001C5E9FC
:1011E0000001BDE8FC9F601C84B20A2CD0DB2E48B5
:1011F000006880470BF101001FFA80FBBBF1640F10
:10120000C4DB0AF101001FFA80FABAF1030FB6DB62
:1012100000208DF80000DDE90001C5E9000100BFF4
:10122000DFE72DE9FF5F06460F46904699464FF0EF
:10123000000B1F48B0F800A000240020019000908F
:101240001B480088401C1A4908804FF480610B48F5
:101250000CF0E6FB4FEA2A200849087081F801A04B
:10126000074800880012887005480078C87001207F
:101270000871381248711DE030000020C06F002056
:1012800014000020C037002018000020C02F0020CC
:1012900025000020C05F0020160000202400002050
:1012A000C0670020C06B0020200000201C00002030
:1012B0002C0000208F710320C8714FEA282008728B
:1012C00081F8098081F80A900B21FE48FFF7A0FB06
:1012D00083464FEA2B20FB49C87281F80CB00020EE
:1012E000019051E00D21F748FFF7AFFB002000907F
:1012F00043E0002438E0F44800EB8420007880B319
:10130000F14800EB84208078EF4901EB8421497893
:1013100040EA0120504525D101208DF80800002524
:1013200012E0E94800EB842168000D30095CE648D2
:1013300000EB842268000C30105C41EA0020039925
:1013400021F81500681C85B24D45EADB0020DE4916
:1013500001EB84210870DDE90201C6E90001BDE866
:10136000FF9FFFE7601C84B20A2CC4DBD7480068EB
:1013700080470098401C80B2009000986428B8DB39
:101380000198401C80B2019001980328AADB00203C
:101390008DF80800DDE90201C6E9000100BFDEE7C3
:1013A0002DE9F05F05460E4617464FF00009C84884
:1013B000B0F800800024A246A3460088401CC4491F
:1013C00008804FF48061BF480CF02AFB4FEA2820C8
:1013D000BC49087081F80180BE48008800128870FE
:1013E000BC480078C87001200871281248718D71BE
:1013F0000220C871301208724E7238128872CF7291
:101400000C21B048FFF704FB81464FEA2920AD4983
:10141000087381F80D9000BF33E00E21A948FFF753
:1014200014FB4FF0000B25E000241AE0A64800EB67
:101430008420007898B1A44800EB84208078A249E9
:1014400001EB8421497840EA0120404507D1002082
:101450009D4901EB842108700120BDE8F09F601CCC
:1014600084B20A2CE2DB9948006880470BF1010046
:101470001FFA80FBBBF1640FD6DB0AF101001FFAF3
:1014800080FABAF1030FC8DB0020E6E72DE9F84F38
:1014900006460F46154698464FF0000A8C48B0F8AD
:1014A00000900024A3460020009089480088401C3A
:1014B000874908804FF4806182480CF0B1FA4FEA06
:1014C00029208049087081F8019082480088001224
:1014D000887080480078C870012008713012487107
:1014E0008E710420C871381208724F728D7200BF5D
:1014F0000DE038F81400011260000B30714A1154ED
:1015000018F8141060000C301154601C84B2AC4206
:10151000EFDB68000B3081B26A48FFF779FA824648
:101520004FEA2A2168000B30664A115468000C30DB
:1015300002F800A04FF0000B35E068000D3081B2DA
:101540006048FFF782FA0020009025E000241AE0AE
:101550005D4800EB8420007898B15B4800EB842064
:101560008078594901EB8421497840EA01204845B7
:1015700007D10020544901EB842108700120BDE807
:10158000F88F601C84B20A2CE2DB50480068804768
:101590000098401C80B2009000986428D6DB0BF1C4
:1015A00001001FFA80FBBBF1030FC6DB0020E6E75A
:1015B0002DE9F04104460D46164600274448B0F890
:1015C00000800088401C424908804FF480613D48FB
:1015D0000CF026FA4FEA28203A49087081F8018079
:1015E0003C480088001288703A480078C870102083
:1015F0000871201248718C710220C871281208727B
:101600004D7230128872CE720C212E48FFF700FA0C
:10161000074638122B4908734F730E212948FFF7EC
:1016200014FABDE8F0812DE9F04706460F4614464E
:1016300098464FF000092648B0F800A00025008821
:10164000401C234908804FF480611E480CF0E8F9E3
:101650004FEA2A201B49087081F801A01D48008824
:10166000001288701B480078C87010200871301272
:1016700048718E710420C871381208724F728C72D2
:1016800000BF0DE038F81500011268000B300D4A5C
:10169000115418F8151068000C301154681C85B2EC
:1016A000A542EFDB60000B3081B20648FFF7B0F9CE
:1016B00081464FEA292160000B30024A1154600034
:1016C0000C3009E0C06F0020C0370020200000204F
:1016D0002C0000201400002002F8009060000D3063
:1016E00081B21046FFF7B1F9BDE8F0871CB50121C2
:1016F000102001F033FA4FF6FF70009001208DF8B2
:10170000040000208DF806008DF8070003208DF8F6
:10171000050069461A4800F083FF4FF6FF7118482C
:1017200000F0FAFF1CBD1CB50121602001F016FA83
:101730004FF6FF70009000208DF8040003208DF814
:10174000050001208DF8070069460E4800F068FF8B
:1017500040F2FF30009000208DF8040003208DF847
:10176000050001208DF807006946074800F058FF82
:101770001CBD10B5FFF7BAFFFFF7D5FF10BD000085
:101780000010024000140240001802401CB5012164
:10179000022001F0E3F94FF44070009001208DF831
:1017A000040000208DF806008DF8070003208DF856
:1017B00005006946104800F033FF4FF440710E48B1
:1017C00000F0AAFF0121402001F0C8F9602000903C
:1017D00001208DF8040000208DF806008DF8070028
:1017E00003208DF805006946044800F019FF6021C8
:1017F000024800F091FF1CBD0004024000180240A6
:101800001CB50121084601F0A9F920200090012013
:101810008DF8040000208DF8060003208DF80500E7
:1018200002208DF807006946034800F0F9FE2021E8
:10183000014800F073FF1CBD0000024010B50121FB
:10184000384802F06EFA00283FD00121354802F0F6
:1018500079FA3548007838B13448007820B13348F7
:101860000078401E314908703048007868BB00207D
:101870002D4908702E480078012802D02C480078A5
:10188000B8B92C480078082813DB002240F2255113
:10189000294801F05CFC00F089FC2548007801280B
:1018A00001D100F0DFF9012240F22551224801F078
:1018B0004EFC02201D49087000201E4908700122BC
:1018C00040F225511C4801F042FC10BD7FB5054691
:1018D0000C460121022001F08AF90195ADF8004083
:1018E0000020ADF80800ADF8020069460D4801F08F
:1018F00060FD012211460B4802F0FCF90121094864
:1019000001F0E0FD1D208DF80C0003208DF80D0086
:1019100001208DF80E008DF80F0003A800F08FFD58
:101920007FBD0000000400406D0100206C0100201C
:10193000707D0020690100200044004010B540F295
:101940002551474801F03EFC70B1454801F078FB55
:10195000C4B24448D0F80C112046884740F22551C3
:101960003F4801F026FC00BF10BD10B588B004460A
:101970000121082001F0F2F80121880401F037F973
:1019800007220821384800F0D6FE072209213648F0
:1019900000F0D1FE4FF44070069002208DF81C003C
:1019A0008DF81D0000208DF81E0001208DF81F000D
:1019B00006A92D4800F034FE02940020ADF80C007A
:1019C000ADF80E00ADF81000ADF814000C20ADF825
:1019D000120002A9224801F07CFA0121204801F0FE
:1019E00000FB40211E4801F0E4FB012240F225519A
:1019F0001B4801F0ACFB27208DF8040000208DF877
:101A000005008DF8060001208DF8070001A800F000
:101A100016FD08B010BD0FB438B505A800901348E6
:101A2000009A04990BF086FF002000900F480BF0FD
:101A300093FF85B200240DE000BF4021084801F06B
:101A4000ABFB0028F9D00948015D054801F0F4FA24
:101A5000601C84B2AC42EFDB38BC5DF814FB0000C4
:101A60000048004030000020000C0240C0780020F8
:101A7000704710B588B004460121082001F06EF8C7
:101A80000121480401F0B3F807220521414800F084
:101A900052FE072206213F4800F04DFE60200690CE
:101AA00002208DF81C008DF81D0000208DF81E000E
:101AB00001208DF81F0006A9364800F0B1FD029400
:101AC0000020ADF80C00ADF80E00ADF81000ADF838
:101AD00014000C20ADF8120002A92F4801F0F9F90A
:101AE00001212D4801F07DFA40212B4801F061FBD6
:101AF000012240F22551284801F029FB26208DF8CB
:101B0000040000208DF805008DF8060001208DF8F6
:101B1000070001A800F093FC08B010BD0FB438B561
:101B200005A800901D48009A04990BF003FF0020BF
:101B300000901A480BF010FF85B200240DE000BFA2
:101B40004021154801F028FB0028F9D01348015D19
:101B5000114801F071FA601C84B2AC42EFDB38BC72
:101B60005DF814FB70B506460C4615460BE014F8FC
:101B7000011B304601F060FA00BF4021304601F001
:101B80000BFB0028F9D0281EA5F101018DB2EED182
:101B900070BD0000000C024000440040E07B0020CB
:101BA00030B502460B464FF6FF70002112E0555C3F
:101BB000684000240AE000F0010525B140104AF217
:101BC0000105684000E04010651CACB2082CF2DB57
:101BD0004D1CA9B29942EADB30BD2DE9F041044623
:101BE0000E460120FE490870092E29D2DFE806F0D2
:101BF000280C131A21282828050004F18000F84930
:101C00004870082088701BE004F18000F449487097
:101C10000120887014E004F18000F149487002202E
:101C200088700DE004F18000ED4948700320887051
:101C300006E004F18000EA4908700420487000BF03
:101C400000BF0321E648FFF7ABFF05462F0A05F06A
:101C5000FF08E34880F8038007710520E149087018
:101C6000BDE8F08110B5DF480278DD49DE48FFF7B6
:101C700079FF10BD2DE9F84FDC4890F8029090F8FC
:101C800003A090F804B0407900900AEB09201FFAF5
:101C900080F8009800EB0B2084B208EB0400822847
:101CA00004DB02210120FFF798FF52E00120CC491C
:101CB00008704870E11704EB5171C910A4EBC10121
:101CC00041B92046E11704EB5171C1F3C701C44A81
:101CD000917007E02046E11704EB5171C910491CCF
:101CE000BF4A917000251AE00021E81CBC4A11543B
:101CF000002610E008EBC5003044BD49085C00F048
:101D00000100B040E91CB64A515C0844C1B2E81C6D
:101D10001154701C86B2082EECDB681C85B2B048EA
:101D20008078A842E0DCAE488078C11CAC48FFF760
:101D300037FF0746AA488078C01CA94A1754390AB9
:101D400010468078001D115410468078401DA5492A
:101D50000870BDE8F88F2DE9FC4F4FF6FF7000903A
:101D600000240AE0A348005D28B10120A0400099AA
:101D7000081A80B20090601C84B2142CF2DB9B48DD
:101D800090F8029090F803A090F804B04079019088
:101D90000AEB092086B2019800EB0B2085B270197E
:101DA000142801DA0B2E04DD02210120FFF715FFB4
:101DB00062E0002408E000982041012121EA0000AF
:101DC0008C490855601C84B2142CF4DB0120844932
:101DD000087002204870E91705EB5171C910A5EB96
:101DE000C10141B92846E91705EB5171C1F3C7019B
:101DF0007B4A917007E02846E91705EB5171C9103D
:101E0000491C774A917000241AE00021E01C744AB2
:101E10001154002710E006EBC40038447549085CF3
:101E200000F00100B840E11C6D4A515C0844C1B2A9
:101E3000E01C1154781C87B2082FECDB601C84B2C4
:101E400067488078A042E0DC65488078C11C64481F
:101E5000FFF7A6FE804662488078C01C604A02F800
:101E600000804FEA182110468078001D115410465A
:101E70008078401D5B490870BDE8FC8F2DE9F04F6C
:101E80005A4890F8028090F8039090F804A090F8D7
:101E900005B009EB082087B20BEB0A2084B2381991
:101EA0001E2804DD02210320FFF797FE36E0012003
:101EB0004B490870032048706006000E88700025AA
:101EC00013E078194C4931F81000000A032101EBA6
:101ED0004501434A50547819474911F8100004212C
:101EE00001EB45015054681C85B2A542E9DB032093
:101EF00000EB440081B23A48FFF752FE0646032148
:101F000001EB4401364A5654300A042101EB4401E6
:101F10005054052000EB440032490870BDE8F08FB2
:101F20002DE9F84F314890F8029090F803A090F80E
:101F300004B0407900900AEB092087B2009800EBCA
:101F40000B201FFA80F807EB0800142801DA012F94
:101F500004DD02210120FFF740FE5DE002240AE0DB
:101F6000042404E0002023490855601C84B2142C8A
:101F7000F8DB601C84B2062CF2DB012018490870E3
:101F8000042048704FEA4860000E887000241AE070
:101F90000021E01C124A1154002510E007EBC40098
:101FA00028441449085C00F00100A840E11C0C4AD8
:101FB000515C0844C1B2E01C1154681C85B2082D64
:101FC000ECDB601C84B206488078A042E0DC044868
:101FD0008078C11C0248FFF7E3FD064600480DE08B
:101FE000E07B00206801002000440040707D00205C
:101FF000147F0020007F0020967F00208078C01C86
:10200000AA4A1654310A10468078001D1154104611
:102010008078401DA6490870BDE8F88F2DE9F0438F
:10202000A44890F8028090F803900679477909EB6C
:10203000082085B2822D04DB02210120FFF7CDFDAF
:1020400021E0FF2E03D117B901209B4948551EB945
:1020500017B9002098494855012094490870052077
:102060004870084680F8028080F803900671477136
:102070000621FFF795FD04468C498C71200AC87132
:1020800008208B490870BDE8F0832DE9F0478948A6
:10209000877890F8038090F8049090F805A008EBFA
:1020A000072084B20AEB092086B21E2C04DD02212F
:1020B0000620FFF792FD28E0B6F5803F04DB032100
:1020C0000620FFF78AFD20E07C4820F814600120FC
:1020D00076490870062048700846877080F80380AB
:1020E000764830F81400000A0871744810F814009B
:1020F000487106216D48FFF753FD05466B498D7108
:10210000280AC87108206A490870BDE8F0872DE9DF
:10211000F04F684890F8028090F8039090F804A07F
:1021200090F805B009EB082087B26248857905EB85
:10213000D57107EB61011E2904DD02211020FFF794
:102140004CFD31E0002411E0072000EB4400594928
:10215000095C082000EB4400564A105C61F31F2024
:102160003919564A22F81100601C84B205EBD5716A
:10217000B4EB610FE8DB01204C4908701020487077
:10218000084680F8028080F8039080F804A080F868
:1021900005B00621FFF704FD064644498E71300A5A
:1021A000C871082042490870BDE8F08F70B54448F6
:1021B0000078801E81B23F48FFF7F2FC0446E5B28A
:1021C000260A3F480078801E3A49085CA84234D16C
:1021D0003B480078401E085CB0422ED1084640784B
:1021E000042817D006DC01280BD002280CD00328C5
:1021F0001CD10CE0052810D0062811D0102815D1CC
:1022000011E0FFF737FD17E0FFF7A5FD14E0FFF73A
:1022100035FE11E0FFF784FE0EE0FFF7FFFE0BE056
:10222000FFF733FF08E0FFF772FF05E02149487828
:102230000421FFF7D2FC00BF36E01E484078042896
:102240001DD006DC01280BD002280ED003282AD18D
:1022500010E0052818D006281BD0102823D11DE037
:1022600008210120FFF7B9FC1DE008210220FFF73B
:10227000B4FC18E008210320FFF7AFFC13E00821AD
:102280000420FFF7AAFC0EE008210520FFF7A5FCBB
:1022900009E008210620FFF7A0FC04E00821102037
:1022A000FFF79BFC00BF00BF70BD0000E07B00207B
:1022B00068010020707D0020147F0020967F0020A0
:1022C0006901002010B540F22551464800F07AFF20
:1022D00070B1444800F0B4FEC4B24348D0F80C11C9
:1022E0002046884740F225513E4800F062FF00BF7B
:1022F00010BD10B588B004460121042000F02EFC6A
:102300000121202000F084FC08220621374800F03B
:1023100012FA08220721354800F00DFAC020069075
:1023200002208DF81C008DF81D0000208DF81E0085
:1023300001208DF81F0006A92C4800F071F90294C5
:102340000020ADF80C00ADF80E00ADF81000ADF8AF
:1023500014000C20ADF8120002A9224800F0B9FDCB
:102360000121204800F03DFE012240F225511D4888
:1023700000F0EDFE47208DF8040000208DF80500E8
:102380008DF8060001208DF8070001A800F057F82D
:102390004021144800F00DFF08B010BD0FB438B54F
:1023A00005A800901248009A04990BF0C3FA002087
:1023B00000900F480BF0D0FA85B200240DE000BF6A
:1023C0004021084800F0E8FE0028F9D00848015DE7
:1023D000044800F031FE601C84B2AC42EFDB38BC34
:1023E0005DF814FB0014014030000020000802409A
:1023F000D87F00200948804709480047FEE7FEE7EC
:10240000FEE7FEE7FEE7FEE7FEE7FEE7FEE7FEE7A4
:1024100004480549054A064B7047000005040008BA
:102420008901000878A5002078BD002078AD002043
:1024300078AD002032490143324A1160704770B5CF
:10244000002100230F22C4781CB32E4C246804F40E
:10245000E064C4F5E064C4F30721C1F10404E3B20D
:102460000A4144789C40E1B28478144021430C072F
:10247000210E254C05786155047804F01F050124D0
:10248000AC4005786D11AD0005F1E025C5F80041BF
:1024900009E0047804F01F050124AC401B4D0678C8
:1024A000761145F8264070BD194A0A400243154B83
:1024B0001B1F1A60704739B1124A121D126802437D
:1024C000104B1B1D1A6006E00E4A121D1268824353
:1024D0000C4B1B1D1A607047042808D14FF0E021F7
:1024E000096941F004014FF0E022116107E04FF06B
:1024F000E021096921F004014FF0E02211617047E9
:102500000000FA050CED00E000E400E080E100E0EE
:1025100080FFFF1F10B504469848844208D101216E
:10252000084600F086FB0021012000F082FB76E0E7
:102530009348844208D10121022000F07AFB002157
:10254000022000F076FB6AE08E48844208D1012127
:10255000042000F06EFB0021042000F06AFB5EE026
:102560008948844208D10121082000F062FB002143
:10257000082000F05EFB52E08448844208D101212B
:10258000102000F056FB0021102000F052FB46E026
:102590007F48844208D10121202000F04AFB00211D
:1025A000202000F046FB3AE07A48844208D101211D
:1025B000402000F03EFB0021402000F03AFB2EE0DE
:1025C0007548844208D10121802000F032FB0021AF
:1025D000802000F02EFB22E07048844208D10121C7
:1025E000801500F026FB0021A01500F022FB16E06C
:1025F0006B48844208D10121401500F01AFB0021EC
:10260000601500F016FB0AE06648844207D10121FC
:10261000001500F00EFB0021201500F00AFB10BD94
:10262000F0B50A4600210023002400BF3DE001254B
:1026300005FA01F3156805EA03049C4234D10568E4
:102640004F000326BE40B543056015794E00B540E6
:102650000668354305601579012D02D01579022DE4
:1026600016D185684F000326BE40B5438560557975
:102670004E00B540866835438560456801268E402A
:10268000B5434560456896798E40B6B2354345609E
:10269000C5684F000326BE40B543C560D5794E00DE
:1026A000B540C6683543C560491C1029BFD3F0BD8D
:1026B0004FF6FF7101600021017141718171C1719B
:1026C000704708B54FF480320092009A0A43009296
:1026D000009AC261C161009AC261C2690092C26976
:1026E000009208BD0246002013690B400BB1012087
:1026F00000E0002070470146086980B2704702463A
:10270000002053690B400BB1012000E0002070470E
:102710000146486980B27047018370474183704722
:102720000AB1018300E0418370474161704742690B
:102730004A4042617047F0B5002300244D07ED0E7A
:1027400002FA05F3CE1000F1200555F826504E0789
:10275000F70E0F26BE40B543CF1000F1200646F815
:102760002750CE1000F1200555F8265045EA030405
:10277000CE1000F1200545F82640F0BD00000240D3
:102780000004024000080240000C02400010024019
:102790000014024000180240001C024000200240C9
:1027A0000024024000280240F948006840F001007F
:1027B000F74908600020F64908310860F4480068CD
:1027C000F4490840F2490860F348091D0860F348DD
:1027D000EF4984310860F0481038091D0860EC4862
:1027E000006820F48020EA4908600020E8490C31A4
:1027F0000860E7498C31086070470021E44A921C68
:10280000117011460870704710B501460022002370
:1028100000204A11012A02D1DD4C236808E0022A77
:1028200003D1DB4C7034236802E0D94C7434236844
:1028300001F01F02012494401C400CB1012000E073
:10284000002010BD38B5002000900024002500BFF6
:102850003120FFF7D9FF05460098401C00900098F2
:10286000B0F5A04F01D0002DF2D03120FFF7CCFF02
:1028700008B1012400E00024204638BD01460020B4
:10288000C34A106820F0F80040EAC10010607047A9
:10289000C349086070470021BD4A70321170117041
:1028A000012802D004280AD104E00121B84A70327C
:1028B000117005E00521B64A7032117000E000BFCA
:1028C00000BF7047B7490860704770B5049C41EA83
:1028D00082150126C6EB530645EA0645054345EA3F
:1028E0000465AB4E361D356070BDAD490866704756
:1028F000820142EA0172A64B84331A607047A849EC
:102900008866704710B5830143EA016343EA0273A6
:102910009F4C8834236010BDA14908677047A049C7
:10292000C864704702460020994B0833186820F0AD
:10293000EC6042EA01031843954B08331860704776
:1029400002460020924B0833186820F0784042EA93
:10295000010318438E4B083318607047014600206E
:102960008B4A0832106820F003000843106070475B
:1029700087480830006800F00C00704701460020CE
:10298000834A0832106820F0F00008431060704756
:10299000014600207E4A0832106820F4E0500843C7
:1029A0001060704701460020794A0832106820F410
:1029B000604040EAC10010607047F0B5002100227D
:1029C0000024022500260223714F08373F6807F0D4
:1029D0000C0121B1042905D0082937D105E0724F37
:1029E000076036E0714F076033E0694F3F1D3F6875
:1029F000C7F38056664F3F1D3F6807F03F036EB137
:102A00006A4FB7FBF3F7DFF888C10CF1040CDCF870
:102A100000C0CCF3881C07FB0CF40CE0624FB7FB42
:102A2000F3F7DFF86CC10CF1040CDCF800C0CCF358
:102A3000881C07FB0CF4564F3F1D3F68C7F3014746
:102A40007F1C7D00B4FBF5F7076002E0564F07607E
:102A500000BF00BF4E4F08373F6807F0F00109097B
:102A6000534F7A5C0768D7404760494F08373F6843
:102A700007F4E051890A4E4F7A5C4768D740876077
:102A8000434F08373F6807F46041490B484F7A5C71
:102A90004768D740C760F0BD002100F44072B2F52E
:102AA000407F0AD13A4A0832116821F4F811414AAC
:102AB00002401143364A08321160354A70321268BA
:102AC000C0F30B031A43324B70331A607047354919
:102AD00044390860704733494039086070473649C7
:102AE0000860704701460020294A8C32106820F0A7
:102AF0001F004A1E1043264A8C3210607047014660
:102B00000020234A8C32106820F4F8504A1E40EA14
:102B100002201F4A8C3210607047014600201C4A78
:102B20008C32106820F44010084310607047014652
:102B30000020174A8C32106820F4400008431060CF
:102B4000704701460020124A8C32106820F4403051
:102B500008431060704719490860704739B10C4A42
:102B60003032126802430A4B30331A6006E0084ADA
:102B7000303212688243064B30331A607047F9B125
:102B8000034A343212680243014B34331A601CE0AA
:102B900000380240FFFFF6EA103000240030002029
:102BA00000004742800E47420024F40000127A00E1
:102BB0006E010020FFFCFF0F5C014742E01147421D
:102BC0008F4A126882438E4B1A60704739B18C4A23
:102BD000121D126802438A4B1B1D1A6006E0884AC8
:102BE000121D12688243864B1B1D1A60704739B153
:102BF000834A0C3212680243814B0C331A6006E0A0
:102C00007F4A0C32126882437D4B0C331A60704746
:102C100039B17B4A103212680243794B10331A6083
:102C200006E0774A103212688243754B10331A60FF
:102C3000704739B1724A243A12680243704B243B00
:102C40001A6006E06E4A243A126882436C4B243BB9
:102C50001A60704739B16A4A203A12680243684BD9
:102C6000203B1A6006E0664A203A12688243644BB1
:102C7000203B1A60704739B1614A1C3A126802431E
:102C80005F4B1C3B1A6006E05D4A1C3A12688243A7
:102C90005B4B1C3B1A60704739B1594A143A1268B1
:102CA0000243574B143B1A6006E0554A143A126827
:102CB0008243534B143B1A60704739B1504A103A63
:102CC000126802434E4B103B1A6006E04C4A103A21
:102CD000126882434A4B103B1A60704739B1484A28
:102CE0001C3212680243464B1C331A6006E0444A09
:102CF0001C3212688243424B1C331A60704739B150
:102D00003F4A2032126802433D4B20331A6006E0EE
:102D10003B4A203212688243394B20331A60704795
:102D200039B1374A243212680243354B24331A60D2
:102D300006E0334A243212688243314B24331A604E
:102D4000704739B12E4A2C32126802432C4B2C3377
:102D50001A6006E02A4A2C3212688243284B2C3330
:102D60001A60704739B1264A303212680243244B48
:102D700030331A6006E0224A303212688243204B18
:102D800030331A607047012808D11D493C31096869
:102D900041F008011A4A3C32116007E018493C3101
:102DA000096821F00801164A3C321160704739B1B8
:102DB000134A273A12780243114B273B1A7006E058
:102DC0000F4A273A127882430D4B273B1A707047FF
:102DD0000B484030006840F080700949403108607D
:102DE000704701460020064A283A12680A400AB194
:102DF000012000E000207047014926390870704723
:102E00003438024010B50446FA48844208D1012102
:102E10001020FFF752FF00211020FFF74EFF57E070
:102E2000F548844209D101214804FFF735FF00210C
:102E30004FF40030FFF730FF4AE0F048844209D1F8
:102E400001218804FFF728FF00214FF48020FFF7BD
:102E500023FF3DE0EA48844209D10121C804FFF77D
:102E60001BFF00214FF40020FFF716FF30E0E5487C
:102E7000844209D101210805FFF70EFF00214FF41C
:102E80008010FFF709FF23E0DF48844208D10121C9
:102E90002020FFF712FF00212020FFF70EFF17E090
:102EA000DA48844209D101218807FFF7F5FE0021A5
:102EB0004FF08040FFF7F0FE0AE0D548844207D18A
:102EC00001214005FFF7E8FE00216005FFF7E4FE61
:102ED00010BD2DE9FF4705460E460024A14600BF60
:102EE000A046B08900B100BF2C8A24F44054F08879
:102EF00004432C82AC8941F20C608443B088318950
:102F00000843718908430443AC81AC8A24F44074BB
:102F1000B0890443AC826846FFF74FFDB54885424F
:102F200002D0B948854202D1DDF80C9001E0DDF80D
:102F30000890A88900F4004040B109EBC90000EBFB
:102F4000091031684900B0FBF1F707E009EBC9004F
:102F500000EB091031688900B0FBF1F76420B7FB82
:102F6000F0F004012009642101FB1078A88900F425
:102F7000004040B1322000EBC800B0FBF1F000F09F
:102F80000700044308E0322000EB08106421B0FB86
:102F9000F1F000F00F0004432C81BDE8FF874FF4EF
:102FA0001651016000218180C18001810C21418185
:102FB00000218181704710B502460020108A20F45C
:102FC00070600B884C8823438C882343CC88234330
:102FD0001843108210BD0021018041808180C18092
:102FE000704721B1828942F40052828104E08289D3
:102FF0004DF6FF731A4082817047028B02F47F42C4
:103000000283028B0A430283704721B1828942F412
:103010000042828103E08289C2F30E0282817047FE
:1030200021B1828A42F40062828204E0828A4FF2F5
:10303000FF731A4082827047C1F308028280704792
:1030400001468888C0F308007047028A4FF6F07383
:103050001A400282028A0A430282704721B18289A1
:1030600042F00202828104E082894FF6FD731A4029
:103070008281704782894FF2FF731A408281828970
:103080000A4382817047028A4FF6DF731A40028238
:10309000028A0A430282704721B1028A42F48042C6
:1030A000028204E0028A4BF6FF731A4002827047E4
:1030B000818941F001018181704721B1828A42F00A
:1030C0000802828204E0828A4FF6F7731A408282F5
:1030D0007047028BD2B20283028B42EA0122028342
:1030E000704721B1828A42F02002828204E0828A03
:1030F0004FF6DF731A408282704721B1828A42F014
:103100001002828204E0828A4FF6EF731A408282B4
:103110007047828A4FF6FB731A408282828A0A4382
:103120008282704721B1828A42F00202828204E0E8
:10313000828A4FF6FD731A40828270471AB1838AE1
:103140000B43838202E0838A8B4383827047F0B50E
:103150000346002400260025002040F66A17B942E5
:1031600000D100BF1846C1F3421401F01F06012729
:1031700007FA06F5012C01D10C3004E0022C01D134
:10318000103000E014301AB107682F43076002E0E6
:103190000768AF430760F0BD02460020B1F5007F2D
:1031A00000D100BF13880B400BB1012000E00020CC
:1031B000704701F40072B2F5007F00D100BFCA432E
:1031C0000280704770B502460024002300250020CD
:1031D00040F66A16B14200D100BFC1F3421501F0BA
:1031E0001F03012606FA03F3012D13D196893340FC
:1031F00017E000000010014000440040004800407B
:10320000004C004000500040001401400078004095
:10321000007C0040022D02D1168A334001E0968ADC
:1032200033400C12012606FA04F41688344013B118
:103230000CB1012000E0002070BD10B50022002379
:1032400040F66A14A14200D100BF0A120124944042
:10325000A3B2DC43048010BD10B50446FE4884428E
:1032600008D101210846FFF728FD00210120FFF7C2
:1032700024FD9DE0B4F1804F08D101210846FFF7FD
:103280000BFD00210120FFF707FD91E0F348844288
:1032900008D101210220FFF7FFFC00210220FFF7E7
:1032A000FBFC85E0EE48844208D101210420FFF7B1
:1032B000F3FC00210420FFF7EFFC79E0E9488442A9
:1032C00008D101210820FFF7E7FC00210820FFF7C3
:1032D000E3FC6DE0E448844208D101211020FFF7AF
:1032E000DBFC00211020FFF7D7FC61E0DF488442BF
:1032F00008D101212020FFF7CFFC00212020FFF77B
:10330000CBFC55E0DA48844208D101210220FFF7C6
:10331000D4FC00210220FFF7D0FC49E0D5488442CC
:1033200009D101210804FFF7C8FC00214FF48030C7
:10333000FFF7C3FC3CE0D048844209D10121480496
:10334000FFF7BBFC00214FF40030FFF7B6FC2FE085
:10335000CA48844209D101218804FFF7AEFC00214C
:103360004FF48020FFF7A9FC22E0C548844208D131
:1033700001214020FFF790FC00214020FFF78CFC4A
:1033800016E0C048844208D101218020FFF784FC68
:1033900000218020FFF780FC0AE0BB48844207D16F
:1033A00001218015FFF778FC0021A015FFF774FCC0
:1033B00010BD00220288A84B98420ED0AC4B984218
:1033C0000BD0B0F1804F08D0A44B984205D0A44B4D
:1033D000984202D0A34B984204D14FF68F731A4003
:1033E0004B881A43A04B984207D0A04B984204D078
:1033F0004FF6FF431A400B891A4302804B68C362A1
:103400000B880385944B984202D0994B984201D186
:103410008B7A03860123838270474FF0FF3141602E
:103420000021018001814180817270470185828283
:1034300070470A46002101884FF68F7319401143E7
:103440000180704741627047C16270470146486A17
:1034500070470146088D704721B1028842F0020290
:10346000028004E002884FF6FD731A400280704724
:1034700021B1028842F00402028004E002884FF683
:10348000FB731A400280704721B1028842F080022B
:10349000028004E002884FF67F731A400280704772
:1034A00002884FF6F7731A40028002880A430280AE
:1034B000704702884FF6FF431A40028002880A4391
:1034C0000280704721B1028842F00102028004E0CC
:1034D00002884FF6FE731A400280704770B50024D0
:1034E00000220023058C4FF6FE7635400584028CC1
:1034F0008388048B4FF68F752C40B51E2C400D88A9
:103500002C43751E2A408D892A434D882A43524DEB
:10351000A84202D0564DA84213D14FF6F7752A4063
:10352000CD892A434FF6FB752A408D882A434FF6F2
:10353000FF652B404FF6FF552B400D8A2B434D8ADC
:103540002B43838004838D684563028470BD70B50E
:10355000002400220023058C4FF6EF7635400584C9
:10356000028C8388048B48F6FF752C404FF6FF458C
:103570002C400D884FF6FF7606EA05252C434FF6C2
:10358000DF752A408D8906EA05152A434D8806EA2B
:1035900005152A43304DA84202D0354DA8421DD111
:1035A0004FF67F752A40CD894FF6FF7606EA05155E
:1035B0002A434FF6BF752A408D8806EA05152A432F
:1035C0004FF6FF352B404FF2FF752B400D8A06EA70
:1035D00085052B434D8A06EA85052B4383800483AA
:1035E0008D688563028470BD70B5002400220023BD
:1035F000058C4FF6FF6635400584028C8388848BEA
:103600004FF68F752C404FF6FC752C400D882C43DF
:103610004FF6FF552A408D894FF6FF7606EA0525BD
:103620002A434D8806EA05252A430B4DA84202D0BD
:103630000F4DA84238D14FF2FF752A40CD894FF681
:10364000FF7606EA05252A434FF6FF352A408D8886
:1036500006EA05252A4319E0000001400004004065
:1036600000080040000C0040001000400014004022
:103670000004014000400140004401400048014076
:1036800000180040001C0040002000404EF6FF756E
:103690002B404DF6FF752B400D8A06EA05152B438E
:1036A0004D8A06EA05152B43838084838D68C563A4
:1036B000028470BD70B5002200230024058C4EF6F4
:1036C000FF7635400584038C8488828B48F6FF752D
:1036D0002A404FF6FF452A400D884FF6FF7606EA4E
:1036E00005252A434DF6FF752B408D8906EA0535E1
:1036F0002B434D8806EA05352B43FE4DA84202D0E8
:10370000FD4DA84208D14BF6FF752C400D8A4FF6AF
:10371000FF7606EA85152C43848082838D680564D4
:10372000038470BD0021018041808180816081819E
:10373000C18101824182704770B503460020002498
:103740001846183001258D40ACB21D8CA5431D8450
:1037500009B108290AD100EB610005684FF68F76A0
:10376000354005600568154305600FE00D1FC5F382
:103770004E052844056848F6FF7635400560056823
:103780004FF6FF7606EA02263543056070BD4163B9
:10379000704781637047C1637047016470470A4690
:1037A0000021018B4FF68F7319401143018370473D
:1037B0000A460021018B48F6FF7319404FF6FF734C
:1037C00003EA02231943018370470A460021818BD3
:1037D0004FF68F7319401143818370470A460021C9
:1037E000818B48F6FF7319404FF6FF7303EA0223FB
:1037F0001943818370470A460021018B4FF6F77306
:1038000019401143018370470A460021018B4FF292
:10381000FF7319404FF6FF7303EA02231943018334
:1038200070470A460021818B4FF6F7731940114308
:10383000818370470A460021818B4FF2FF73194044
:103840004FF6FF7303EA02231943818370470A4648
:103850000021018B4FF6FB73194011430183704720
:103860000A460021018B4FF6FF3319404FF6FF73D4
:1038700003EA02231943018370470A460021818B22
:103880004FF6FB7319401143818370470A460021AC
:10389000818B4FF6FF3319404FF6FF7303EA022383
:1038A0001943818370470A460021018B4FF67F73CD
:1038B00019401143018370470A460021018BC1F36F
:1038C0000E014FF6FF7303EA022319430183704789
:1038D0000A460021818B4FF67F7319401143818383
:1038E00070470A460021818BC1F30E014FF6FF732A
:1038F00003EA02231943818370470A460021018CA1
:103900004FF6FD7319401143018470470A460021A8
:10391000018C4FF6F77319401143018470470A4632
:103920000021018C4FF6DF7319404FF6FF7303EA55
:1039300002131943018470470A460021018C4FF697
:103940007F7319404FF6FF7303EA02131943018492
:1039500070470A460021018C4FF6FF5319404FF67D
:10396000FF7303EA02231943018470470A460021CA
:10397000018C4FF2FF7319404FF6FF7303EA0223E5
:103980001943018470470A460021018C4DF6FF73EC
:1039900019404FF6FF7303EA02331943018470475D
:1039A00030B5002301248C40A3B2048C9C430484D2
:1039B000048C02FA01F5ADB22C43048430BD30B55D
:1039C000002304248C40A3B2048C9C430484048C04
:1039D00002FA01F5ADB22C43048430BD828B4FF264
:1039E000FF331A408283828B4FF6FF7303EA012371
:1039F0001A4382837047F0B50C4615460021002219
:103A00000026078C4EF6FF7C07EA0C070784818BA3
:103A1000028C4FF6FF7707EA043640F6FF4739403D
:103A20004FF6FF7707EA052739434FF6FF7707EA96
:103A30000337394345F6FF773A4046F480573A4317
:103A400081830284F0BD828B4FF6F3731A40828328
:103A5000828B0A4382837047F0B50C4615460021DD
:103A600000220026078C4FF6FF6C07EA0C0707843C
:103A7000818B028C4FF6FF7707EA04264FF60C770E
:103A800039404FF6FF7707EA03172F4339434FF2C8
:103A9000FF573A4046F480773A4381830284F0BD71
:103AA000028B4FF2FF331A400283028B4FF6FF73F3
:103AB00003EA01231A4302837047F0B50C4615460A
:103AC000002100220026078C4FF6EF7C07EA0C0746
:103AD0000784018B028C4FF6FF7707EA041640F645
:103AE000FF4739404FF6FF7707EA033739434FF670
:103AF000FF7703E0000001400004014007EA0527CA
:103B000039434FF65F773A4046F010073A43018356
:103B10000284F0BD028B4FF6F3731A400283028BCE
:103B20000A4302837047F0B50C4615460021002277
:103B3000068C4FF6FE773E400684018B028C4FF6D2
:103B40000C7631407E1C06EA03162E4331434FF6B5
:103B5000F576324044F00106324301830284F0BD21
:103B600070B505460C46208850B92389A288618823
:103B70002846FFF7D8FFE1882846FFF7CBFF25E06E
:103B8000208804280AD12389A28861882846FFF763
:103B900094FFE1882846FFF783FF17E02088082874
:103BA0000AD12389A28861882846FFF755FFE1885A
:103BB0002846FFF748FF09E02389A2886188284644
:103BC000FFF719FFE1882846FFF708FF70BD0021C5
:103BD00001804180012181800021C18001817047E5
:103BE0002DE9F04105460C4600260127608808B9FA
:103BF000022600E00026A088012801D1022700E06B
:103C000001272088A0B92389A28861882846FFF768
:103C10008AFFE1882846FFF77DFF23893A4631462F
:103C20002846FFF74AFFE1882846FFF739FF13E0EF
:103C30002389A28861882846FFF73FFFE18828464C
:103C4000FFF72EFF23893A4631462846FFF76BFFE0
:103C5000E1882846FFF75EFFBDE8F0810146486B2A
:103C600070470146886B70470146C86B7047014634
:103C7000086C70470A884B881A438B881A43CB8894
:103C80001A430B891A434B891A438B891A43A0F8AC
:103C9000442070470021018041808180C1800181E2
:103CA00041818181704731B1B0F8442042F4004233
:103CB000A0F8442005E0B0F84420C2F30E02A0F8BA
:103CC0004420704721B1828842F00402828004E0DF
:103CD00082884FF6FB731A408280704721B1828838
:103CE00042F00102828004E082884FF6FE731A409F
:103CF000828070471AB183890B43838102E08389F4
:103D00008B43838170478182704702460020138A6B
:103D10000B400BB1012000E000207047CA43028233
:103D2000704730B50246002000230024158A05EABA
:103D30000103958905EA010413B10CB1012000E0EB
:103D4000002030BDCA430282704741EA0203A0F856
:103D5000483070471AB183890B43838102E083891D
:103D60008B438381704721B1828842F008028280B0
:103D700004E082884FF6F7731A4082807047018909
:103D80004FF6F8721140018170470A4600210189FF
:103D90004FF68F73194011430181704730B50446C7
:103DA0000D4629462046FFF7F0FF208940F0070026
:103DB000208130BD2DE9F04104460D4616461F46D0
:103DC000602D06D13B46012231462046FFF775FEA5
:103DD00005E03B46012231462046FFF7A4FE294676
:103DE0002046FFF7D2FF208940F007002081BDE880
:103DF000F08130B50C4600210189C9B24FF6FF753C
:103E000005EA0325154325432943018130BD2DE9EA
:103E1000F04105460E4617469846002443463A466A
:103E200031462846FFF7E5FF2C894FF6F87004402D
:103E300044F007044FF68F70044044F070042C8166
:103E4000BDE8F081F0B504460D4616461F463B46D8
:103E5000324629462046FFF7CCFF208940F48040B7
:103E60002081F0BD82884FF68F731A40828082884D
:103E70000A438280704702894FF6F8731A40028124
:103E800002890A430281704702894FF67F731A4004
:103E9000028102890A4302817047F0B50C4615463B
:103EA0001E460021002200230189028B038C4FF65D
:103EB000F877394021434FF6FC473A4040F201176A
:103EC0003A434FF6DD773B404FF6FF7707EA061798
:103ED0002F433B43018102830384F0BD21B18288DB
:103EE00042F08002828004E082884FF67F731A409D
:103EF00082807047A0F850107047000008B56846EF
:103F000002F0AEF808BD08B5684602F0F3F808BD47
:103F100038B504466A460821204608F0D9FB38BD6A
:103F200010B542480078012805D101F0DFFF08F004
:103F30005BFE01F0ECFF10BD70B504466FF00400AD
:103F4000FEF7CAFA2046E11704EB5171C1F3C7012D
:103F5000374A1170E11704EB5171CD1035480068F4
:103F60003549B1FBF0F04543324800684FF47A71AF
:103F7000B1FBF0F0314908804FF0E020006940F0DB
:103F800002004FF0E021086108464561006940F0F9
:103F90000100086170BD2DE9F047074600264FF08B
:103FA000E020D0F814902248007807FB00F8FFF7D3
:103FB000A5FF4FF0E020856911E04FF0E020846913
:103FC000AC420CD0AC4202D2281B064403E0A9EB61
:103FD0000400284406442546464500D300E0ECE7AB
:103FE00000BFFFF790FFBDE8F08770B504460F48AB
:103FF0000078A0B11248007888B91048008884423F
:1040000006DB0E48008894FBF0F52846FFF780FF9A
:104010000A48008894FBF0F100FB114084B24FF491
:104020007A7104FB01F0FFF7B6FF70BDB901002003
:104030007E010020ACF7000840420F008001002004
:10404000B801002010B53F48FEF7FAFFC1B23E4864
:1040500002780078401C3C4B18703C48815440F278
:1040600027713848FFF7AEF828B1002240F22771D7
:104070003448FFF76CF810BD10B586B00446012136
:104080000846FEF76BFD01211020FEF7C1FD072257
:1040900009212F48FEF74FFB07220A212C48FEF783
:1040A0004AFB4FF4C060049002208DF814008DF894
:1040B000150000208DF8160001208DF8170004A9C6
:1040C0002348FEF7ADFA00940020ADF80400ADF8E7
:1040D0000600ADF80800ADF80C000C20ADF80A00A1
:1040E00069461848FEF7F5FE01211648FEF779FFEC
:1040F00040211448FFF75DF806B010BD0FB438B585
:1041000005A800901348009A049909F013FC0020B8
:104110000090104809F020FC85B200240DE000BF9B
:1041200040210848FFF738F80028F9D00948015D18
:104130000448FEF781FF601C84B2AC42EFDB38BC60
:104140005DF814FB001001408301002088840020EA
:1041500000000240F88200201FB56846FEF72DFCE3
:10416000019804B010BD10B5FFF7F6FF04461848DB
:10417000006840F0807016490860002015494860CA
:104180000846006840F001000860204600F0B7F8DB
:1041900010BD1049486870472DE9F0478246FFF787
:1041A000DBFF4FF0000980460B4A0023404649469A
:1041B00009F048FB064632460B465046002109F0FE
:1041C00041FB04460D4620462946BDE8F087000025
:1041D000FCED00E0001000E040420F0010B50024AC
:1041E00000BF00BF00F052F9044600BF00BF10211D
:1041F000A14800F0D2FA00BF00BF204600F04AF903
:1042000000BF00BF10BD10B5FFF7E8FF10BD10B52F
:1042100000209A490860FFF7A6FF10BD10B5FFF710
:10422000F6FFFFF7F0FF10BD00BFFEE770B50546D3
:104230000C46002614B900BFFFF7F6FF15B90A2097
:10424000208070BD00BF00BF00F020F9064600BF0F
:1042500000BF10228849284600F056FF00BF00BF6B
:10426000304600F017F900BF00BF0020208000BFDB
:10427000E7E72DE9F04105460C46002714B900BFD9
:10428000FFF7D2FF1DB90A202080BDE8F081102180
:10429000284600F021FF0646102E15D200BF00BFB1
:1042A00000F0F4F8074600BF00BF1022294672480C
:1042B00000F02AFF00BF00BF384600F0EBF800BF57
:1042C00000BF0020208002E04FF47A70208000BF01
:1042D000DBE710B5FFF75DFF0446204610BD7047D1
:1042E00000B5014611B900BFFFF79EFF634A106891
:1042F00008B1002201E04FF4FA620A8000BD5F4974
:104300000860704770B50546284600F0CAF80446B4
:10431000183C204670BD70B50546284600F0C1F82F
:104320000446103C204670BD70B50546284600F096
:10433000B8F8044600BF204670BD30B502460B46B3
:104340000024D2F1FF359C4126D24FF6FF74D2F102
:10435000FF359C410FD26FF07F44D2F1FF359C4175
:1043600003D2190E464C605C44E0190C444C645C6A
:1043700004F108003EE0FF24D2F1FF359C4105D254
:10438000190A3F4C645C04F1100033E019463C4CC0
:10439000645C04F118002DE04FF6FF750024AD1A9F
:1043A0009C4115D26FF07F450024AD1A9C4107D285
:1043B000140E44EA0321324C645C04F1200019E03D
:1043C000140C44EA03412E4C645C04F1280011E013
:1043D0000024D2F1FF059C4107D2140A44EA03618C
:1043E000274C645C04F1300004E01146244C645C0A
:1043F00004F1380030BD70B504460CB9082070BD1A
:10440000204600F051F805462846F8E770B5044606
:104410000CB9102070BD204600F046F8054628462D
:10442000F8E770B504460CB9202070BD204600F0B6
:104430003BF805462846F8E72DE9F04304460D46CB
:10444000002184EA01006940084302D14020BDE810
:10445000F083E243E843521C40F1000102EA040603
:1044600001EA050730463946FFF767FF8046C8F185
:104470003F094846EBE700005085002088010020F6
:10448000B4F5000872B6704762B67047EFF310805B
:1044900072B6704780F31088704730BF704720BFF6
:1044A0007047B0FA80F0704790FAA0F0B0FA80F050
:1044B000704790FAA0F070470146412903DB5A2962
:1044C00001DC012200E00022012A08D0612903DB7F
:1044D0007A2901DC012200E00022012A01D1012217
:1044E00000E00022104670470146412903DB5A29AB
:1044F00001DC012200E00022012A08D0612903DB4F
:104500007A2901DC012200E00022012A01D10122E6
:1045100000E00022012A08D0302903DB392901DC20
:10452000012200E00022012A01D1012200E0002244
:10453000104670470146612903DB7A2901DC01221C
:1045400000E00022104670470146412903DB5A294A
:1045500001DC012200E000221046704701463029AC
:1045600003DB392901DC012200E0002210467047FC
:104570000146302903DB372901DC012200E000225B
:10458000104670470146302901DB392907DD4129F2
:1045900001DB462903DD612903DB662901DC0122F9
:1045A00000E00022104670470146202901D0092969
:1045B00001D1012200E00022104670470146202967
:1045C00009D00D2907D00A2905D00C2903D00929C3
:1045D00001D00B2901D1012200E0002210467047D2
:1045E0000146202903DB7E2901DC012200E00022B4
:1045F000104670470146212903DB7E2901DC012298
:1046000000E00022104670470146202903DB7E2986
:1046100001DC012200E00022012A35D1202909D045
:104620000D2907D00A2905D00C2903D0092901D06A
:104630000B2901D1012200E000222ABB412903DB22
:104640005A2901DC012200E00022012A08D0612958
:1046500003DB7A2901DC012200E00022012A01D1DA
:10466000012200E00022012A08D0302903DB392989
:1046700001DC012200E00022012A01D1012200E038
:1046800000220AB9012200E00022104670470146CC
:104690004AB2002A01DB1F2901DD7F2901D1012255
:1046A00000E00022104670470146412903DB5A29E9
:1046B00001DC012200E00022012A02D101F12002E6
:1046C00000E00A46D0B270470146612903DB7A292F
:1046D00001DC012200E00022012A02D1A1F1200226
:1046E00000E00A46D0B27047F0B504460B462046BB
:1046F000FFF7EAFF05461846FFF7E6FF0646B54214
:1047000001D1012000E0002007463846F0BD00003E
:10471000FC48FD4901600146416000218160C160A3
:10472000016141618161C16101620163C1624162F4
:10473000F6498163C1634FF48061016441640146BD
:10474000F34A116070472DE9F04105460B46944647
:104750000027002402E03F021F43641C042CFAD30C
:10476000604605F00306294646B1344603E001F8E9
:10477000013B401E641C08B1042CF8D30A4601E03A
:1047800080C2001F0428FBD2114602E001F8013B61
:10479000401E0028FAD1BDE8F08130B505460C4630
:1047A000224600212846FFF7CEFF30BD2DE9F04F0D
:1047B00085B007468846914646463D46AE4207D9F3
:1047C0004A464146384601F01DF905B0BDE8F08F74
:1047D0004C4607EB0900451E08EB0900461EA81BC6
:1047E00004900498042834D305F00300029006F0E6
:1047F00003010191DDE90110884201D1012000E0AF
:10480000002000900098012823D10298032810D09E
:10481000029840B2039008E016F8010905F8010972
:10482000641E0398401E40B2039014B10398002800
:10483000F2DAA5F1030AA6F1030B04E05BF8040920
:104840004AF80409241F042CF8D20AF103050BF1DD
:10485000030604E016F8010905F80109641E002C9E
:10486000F8D100BFB1E72DE9F84F804689461546DB
:1048700015B90120BDE8F88FB8F1000F01D1002073
:10488000F8E7B9F1000F01D10020F3E70124294630
:1048900008EB050209EB050302F0030C03F0030B20
:1048A000DC4501D1012000E00020009000980128A3
:1048B00029D1BCF1000F12D0E2460AE0521E5B1E65
:1048C000107893F800E0704500D00024491EAAF14A
:1048D000010A012C03D111B1BAF1000FEED1012C64
:1048E00011D116461F4608E0361F3F1F3068D7F823
:1048F00000E0704500D00024091F012C01D10429DB
:10490000F2D232463B4608E0521E5B1E107893F806
:1049100000E0704500D00024491E012C01D100297F
:10492000F2D12046A6E7F0B503460E461546D96BF0
:10493000B1FBF5F005FB101CBCF1000F02D0A5EB9C
:104940000C0200E000229419586CA04201D2002011
:10495000F0BD0F191144DF63586C001B5864084602
:10496000F6E72DE9F04106460F46B6FBF3FC03FBE4
:104970001C6109B15C1A00E00024B2FBF3FC03FBEC
:104980001C2109B15D1A00E0002502EB0508A7F122
:10499000010C08FB0C4C0CEB0200BDE8F0812DE98A
:1049A000FE4F8046894614461E46002000900CB9F2
:1049B00001AC00BF00202060524F00BF00BFFFF7D6
:1049C00065FD009000BF00BFF86B0290D7F844B0BF
:1049D0004B46424601210298FFF7C3FF05465D455D
:1049E0000FD900BF00BF0098FFF754FD00BF00BF04
:1049F000A5EB0B00206042F2E27030800020BDE8A1
:104A0000FE8F4A4641463846FFF78DFF8246BAF18F
:104A1000000F0CD100BF00BF0098FFF73BFD00BFA7
:104A200000BF256042F2E27030800020E7E700BF5F
:104A300000BF0098FFF72EFD00BF00BF42F21070CC
:104A400030805046DBE72DE9FC5F07460C46904678
:104A50000020009000BF00BFFFF718FD009000BFCE
:104A600000BFD7F80490D9F8380008B1484600E0F4
:104A700024488246DAF84450DAF83CB000BF00BF60
:104A80000098FFF707FD00BF00BF012C0AD9BBFB50
:104A9000F4F004FB10B60EB1A01B00E00020019062
:104AA00001982D1A42F21070A8F800002846BDE8BF
:104AB000FC9F70B504460D462A4621461148FFF773
:104AC000C2FF0646304670BD18B942F211720A8024
:104AD0007047104A0260002242608260C260026138
:104AE00042618261C2610262826242630263C262A7
:104AF00042628263C2630264426442F210720A80BC
:104B000000BFE5E76085002048454150A8850020AA
:104B10008C0100204E4F4E452DE9FF4F91B00446C9
:104B2000DDE9208900200090B8F1000F02D10DF1DD
:104B3000180800BF0020C8F8000049462046FFF7CB
:104B4000C3FFB9F8000042F21071884202D015B0DC
:104B5000BDE8F08FFE48006820B942F2E770A9F87E
:104B60000000F4E7DFF8ECA30020059000BF00BFD1
:104B7000FFF78CFC009000BF00BF129880BB554629
:104B8000AB462E46DAF83C000D9004231A461499E1
:104B90000D98FFF7E6FE049004990D9808440C90D8
:104BA000DDE91E2314990C98FFF7DBFE0390DDE985
:104BB000030108440590DAF844700598B8427DD99D
:104BC00000BF00BF0098FFF765FC00BF00BF05985D
:104BD000C01BC8F8000042F2E270A9F80000B6E776
:104BE000FFE712980B90DDE912010844401E0A907D
:104BF0000025AB46D64806683BE0B16B129881426F
:104C000005D1316C1398814201D1354633E0B06B48
:104C10000990316CB06B0844401E0890DDE9090131
:104C2000814200D227E009990B98884203D8DDE938
:104C3000091088420FD209990B98884203D308992A
:104C40000A98884207D908990B9888420FD8089982
:104C50000A9888420BD300BF00BF0098FFF71AFCE8
:104C600000BF00BF42F27F70A9F800006FE7B346B3
:104C7000F668002EC1D100BF45B925461298A06341
:104C80001298E0631398206413986064DAF83C008B
:104C90000D9004231A4614990D98FFF762FE0490B4
:104CA000DAF844700498B84211D900BF00BF0098E8
:104CB000FFF7F0FB00BF00BF049800E024E0C01B3A
:104CC000C8F8000042F2E270A9F800003FE7E86B84
:104CD0000C90DDE91E2314990C98FFF742FE039017
:104CE0006F6C0398B8420FD900BF00BF0098FFF760
:104CF000D1FB00BF00BF0398C01BC8F8000042F200
:104D0000D870A9F8000022E71498800002900422CD
:104D100050460299FFF707FE0F900F9830BBDAF864
:104D2000447000BF00BF0098FFF7B4FB00BF00BF96
:104D3000129858B90598B84204D90598C01BC8F80C
:104D400000000EE00598C8F800000AE00298B8429A
:104D500004D90298C01BC8F8000002E00298C8F805
:104D6000000042F2E270A9F80000F0E60020019095
:104D700034E02846DDE91E12FFF7D5FD0E900E98AF
:104D800020BBE86B0C906F6C00BF00BF0098FFF772
:104D900081FB00BF00BF01991498401A0790DDE91C
:104DA0001E2307990C98FFF7DCFD05900598B84283
:104DB00004D90598C01BC8F8000002E00598C8F89F
:104DC000000042F2D870A9F80000C0E6019ADDE9BF
:104DD0000E0141F822000198401C0190149901989D
:104DE0008842C6D3A5420DD1C4F808B0E660BBF135
:104DF000000F02D0CBF80C4001E0554804605EB1D2
:104E0000B46009E0686910902561109860616C6178
:104E1000109808B1109804614F48206065600C98A4
:104E2000A06103990C980844401EE0610F9820622D
:104E30000398A0621F9860631E9820631498E06234
:104E40001498606200BF00BF0098FFF723FB00BF0B
:104E500000BF42F21070A9F8000000BF77E62DE90C
:104E6000F04104460D46002700BF00BFFFF70EFBD0
:104E7000074600BF00BF666A00BF00BF3846FFF7A5
:104E800009FB00BF00BF42F2107028803046BDE829
:104E9000F0812DE9F041044688461546002700BF01
:104EA00000BFFFF7F3FA074600BF00BF606A60B9B2
:104EB00000BF00BF3846FFF7EDFA00BF00BF42F267
:104EC000DE7028800020BDE8F081E16A606A8842D7
:104ED0000BD900BF00BF3846FFF7DCFA00BF00BFA8
:104EE00042F2957028800020EDE7606A401E606203
:104EF000D4E9080150F8216000BF00BF3846FFF731
:104F0000C9FA00BF00BF42F2107028803046DAE7CD
:104F10002DE9F04704460F4615464FF0000900BF43
:104F200000BFFFF7B3FA814600BF00BFE06AC01BB5
:104F3000461EE06AB04213D800BF00BF4846FFF7E4
:104F4000A9FA00BF00BF42F295702880002005E05A
:104F50008C01002060850020504F4F4CBDE8F08749
:104F6000606AB0420BD900BF00BF4846FFF792FA13
:104F700000BF00BF42F2957028800020E7E7206A5A
:104F800050F8268000BF00BF4846FFF783FA00BFF5
:104F900000BF42F2107028804046D8E72DE9F04764
:104FA00004460E4617464FF0000A00BF00BFFFF749
:104FB0006DFA824600BF00BFE16A606A88420BD387
:104FC00000BF00BF5046FFF765FA00BF00BF42F2C6
:104FD000DD703880BDE8F0874FF00008656A08E0B2
:104FE000206A50F82590B14502D14FF0010803E046
:104FF0006D1CE06AA842F3D800BFB8F1010F06D1DA
:10500000D4E9080150F82100216A41F82500D4E9CB
:10501000080140F82160606A401C606200BF00BF68
:105020005046FFF737FA00BF00BF42F210703880D9
:1050300000BFCFE72DE9F84F04460F461646002083
:1050400000904FF0FF3B00BF00BFFFF71FFA00903A
:1050500000BF00BFE16A606A88420CD300BF00BF96
:105060000098FFF717FA00BF00BF42F2DD703080F2
:105070005846BDE8F88F4FF00009656A08E0206ADD
:1050800050F82580B84502D14FF0010903E06D1CAE
:10509000E06AA842F3D800BFB9F1010F0FD1E06A6E
:1050A000401EA0EB050A00BF00BF0098FFF7F2F911
:1050B00000BF00BF42F2107030805046D9E700BFF9
:1050C00000BF0098FFF7E6F900BF00BF42F288700A
:1050D00030805846CDE7000010B502460B46114619
:1050E000002001E0491C401C19B10C780CB1984219
:1050F000F8D310BD30B504464FF0FF312046FFF71E
:10510000EBFF0546284630BD70B504460D461646F1
:105110000CB9002070BD0DB90020FBE721462A46DE
:10512000002304E010780870491C521C5B1C21B15C
:105130001AB1107808B1B342F4D301B10AB9002012
:10514000E8E7B34201D2002008702046E2E770B5DC
:1051500004460D464FF0FF3229462046FFF7D4FFA4
:105160000646304670BD70B503460C4615460BB971
:10517000002070BD0CB90020FBE70DB91846F8E718
:10518000194600E0491C11B108780028FAD109B984
:105190000020EEE72246002604E010780870491C43
:1051A000521C761C21B11AB1107808B1AE42F4D36A
:1051B00001B10AB90020DCE7002008701846D8E7E2
:1051C00070B504460D464FF0FF3229462046FFF7E2
:1051D000CAFF0646304670BD2DE9F04305460B4632
:1051E0009446BCF1000F02D10020BDE8F08335B930
:1051F0000BB90020F9E7187842421046F5E713B9D9
:105200002A781046F1E729461C460F4626467F1CA1
:10521000761C4FF0000805E0491C641C7F1C761CBE
:1052200008F10108087894F80090484505D10878FD
:1052300018B117B10EB1E045EED3E04501D1002021
:10524000D3E7087894F80090484505D0087894F89A
:105250000090A0EB09020BE0087808B9002207E0F3
:105260002FB90EB9002203E03078424200E03A78CC
:105270001046BAE770B504460D464FF0FF32294696
:105280002046FFF7A9FF0646304670BD2DE9F74FCF
:1052900082B080460E46049818B9002005B0BDE8DB
:1052A000F08FB8F1000F09D10EB90020F6E7307881
:1052B000FFF7FAF907467C422046EFE73EB998F837
:1052C0000000FFF7F1F905462C462046E6E7C14607
:1052D000B246C846C3465646CDF804A0D8460BF1A0
:1052E000010B019E701C0190C84699F80000FFF761
:1052F000DBF9054656469AF80000FFF7D5F9074650
:105300000020009015E009F101090AF1010A0BF1F2
:10531000010B0198401C01900098401C009099F8E6
:105320000000FFF7C1F905469AF80000FFF7BCF945
:105330000746BD420BD199F8000040B1BBF1000F08
:1053400005D0019818B1049900988842DBD30499DC
:105350000098884201D10020A0E7BD4201D0EC1B9B
:1053600016E00DB9002413E0BBF1000F0AD101983B
:1053700008B900240CE001990878FFF795F9074671
:105380007C4205E09BF80000FFF78EF905462C46AD
:10539000204683E770B504460D464FF0FF3229469C
:1053A0002046FFF773FF0646304670BD30B5044611
:1053B0000B4615460CB9002030BD0BB90020FBE7A9
:1053C0002146002201E0491C521C31B1087820B16D
:1053D0000878A84201D09A42F5D309B90020EBE73A
:1053E0009A4201D30020E7E70878A84201D00020C4
:1053F000E2E70846E0E770B505460C4622464FF066
:10540000FF312846FFF7D2FF0646304670BD2DE932
:10541000F04305460E46174615B90020BDE8F08357
:105420000EB90020FAE72C46A6F1010949462046AC
:10543000FFF752FE804644440CB90020EEE700E03E
:10544000641EAC4202D02078B842F9D12078B8422C
:1054500001D00020E2E72046E0E770B505460C46A3
:1054600022464FF0FF312846FFF7D1FF064630466F
:1054700070BD70B504460D4616460CB9002070BDCF
:105480000BB90020FBE721461A4605E00878A84240
:1054900000D10E70491C521E19B1087808B1002ABB
:1054A000F4D12046EBE7F0B504460D4616464FF022
:1054B000FF33324629462046FFF7DBFF07463846D2
:1054C000F0BD2DE9FF4F06460F4615461EB90020D8
:1054D00004B0BDE8F08F0FB90020F9E70DB9002046
:1054E000F6E7681C00B101E04FF0FF300390294659
:1054F0003046FFF7F1FD804638460399FFF7ECFD93
:1055000004460CB93046E3E7444501D90020DFE703
:1055100006EB080BBBF1000F01D10020D8E707EB29
:10552000040BBBF1000F01D10020D1E7A8EB040070
:1055300002904FF000090020019000BF06EB090027
:105540000090224639460098FFF746FE8246BAF19F
:10555000000F01D1012000E00020019009F10109B4
:10556000019810B902988145E8D9BAF1000F01D02D
:105570000020ADE70098ABE770B504460D464FF04C
:10558000FF3229462046FFF79CFF0646304670BD95
:105590002DE9FF4F8DB00F4615461A9E1D9818B97C
:1055A000002011B0BDE8F08F002003900490012F7F
:1055B00001DA01200390022D01D3242D01D901200D
:1055C000039096B33046FFF70BF80290029801283B
:1055D00002D00120039028E0302E26D0A6F1300022
:1055E000C0B207901B98012804D0A6F14100C0B2B8
:1055F000069003E0A6F16100C0B206900A2D02D821
:105600000798A84209DB0A2D09D907980A2804D36C
:10561000A5F10A000699884201D9012000E0002086
:1056200005900598012800D103901D9C039800283F
:1056300046D1DDF834A0DDF834A0CDF830A001204B
:105640000B9007E00B98401CC0B20B900C98B0FB7D
:10565000F5F00C900C98A842F4D21098012800D1D3
:1056600000E0002009900B9909980844B84225DC15
:10567000002001900B98B84201DA0B9800E0384600
:105680000A903EB1B8460A98391A0998081AC0B269
:10569000089006E0DDE90910084400F0FF0800204A
:1056A00008900898002806DD302E01D1012000E086
:1056B0000020049004E00020049001E00120039009
:1056C000039800B1B84644441C9808B100202070EB
:1056D000641E4FF0000941E00398A8BBBAF1000F27
:1056E00002D1B9F1000F1CD1BAFBF5F005FB10A0F7
:1056F00000F0FF0BBBF10A0F04D20BF1300004F8ED
:1057000001090BE01B98012804D00BF1370004F8C5
:10571000010903E00BF1570004F80109BAFBF5FA9F
:105720001AE01098012810D1049808B9019828B1FE
:10573000049850B1A8F10100484506D12D2004F885
:1057400001090120019007E003E02EB104F801698E
:1057500002E03F2004F8010909F10109C145BBD36A
:10576000039808B100201CE71D981AE72DE9FF5F98
:1057700005460E4617461C46DDE90F9ADDF83880CF
:1057800000233A46314628468DE81007FFF700FF10
:105790008346584604B0BDE8F09F2DE9FF4F85B021
:1057A000044689461F46DDE913AB002C02DA654248
:1057B000012601E02546002612983346CDE902ABCA
:1057C000CDE9007049462846079AFFF7E1FE80467A
:1057D000404609B0BDE8F08F2DE9FF4F8BB006467B
:1057E00089461546B9F1000F02D10DF1240900BF19
:1057F000C9F80060189810B907A8189000BF0021D8
:10580000189801701EB900200FB0BDE8F08F012D6F
:1058100001D0242D01D90020F6E734462078FEF788
:10582000CDFE039004E0641C2078FEF7C7FE0390D1
:1058300003980128F7D020782B2802D02D280BD1EF
:1058400003E0641C4FF0000B09E00E98012800D122
:10585000641C4FF0010B02E04FF0000B00BF00BFD3
:105860000A9425B1082D1CD0102D36D11EE02078C9
:10587000302814D1641C2078582802D078280BD105
:1058800000BF102567783846FEF77CFE8246BAF1E5
:10589000010F00D1641C01E0082500BF00E00A25CB
:1058A0001CE02078302800D1641C17E020783028D4
:1058B00012D1641C2078582802D078280AD100BF61
:1058C00067783846FEF75EFE8246BAF1010F00D1D6
:1058D000641C00E000BF00BF00E000BF00BF4FF04D
:1058E000000800200290019040E027783846FEF73B
:1058F000FBFD05900598012836D13846FEF72EFEAF
:1059000006900698012804D1A7F13000C0B2089093
:105910000FE03846FEF70EFE04900498012804D1EB
:10592000A7F15700C0B2089003E0A7F13700C0B25A
:1059300008900898A84214DA029880B9304850F8C4
:105940002500404509D308FB05F8089880440898CD
:10595000804504D20120029001E001200290641CE5
:1059600004E00120019001E001200190019800284D
:10597000BBD00298012801D14FF0FF380A98844229
:1059800002D0C9F8004001E0C9F80060189880F81A
:1059900000B0404638E7F8B504460D4616460020EC
:1059A00003463246294600902046FFF715FF07467A
:1059B0003846F8BD2DE9FC4105460E46174601A8BC
:1059C00001233A46314600902846FFF705FF04467A
:1059D0009DF8040040B9B4F1004F02D36FF00040CD
:1059E00000E02046804607E0B4F1004F02D34FF0BC
:1059F000004000E0604280464046BDE8FC81000077
:105A0000B8F60008002800D17047002900D170477F
:105A1000002A00D170472DE9F81F00F0030301F0C0
:105A20000304A34211D1C3F1040303F00303012BC8
:105A30001DD3012A00D2F2E011F8014B00F8014B0E
:105A4000A3F10103A2F10102F1E700F0010301F06B
:105A50000104A34200D094E0012B44D311F8014B80
:105A600000F8014BA3F10103A2F10102F4E7B2F542
:105A7000B47F26D3B1E8F81FA0E8F81FB1E8F81FFB
:105A8000A0E8F81FB1E8F81FA0E8F81FB1E8F81F78
:105A9000A0E8F81FB1E8F81FA0E8F81FB1E8F81F68
:105AA000A0E8F81FB1E8F81FA0E8F81FB1E8F81F58
:105AB000A0E8F81FB1E8F81FA0E8F81FA2F5B4723B
:105AC000D5E7282A06D3B1E8F81FA0E8F81FA2F10D
:105AD0002802F6E7042A06D351F8043B40F8043BB9
