:020000040800F2
:1000000058CD00202D1E000813030008150300081A
:10001000190300081D030008210300080000000068
:1000200000000000000000000000000025030008A0
:1000300027030008000000009BF300083D42000871
:10004000471E0008471E0008471E0008471E0008FC
:10005000471E0008471E0008471E0008471E0008EC
:10006000471E0008471E0008471E0008471E0008DC
:10007000471E0008471E0008471E0008471E0008CC
:10008000471E0008471E0008471E0008471E0008BC
:10009000471E0008471E0008471E0008471E0008AC
:1000A000471E0008471E0008471E0008471E00089C
:1000B000471E0008550C0008471E0008471E000890
:1000C000471E0008471E0008471E0008471E00087C
:1000D000471E000861430008910E0008550D0008F6
:1000E000471E0008471E0008471E0008471E00085C
:1000F000471E0008471E0008471E0008471E00084C
:10010000471E0008471E0008471E0008471E00083B
:10011000471E0008471E0008471E0008471E00082B
:10012000471E0008471E0008471E0008471E00081B
:10013000471E0008471E0008471E0008471E00080B
:10014000471E0008471E0008471E0008471E0008FB
:10015000471E0008471E0008471E00083117000808
:10016000471E0008471E0008471E0008471E0008DB
:10017000471E0008471E0008471E0008471E0008CB
:10018000471E0008471E000800F002F800F0B2F811
:100190000AA090E8000C82448344AAF10107DA45E2
:1001A00001D100F0A7F8AFF2090EBAE80F0013F082
:1001B000010F18BFFB1A43F0010318476C08010038
:1001C0008C0801000A444FF0000C10F8013B13F0BA
:1001D000070408BF10F8014B1D1108BF10F8015BA0
:1001E000641E05D010F8016B641E01F8016BF9D193
:1001F00013F0080F1EBF10F8014BAD1C0C1B09D1EA
:100200006D1E58BF01F801CBFAD505E014F8016B5B
:1002100001F8016B6D1EF9D59142D6D370470000ED
:100220000023002400250026103A28BF78C1FBD8FF
:10023000520728BF30C148BF0B6070476E290DF0D0
:10024000418670290DF08387662910F09081652919
:1002500010F08D81672910F08A816129AFF3008049
:1002600003681B0A28BF41F0800169290DF0EE8563
:1002700064290DF0EB8575290DF0E8856F290DF0E7
:10028000118778290DF04F87E9290DF0AB86E42915
:100290000DF0A886F5290DF0A586EF290DF00E8743
:1002A000F8290DF04E870368DB0928BF41F0800173
:1002B00063290EF0298373290EF02E83E3290EF0B3
:1002C0003983F3290EF03E83002070471FB510F0EC
:1002D00044F90EF089FB0400002000210FF040FCDF
:1002E000401C6060002000210FF024FCE0601FBD76
:1002F00010B510BD0EF04AFB1146FFF7E7FF00F006
:10030000DCFA0EF023FC03B4FFF7F2FF03BC0EF09F
:1003100067FC704700BFFEE700BFFEE700BFFEE7D7
:1003200000BFFEE7704770470CB5002001900090B9
:100330007648006840F480307449086000BF734814
:10034000006800F4003000900198401C0190009873
:1003500018B90198B0F5A04FF1D16C48006800F4CD
:10036000003010B10120009001E0002000900098C2
:10037000012846D165484030006840F0805063490C
:10038000403108606248006840F4404060490860BD
:100390005E48083000685D4908310860084600681A
:1003A00040F4004008600846006840F4A05008602F
:1003B0005848091F0860081F006840F08070091F36
:1003C000086000BF5148006800F000700028F9D0B4
:1003D00040F20570504908604C480830006820F031
:1003E00003004A49083108600846006840F00200EE
:1003F000086000BF45480830006800F00C0008287D
:10040000F8D10CBD10B54548006840F47000434970
:1004100008603E48006840F001003C490860002048
:100420003A4908310860394800683D490840374971
:1004300008603C48091D0860081F006820F48020FF
:10044000091F0860002031490C310860FFF76CFF7C
:100450004FF0006031498039086010BD70B5002050
:100460000022022300240221284D08352D6805F0C2
:100470000C0020B1042806D0082834D107E02A4D0A
:100480002A4E356033E02A4D284E35602FE01F4D4F
:100490002D1D2D68C5F380541C4D2D1D2D6805F0B4
:1004A0003F0154B1224DB5FBF1F5184E361D3668AB
:1004B000C6F3881605FB06F209E01B4DB5FBF1F506
:1004C000124E361D3668C6F3881605FB06F20F4D30
:1004D0002D1D2D68C5F301456D1C6B00B2FBF3F5B6
:1004E000124E356003E0104D104E356000BF00BF66
:1004F000064D08352D68C5F303150E4E705D0B4D86
:100500002D68C540094E356070BD000000380240BE
:100510000070004008544007003C024088ED00E0B5
:10052000FFFFF6FE103000240024F400000000203D
:1005300000127A000400002070B504460D462A46D9
:100540002146FE4800F03DFD70BD10B50A2003F0C5
:10055000DAFE10BD02E00A2003F0D5FEFBE702E060
:100560000A2003F0D0FEFBE70DE00A2003F0CBFEEB
:10057000F3480088401EF349085CF3490978884233
:1005800001D10FF07FF8F0E74FF47A7003F0BBFE73
:100590004FF47A7003F0B7FE4FF47A7003F0B3FEB5
:1005A0004FF47A7003F0AFFE03E04FF47A7003F07B
:1005B000AAFEFAE70FB42DE970412DED068B81B04C
:1005C00080460C4600250FA80090E048009A0E993E
:1005D0000DF03EFB00200090DC480DF04BFB86B296
:1005E0003246DA49D54800F0ECFC04E00A2003F07A
:1005F0008AFE681C85B220460FF006FD41EC1A0BFE
:100600009FEDD30B53EC102B0FF0A6FB41EC180B16
:1006100028460FF0F9FC41EC190B53EC182B0FF0A6
:1006200007FDE3D34FF4C871CB480DF087FB3FB112
:10063000012001B0BDEC068BBDE870015DF814FB34
:100640000020F6E708B500244FF47A7003F05BFE53
:100650004FF47A7003F057FEC0A001F0D3F8C04801
:1006600000680090BF48C0A24FF47A710368C5A02B
:10067000FFF7A0FFC4A24FF47A71C2A0FFF79AFF60
:10068000C5A24FF47A71C8A0FFF794FF41F222107F
:10069000C649088043F2663048804AF6BB20C880CD
:1006A00001200EF061FF0BE0601C84B2052C03D129
:1006B000002400200EF058FF4FF47A7003F023FE60
:1006C000F2E70CE0642003F01EFE0020B849086049
:1006D000642003F018FE0120B649C1F8A002F1E73A
:1006E00030B58BB00446002500BF03F025FF0AA8F3
:1006F00009F08FFE0AAA0121084605F018FF00BF85
:1007000000BF00BF04F050F8054600BF00BFAA4874
:100710000078401CA849087000BF00BF284604F0BC
:1007200047F800BF00BF00BF0AA8032100220592BE
:10073000CDE90621089010464FF4807119229F4B95
:10074000CDE90132CDE9031004200023AFF28D0280
:100750009BA100909D480AF033FA0AA803210022C9
:100760000592CDE90621089010464FF480711922B8
:10077000974BCDE90132CDE9031005200023AFF2FC
:100780003B1294A1009096480AF01AFA0AA8032195
:1007900000220592CDE90621089010464FF48071A1
:1007A0001922904BCDE90132CDE903100620002338
:1007B000AFF22B228CA100908E480AF001FA0AA811
:1007C000032100220592CDE90621089010464FF43E
:1007D00080616622884BCDE90132CDE90310072004
:1007E0000023AFF27B2285A1009087480AF0E8F948
:1007F0000AA8032100220592CDE90621089010469F
:100800004FF480711922814BCDE90132CDE90310FB
:1008100008200023AFF2B9227DA100907F480AF0A2
:10082000CFF90AA8032100220592CDE906210890FC
:1008300010464FF480711922794BCDE90132CDE990
:10084000031009200023AFF2F32276A1009078482C
:100850000AF0B6F900BF00BF00BF03F0A5FF0546D0
:1008600000BF00BF54480078401E53490870084636
:100870000078A0B96F480088002809DD00BF00BFDC
:10088000284603F095FF00BF00BF06F039FA0DE0DF
:1008900000BF00BF284603F08BFF00BF06E000BF8B
:1008A00000BF284603F084FF00BF00BF00BF0AA9B5
:1008B00000200AF0D9FA0BB030BD10B58AB0002480
:1008C000A82003F0C7FC4FF4A06001F0CFFA4FF46A
:1008D000165003F05FFD00F058F900F063F900F0E6
:1008E0009BF94FF4165000F0F3FA4FF4165000F055
:1008F0004BFA4FF4E13000F030FF42F2CF016320B9
:1009000000F0F0F900F0A8FF01F092F801200EF0DD
:100910001FFEAFF2DB300EF02BFFAFF2D1300EF046
:100920001DFE09A805F0DAFB00BF00BF00BF03F001
:100930003BFF044600BF00BF1F487DE0001401409C
:1009400028010020F86C002035010020B836002076
:100950000000000000002440483800202000000073
:10096000200000201C00002041542B4349505354C8
:100970004152543D22554450222C222573222C25CD
:10098000730D0A004F4B000041542B4349504D4F0B
:1009900044453D310D0A000041542B434950534515
:1009A0004E440D0A000000003E000000F86B0020DD
:1009B000A082404200804042C0000020C8060020C3
:1009C0005461736B31207461736B00000406002066
:1009D0008C0B00207461736B32207461736B0000A8
:1009E000C80A0020501000205461736B33207461DA
:1009F000736B00008C0F0020141500205461736B82
:100A000034207461736B000050140020D82500203E
:100A10005461736B35207461736B000014250020E2
:100A20009C2A00205461736B36207461736B000044
:100A3000D8290020840000200078401C2A49087032
:100A400000BF00BF204603F0B3FE00BF00BF00BFE1
:100A500009A8032100220592CDE90621089010463D
:100A60004FF480711922214BCDE90132CDE90310F9
:100A700003200023AFF297321DA100901F480AF017
:100A80009FF800BF00BF00BF03F08EFE044600BF0A
:100A900000BF15480078401E1349087008460078CA
:100AA000A0B917480088002809DD00BF00BF204614
:100AB00003F07EFE00BF00BF06F022F90DE000BF8C
:100AC00000BF204603F074FE00BF06E000BF00BF79
:100AD000204603F06DFE00BF00BF00BF09A805F06F
:100AE000C6FD00200AB010BDC00000200402002096
:100AF0007374617274207461736B00004001002094
:100B0000840000201CB50121102001F043FD4FF6A8
:100B1000FF70009001208DF8040000208DF8060081
:100B20008DF8070003208DF8050069461A4801F08A
:100B300093FA4FF6FF71184801F00AFB1CBD1CB573
:100B40000121602001F026FD4FF6FF70009000208B
:100B50008DF8040003208DF8050001208DF80700B2
:100B600069460E4801F078FA40F2FF30009000200C
:100B70008DF8040003208DF8050001208DF8070092
:100B80006946074801F068FA1CBD10B5FFF7BAFFC7
:100B9000FFF7D5FF10BD0000001002400014024016
:100BA000001802401CB50121022001F0F3FC4FF4B3
:100BB0004070009001208DF8040000208DF80600A0
:100BC0008DF8070003208DF805006946104801F0F4
:100BD00043FA4FF440710E4801F0BAFA0121402067
:100BE00001F0D8FC6020009001208DF80400002066
:100BF0008DF806008DF8070003208DF80500694682
:100C0000044801F029FA6021024801F0A1FA1CBD54
:100C100000040240001802401CB50121084601F002
:100C2000B9FC2020009001208DF8040000208DF8F0
:100C3000060003208DF8050002208DF807006946A4
:100C4000034801F009FA2021014801F083FA1CBD94
:100C50000000024010B50121384802F07EFD002856
:100C60003FD00121354802F089FD3548007838B180
:100C70003448007820B133480078401E314908706C
:100C80003048007868BB00202D4908702E48007855
:100C9000012802D02C480078B8B92C4800780828E0
:100CA00013DB002240F22551294801F06CFF00F0CF
:100CB000B3FC25480078012801D100F009FA01228F
:100CC00040F22551224801F05EFF02201D490870C4
:100CD00000201E490870012240F225511C4801F0F5
:100CE00052FF10BD7FB505460C460121022001F0E0
:100CF0009AFC0195ADF800400020ADF80800ADF871
:100D0000020069460D4802F070F8012211460B48B6
:100D100002F00CFD0121094802F0F0F81D208DF8C9
:100D20000C0003208DF80D0001208DF80E008DF8C9
:100D30000F0003A801F09FF87FBD000000040040F1
:100D40002D0000202C00002050340020290000201D
:100D50000044004010B5494801F08EFEC1B2484839
:100D600002780078401C464B18704648815440F287
:100D70002771424801F042FF28B1002240F227715A
:100D80003E4801F000FF10BD10B588B004460121B7
:100D9000082001F0FFFB0121880401F044FC072238
:100DA0000821394801F0E3F907220921364801F00A
:100DB000DEF94FF44070069002208DF81C008DF88B
:100DC0001D0000208DF81E0001208DF81F0006A9CF
:100DD0002D4801F041F902940020ADF80C00ADF867
:100DE0000E00ADF81000ADF814000C20ADF81200A4
:100DF00002A9224801F089FD0121204801F00DFEE1
:100E000040211E4801F0F1FE012240F225511B480D
:100E100001F0B9FE27208DF8040000208DF80500B0
:100E20008DF8060001208DF8070001A801F023F8D5
:100E300008B010BD0FB438B505A800901348009A4B
:100E400004990CF005FF0020009010480CF012FFF0
:100E500085B200240DE000BF4021084801F0B8FE33
:100E60000028F9D00948015D044801F001FE601C2A
:100E700084B2AC42EFDB38BC5DF814FB00480040A4
:100E80002500002030310020000C0240A02F00205F
:100E900010B502205649087001205649087056487E
:100EA00001F0EAFDC1B2554802780078401C534B6E
:100EB00018705348815440F227714F4801F09EFE4C
:100EC00028B1002240F227714B4801F05CFE10BDB2
:100ED00010B588B004460121084601F05BFB0121F2
:100EE000480401F0A0FB07220221464801F03FF927
:100EF00007220321434801F03AF90C200690022012
:100F00008DF81C008DF81D0000208DF81E000120BA
:100F10008DF81F0006A93B4801F09EF802940020BE
:100F2000ADF80C00ADF80E00ADF81000ADF81400EF
:100F30000C20ADF8120002A92F4801F0E6FC0121B7
:100F40002D4801F06AFD40212B4801F04EFE0122A0
:100F500040F22551284801F016FE26208DF80400A5
:100F600003208DF805008DF8060001208DF807009C
:100F700001A800F080FF08B010BD0FB438B505A877
:100F800000902148009A04990CF062FE0020009025
:100F90001D480CF06FFE85B200240DE000BF40211B
:100FA000154801F015FE0028F9D01748015D1248D8
:100FB00001F05EFD601C84B2AC42EFDB38BC5DF832
:100FC00014FB70B506460C4615460BE014F8011BE1
:100FD000304601F04DFD00BF4021304601F0F8FDE4
:100FE0000028F9D02800A5F101018DB2EED170BD25
:100FF0002C0000202D00002000440040290000208B
:101000005034002000000240C032002030B50246BB
:101010000B464FF6FF70002112E0555C684000243B
:101020000AE000F0010525B140104AF201056840D0
:1010300000E04010651CACB2082CF2DB4D1CA9B2DC
:101040009942EADB30BD2DE9F04104460E4601200D
:10105000FE490870092E29D2DFE806F0280C131A81
:1010600021282828050004F18000F849487008204C
:1010700088701BE004F18000F449487001208870FA
:1010800014E004F18000F1494870022088700DE0FE
:1010900004F18000ED4948700320887006E004F1F7
:1010A0008000EA4908700420487000BF00BF032197
:1010B000E648FFF7ABFF05462F0A05F0FF08E348B7
:1010C00080F8038007710520E1490870BDE8F081D0
:1010D00010B5DF480278DD49DE48FFF772FF10BD2A
:1010E0002DE9F84FDC4890F8029090F803A090F8B2
:1010F00004B0407900900AEB09201FFA80F80098AC
:1011000000EB0B2084B208EB0400822804DB0221F0
:101110000120FFF798FF52E00120CC490870487089
:10112000E11704EB5171C910A4EBC10141B920468C
:10113000E11704EB5171C1F3C701C44A917007E094
:101140002046E11704EB5171C910491CBF4A917048
:1011500000251AE00021E81CBC4A1154002610E0CA
:1011600008EBC5003044BD49085C00F00100B04008
:10117000E91CB64A515C0844C1B2E81C1154701C09
:1011800086B2082EECDB681C85B2B0488078A84295
:10119000E0DCAE488078C11CAC48FFF737FF07465B
:1011A000AA488078C01CA94A1754390A104680788A
:1011B000001D115410468078401DA5490870BDE8F7
:1011C000F88F2DE9FC4F4FF6FF70009000240AE0E5
:1011D000A348005D28B10120A0400099081A80B200
:1011E0000090601C84B2142CF2DB9B4890F80290B3
:1011F00090F803A090F804B0407901900AEB092020
:1012000086B2019800EB0B2085B27019142801DA20
:101210000B2E04DD02210120FFF715FF62E0002400
:1012200008E000982041012121EA00008C4908557E
:10123000601C84B2142CF4DB012084490870022065
:101240004870E91705EB5171C910A5EBC10141B90F
:101250002846E91705EB5171C1F3C7017B4A91702C
:1012600007E02846E91705EB5171C910491C774A78
:10127000917000241AE00021E01C744A11540027E8
:1012800010E006EBC40038447549085C00F001002A
:10129000B840E11C6D4A515C0844C1B2E01C1154D5
:1012A000781C87B2082FECDB601C84B2674880781A
:1012B000A042E0DC65488078C11C6448FFF7A6FEC8
:1012C000804662488078C01C604A02F800804FEA7D
:1012D000182110468078001D115410468078401D5A
:1012E0005B490870BDE8FC8F2DE9F04F5A4890F833
:1012F000028090F8039090F804A090F805B009EBF4
:10130000082087B20BEB0A2084B238191E2804DDAE
:1013100002210320FFF797FE36E001204B490870B9
:10132000032048706006000E8870002513E07819CD
:101330004C4931F81000000A032101EB4501434AF2
:1013400050547819474911F81000042101EB450168
:101350005054681C85B2A542E9DB032000EB440031
:1013600081B23A48FFF752FE0646032101EB4401E1
:10137000364A5654300A042101EB440150540520EA
:1013800000EB440032490870BDE8F08F2DE9F84FBA
:10139000314890F8029090F803A090F804B040799A
:1013A00000900AEB092087B2009800EB0B201FFA8F
:1013B00080F807EB0800142801DA012F04DD022170
:1013C0000120FFF740FE5DE002240AE0042404E06F
:1013D000002023490855601C84B2142CF8DB601CE3
:1013E00084B2062CF2DB01201849087004204870F2
:1013F0004FEA4860000E887000241AE00021E01CCB
:10140000124A1154002510E007EBC4002844144987
:10141000085C00F00100A840E11C0C4A515C084443
:10142000C1B2E01C1154681C85B2082DECDB601CB5
:1014300084B206488078A042E0DC04488078C11C71
:101440000248FFF7E3FD064600480DE0C0320020E9
:10145000280000200044004050340020F4350020D3
:10146000E0350020763600208078C01CAA4A165449
:10147000310A10468078001D115410468078401DB6
:10148000A6490870BDE8F88F2DE9F043A44890F80C
:10149000028090F803900679477909EB082085B21D
:1014A000822D04DB02210120FFF7CDFD21E0FF2E7C
:1014B00003D117B901209B4948551EB917B900201F
:1014C00098494855012094490870052048700846FD
:1014D00080F8028080F80390067147710621FFF7BB
:1014E00095FD04468C498C71200AC87108208B49EF
:1014F0000870BDE8F0832DE9F0478948877890F8B7
:10150000038090F8049090F805A008EB072084B2BF
:101510000AEB092086B21E2C04DD02210620FFF70B
:1015200092FD28E0B6F5803F04DB03210620FFF79B
:101530008AFD20E07C4820F814600120764908707C
:10154000062048700846877080F80380764830F897
:101550001400000A0871744810F81400487106213C
:101560006D48FFF753FD05466B498D71280AC87118
:1015700008206A490870BDE8F0872DE9F04F6848F7
:1015800090F8028090F8039090F804A090F805B0CD
:1015900009EB082087B26248857905EBD57107EB26
:1015A00061011E2904DD02211020FFF74CFD31E00E
:1015B000002411E0072000EB44005949095C082091
:1015C00000EB4400564A105C61F31F203919564A5B
:1015D00022F81100601C84B205EBD571B4EB610FE9
:1015E000E8DB01204C49087010204870084680F85C
:1015F000028080F8039080F804A080F805B00621EE
:10160000FFF704FD064644498E71300AC871082070
:1016100042490870BDE8F08F70B544480078801EDC
:1016200081B23F48FFF7F2FC0446E5B2260A3F4884
:101630000078801E3A49085CA84234D13B480078C3
:10164000401E085CB0422ED108464078042817D0CE
:1016500006DC01280BD002280CD003281CD10CE09A
:10166000052810D0062811D0102815D111E0FFF759
:1016700037FD17E0FFF7A5FD14E0FFF735FE11E099
:10168000FFF784FE0EE0FFF7FFFE0BE0FFF733FFEE
:1016900008E0FFF772FF05E0214948780421FFF7D1
:1016A000D2FC00BF36E01E48407804281DD006DC7E
:1016B00001280BD002280ED003282AD110E00528DB
:1016C00018D006281BD0102823D11DE008210120A6
:1016D000FFF7B9FC1DE008210220FFF7B4FC18E079
:1016E00008210320FFF7AFFC13E008210420FFF7D7
:1016F000AAFC0EE008210520FFF7A5FC09E008215F
:101700000620FFF7A0FC04E008211020FFF79BFC57
:1017100000BF00BF70BD0000C032002028000020C4
:1017200050340020F43500207636002029000020B7
:1017300010B540F22551454801F060FA60B14348C8
:1017400001F09AF9C4B220460DF080FF40F2255115
:101750003E4801F04AFA00BF10BD10B588B00446FB
:101760000121042000F016FF0121202000F06CFF71
:1017700008220621364800F0FAFC082207213448E6
:1017800000F0F5FCC020069002208DF81C008DF8BA
:101790001D0000208DF81E0001208DF81F0006A9F5
:1017A0002B4800F059FC02940020ADF80C00ADF875
:1017B0000E00ADF81000ADF814000C20ADF81200CA
:1017C00002A9224801F0A1F80121204801F025F9E1
:1017D000012240F225511D4801F0D5F947208DF82E
:1017E000040000208DF805008DF8060001208DF81A
:1017F000070001A800F03FFB4021144801F0F5F973
:1018000008B010BD0FB438B505A800901148009A73
:1018100004990CF01DFA002000900E480CF02AFAF2
:1018200085B200240DE000BF4021084801F0D0F946
:101830000028F9D00748015D044801F019F9601C3F
:1018400084B2AC42EFDB38BC5DF814FB00140140FD
:1018500000080240B836002000B58DB001210420F8
:1018600000F098FE0121080200F0EEFE02200B902D
:1018700003208DF8300000208DF833000BA9534869
:1018800000F0EAFB0121080200F033FF00214FF4D1
:10189000807000F02EFF002007900A9009904FF40E
:1018A0008030089007A802F07FF8002001908DF8A2
:1018B00008008DF809000390059001208DF81800AC
:1018C00001A9434802F041F80121414802F083F8A0
:1018D0000DB000BD10B504460723012221463C4847
:1018E00002F0B9F83A4802F012F900BF0221384874
:1018F00002F02EFA0028F9D0354802F044F910BD64
:101900002DE9F04107460C460025002608E0384640
:10191000FFF7E0FF0544052002F0F5FC701CC6B29D
:10192000A642F4DBB5FBF4F080B2BDE8F08170B5FF
:101930002DED0E8B00259FED270AB0EE408A00BFEB
:1019400037E014210B20FFF7DBFF044600EE104ABE
:10195000B8EE400A10EE100A0EF08EFD41EC1E0BA0
:101960009FED1D0B53EC102B0EF09EFB41EC1D0B5D
:101970009FED1B0B53EC102B0EF096FB41EC1C0B58
:101980009FED190B53EC102B0EF08CFC41EC1A0B55
:1019900018EE100A0EF070FD41EC1B0B53EC1A2BE5
:1019A0000EF026F941EC190B0EF0F0F808EE100AD3
:1019B0006D1C0A2DC5DBB2EE040AC8EE000AB0EEBB
:1019C000608AB0EE480ABDEC0E8B70BD0008024084
:1019D00000200140000000006666666666664A3FB9
:1019E000560E2DB29D2F37401D5A643BDF7F40407D
:1019F00010B500240020C1490860902000F088F94B
:101A0000002000F085F9002000F082F9002000F0AD
:101A10007FF9FF2000F07CF944EA0024FF2000F069
:101A200077F904430120B649C1F8B002204610BD41
:101A30001CB50121022000F0F6FD4FF4805000900B
:101A400001208DF8040000208DF8060002208DF89A
:101A500005006946AB4800F0FFFA4FF48051A948F1
:101A600000F076FB0120A549086000F06AF900202B
:101A700000F0C5F9FFF7BCFFA34908801CBD10B5F5
:101A8000002400209D490860052000F041F9FF2056
:101A900000F03EF9044601209949C1F8B002204601
:101AA00010BD10B50446002094490860012000F0E4
:101AB0002FF9204600F02CF901209149C1F8B0021D
:101AC00010BD10B500208D490860062000F020F9F7
:101AD00001208B49C1F8B00210BD10B50020874924
:101AE0000860042000F014F901208549C1F8B00213
:101AF00010BD2DE9F04106460C46174600207F49EF
:101B00000860032000F004F9C4F3074000F000F976
:101B1000C4F3072000F0FCF8E0B200F0F9F800256B
:101B200005E0FF2000F0F4F87055681C85B2BD4256
:101B3000F7DB012071490860BDE8F08110B500BFF6
:101B4000FFF79DFF00F001000028F9D110BD2DE93D
:101B5000F04106460C461746FFF7B3FF00206749E1
:101B60000860022000F0D4F8C4F3074000F0D0F879
:101B7000C4F3072000F0CCF8E0B200F0C9F800256B
:101B800004E0705D00F0C4F8681C85B2BD42F8DB6B
:101B900001205A490860FFF7D1FFBDE8F0812DE927
:101BA000F04107460E461446F0B2C0F58075AC42CF
:101BB00000DC254612E02A4631463846FFF7C7FFCB
:101BC000AC4200D10BE02F442E44601B84B2B4F52C
:101BD000807F02DD4FF4807500E02546EBE700BF13
:101BE000BDE8F08110B504462403FFF76AFFFFF754
:101BF000A5FF002041490860202000F089F8C4F3C7
:101C0000074000F085F8C4F3072000F081F8E0B247
:101C100000F07EF801203A49C1F8B002FFF78EFFCC
:101C200010BD2DE9F05F81460F461646DFF8DCB0A7
:101C30004FEA1738C7F30B0ACAF58054A64200DCF6
:101C4000344644E04FEA08314FF480525846FFF7DB
:101C500050FF002508E00AEB05001BF80000FF28F4
:101C600000D003E0681C85B2A542F4DB00BFA542AA
:101C700016DA4046FFF7B6FF002507E019F8050021
:101C800005EB0A010BF80100681C85B2A542F5DBE3
:101C90004FEA08314FF480525846FFF780FF04E0C6
:101CA000224639464846FFF77AFFA64200D10FE0A8
:101CB00008F101084FF0000AA1442744301B86B206
:101CC000B6F5805F02DD4FF4805400E03446B9E79A
:101CD00000BFBDE8F09F10B5FFF7F3FEFFF72EFF42
:101CE000002006490860C72000F012F801200449CE
:101CF000C1F8B002FFF722FF10BD0000B0824042E1
:101D000000804042000402402E000020D83900200C
:101D100010B5044600BF0221424802F04DFA0028E7
:101D2000F9D021463F4802F0FEF900BF01213D48AD
:101D300002F042FA0028F9D03A4802F0F1F9C0B2B4
:101D400010BD00B587B00121022000F023FC012165
:101D5000880300F068FC4FF46040059002208DF885
:101D6000180000208DF81A0003208DF819000120BA
:101D70008DF81B0005A92C4800F06EF905220D21F5
:101D8000294800F0F4F905220E21274800F0EFF968
:101D900005220F21244800F0EAF90121880300F010
:101DA00097FC00214FF4804000F092FC0020ADF839
:101DB00000004FF48270ADF802000020ADF804007E
:101DC0000220ADF806000120ADF808004002ADF891
:101DD0000A003820ADF80C000020ADF80E000720F6
:101DE000ADF8100069460F4802F022F801210D48B5
:101DF00002F018F9FF20FFF78BFF07B000BD10B508
:101E00000446084800884FF6C77108400549088015
:101E100008460088204308800121024802F002F9A8
:101E200010BD00000038004000040240094880470F
:101E300009480047FEE7FEE7FEE7FEE7FEE7FEE7AC
:101E4000FEE7FEE7FEE7FEE704480549054A064BC4
:101E500070470000050400088901000858B50020FB
:101E600058CD002058BD002058BD00203249014304
:101E7000324A1160704770B5002100230F22C478E8
:101E80001CB32E4C246804F4E064C4F5E064C4F38D
:101E90000721C1F10404E3B20A4144789C40E1B255
:101EA0008478144021430C07210E254C0578615598
:101EB000047804F01F050124AC4005786D11AD00D5
:101EC00005F1E025C5F8004109E0047804F01F059C
:101ED0000124AC401B4D0678761145F8264070BDB4
:101EE000194A0A400243154B1B1F1A60704739B14B
:101EF000124A121D12680243104B1B1D1A6006E0A5
:101F00000E4A121D126882430C4B1B1D1A6070474B
:101F1000042808D14FF0E021096941F004014FF095
:101F2000E022116107E04FF0E021096921F004018E
:101F30004FF0E022116170470000FA050CED00E05F
:101F400000E400E080E100E080FFFF1F10B50446E0
:101F50009848844208D10121084600F086FB002100
:101F6000012000F082FB76E09348844208D10121F1
:101F7000022000F07AFB0021022000F076FB6AE0EC
:101F80008E48844208D10121042000F06EFB00211C
:101F9000042000F06AFB5EE08948844208D10121F8
:101FA000082000F062FB0021082000F05EFB52E0F8
:101FB0008448844208D10121102000F056FB002102
:101FC000102000F052FB46E07F48844208D10121F6
:101FD000202000F04AFB0021202000F046FB3AE0E0
:101FE0007A48844208D10121402000F03EFB0021C4
:101FF000402000F03AFB2EE07548844208D10121D0
:10200000802000F032FB0021802000F02EFB22E037
:102010007048844208D10121801500F026FB002180
:10202000A01500F022FB16E06B48844208D1012184
:10203000401500F01AFB0021601500F016FB0AE0C5
:102040006648844207D10121001500F00EFB0021F3
:10205000201500F00AFB10BDF0B50A460021002350
:10206000002400BF3DE0012505FA01F3156805EAEB
:1020700003049C4234D105684F000326BE40B5439B
:10208000056015794E00B540066835430560157941
:10209000012D02D01579022D16D185684F00032637
:1020A000BE40B543856055794E00B54086683543DE
:1020B0008560456801268E40B54345604568967940
:1020C0008E40B6B235434560C5684F000326BE401A
:1020D000B543C560D5794E00B540C6683543C56087
:1020E000491C1029BFD3F0BD4FF6FF7101600021DC
:1020F000017141718171C171704708B54FF480322F
:102100000092009A0A430092009AC261C161009A4B
:10211000C261C2690092C269009208BD02460020F5
:1021200013690B400BB1012000E00020704701460D
:10213000086980B270470246002053690B400BB11A
:10214000012000E0002070470146486980B27047D6
:1021500001837047418370470AB1018300E04183E6
:1021600070474161704742694A4042617047F0B52B
:10217000002300244D07ED0E02FA05F3CE1000F106
:10218000200555F826504E07F70E0F26BE40B543E2
:10219000CF1000F1200646F82750CE1000F12005A0
:1021A00055F8265045EA0304CE1000F1200545F805
:1021B0002640F0BD0000024000040240000802403A
:1021C000000C0240001002400014024000180240BF
:1021D000001C02400020024000240240002802406F
:1021E000F948006840F00100F74908600020F6490E
:1021F00008310860F4480068F4490840F249086072
:10220000F348091D0860F348EF4984310860F0483D
:102210001038091D0860EC48006820F48020EA4965
:1022200008600020E8490C310860E7498C310860FB
:1022300070470021E44A921C1170114608707047E3
:1022400010B501460022002300204A11012A02D1C4
:10225000DD4C236808E0022A03D1DB4C703423688C
:1022600002E0D94C7434236801F01F020124944029
:102270001C400CB1012000E0002010BD38B500204A
:1022800000900024002500BF3120FFF7D9FF05464C
:102290000098401C00900098B0F5A04F01D0002D90
:1022A000F2D03120FFF7CCFF08B1012400E0002478
:1022B000204638BD01460020C34A106820F0F800CF
:1022C00040EAC10010607047C349086070470021B0
:1022D000BD4A703211701170012802D004280AD151
:1022E00004E00121B84A7032117005E00521B64AB8
:1022F0007032117000E000BF00BF7047B74908603E
:10230000704770B5049C41EA82150126C6EB53065E
:1023100045EA0645054345EA0465AB4E361D356082
:1023200070BDAD4908667047820142EA0172A64B52
:1023300084331A607047A8498866704710B58301D6
:1023400043EA016343EA02739F4C8834236010BD63
:10235000A14908677047A049C86470470246002039
:10236000994B0833186820F0EC6042EA01031843E7
:10237000954B08331860704702460020924B083393
:10238000186820F0784042EA010318438E4B083366
:1023900018607047014600208B4A0832106820F010
:1023A000030008431060704787480830006800F059
:1023B0000C00704701460020834A0832106820F064
:1023C000F000084310607047014600207E4A083242
:1023D000106820F4E0500843106070470146002068
:1023E000794A0832106820F4604040EAC100106069
:1023F0007047F0B5002100220024022500260223A8
:10240000714F08373F6807F00C0121B1042905D04E
:10241000082937D105E0724F076036E0714F076039
:1024200033E0694F3F1D3F68C7F38056664F3F1D3D
:102430003F6807F03F036EB16A4FB7FBF3F7DFF871
:1024400088C10CF1040CDCF800C0CCF3881C07FB3D
:102450000CF40CE0624FB7FBF3F7DFF86CC10CF142
:10246000040CDCF800C0CCF3881C07FB0CF4564FBE
:102470003F1D3F68C7F301477F1C7D00B4FBF5F7A4
:10248000076002E0564F076000BF00BF4E4F08379D
:102490003F6807F0F0010909534F7A5C0768D7409D
:1024A0004760494F08373F6807F4E051890A4E4FAB
:1024B0007A5C4768D7408760434F08373F6807F426
:1024C0006041490B484F7A5C4768D740C760F0BD10
:1024D000002100F44072B2F5407F0AD13A4A083236
:1024E000116821F4F811414A02401143364A08327A
:1024F0001160354A70321268C0F30B031A43324B35
:1025000070331A6070473549443908607047334961
:10251000403908607047364908607047014600201E
:10252000294A8C32106820F01F004A1E1043264AA8
:102530008C321060704701460020234A8C321068AC
:1025400020F4F8504A1E40EA02201F4A8C321060E4
:102550007047014600201C4A8C32106820F440105D
:1025600008431060704701460020174A8C321068FB
:1025700020F4400008431060704701460020124AD2
:102580008C32106820F440300843106070471949BD
:102590000860704739B10C4A3032126802430A4B66
:1025A00030331A6006E0084A303212688243064B24
:1025B00030331A607047F9B1034A3432126802436B
:1025C000014B34331A601CE000380240FFFFF6EA8A
:1025D000103000240030002000004742800E4742A7
:1025E0000024F40000127A0030000020FFFCFF0FEE
:1025F0005C014742E01147428F4A126882438E4B8A
:102600001A60704739B18C4A121D126802438A4B16
:102610001B1D1A6006E0884A121D12688243864B11
:102620001B1D1A60704739B1834A0C32126802438D
:10263000814B0C331A6006E07F4A0C3212688243E9
:102640007D4B0C331A60704739B17B4A10321268E7
:102650000243794B10331A6006E0774A1032126851
:102660008243754B10331A60704739B1724A243A6D
:1026700012680243704B243B1A6006E06E4A243A0B
:10268000126882436C4B243B1A60704739B16A4A26
:10269000203A12680243684B203B1A6006E0664A03
:1026A000203A12688243644B203B1A60704739B16C
:1026B000614A1C3A126802435F4B1C3B1A6006E0F9
:1026C0005D4A1C3A126882435B4B1C3B1A607047A0
:1026D00039B1594A143A12680243574B143B1A60F5
:1026E00006E0554A143A12688243534B143B1A6071
:1026F000704739B1504A103A126802434E4B103BB2
:102700001A6006E04C4A103A126882434A4B103B6A
:102710001A60704739B1484A1C3212680243464B6E
:102720001C331A6006E0444A1C3212688243424B52
:102730001C331A60704739B13F4A20321268024395
:102740003D4B20331A6006E03B4A20321268824338
:10275000394B20331A60704739B1374A2432126836
:102760000243354B24331A6006E0334A24321268A0
:102770008243314B24331A60704739B12E4A2C32D0
:10278000126802432C4B2C331A6006E02A4A2C3282
:1027900012688243284B2C331A60704739B1264A9D
:1027A000303212680243244B30331A6006E0224A6A
:1027B000303212688243204B30331A607047012850
:1027C00008D11D493C31096841F008011A4A3C32E0
:1027D000116007E018493C31096821F00801164AE8
:1027E0003C321160704739B1134A273A12780243DC
:1027F000114B273B1A7006E00F4A273A12788243A2
:102800000D4B273B1A7070470B484030006840F072
:102810008070094940310860704701460020064A2F
:10282000283A12680A400AB1012000E000207047EF
:1028300001492639087070473438024010B5044603
:10284000FA48844208D101211020FFF752FF0021ED
:102850001020FFF74EFF57E0F548844209D10121CF
:102860004804FFF735FF00214FF40030FFF730FF39
:102870004AE0F048844209D101218804FFF728FF8B
:1028800000214FF48020FFF723FF3DE0EA48844217
:1028900009D10121C804FFF71BFF00214FF40020DC
:1028A000FFF716FF30E0E548844209D10121080511
:1028B000FFF70EFF00214FF48010FFF709FF23E020
:1028C000DF48844208D101212020FFF712FF0021B8
:1028D0002020FFF70EFF17E0DA48844209D10121DA
:1028E0008807FFF7F5FE00214FF08040FFF7F0FE6C
:1028F0000AE0D548844207D101214005FFF7E8FEF0
:1029000000216005FFF7E4FE10BD2DE9FF470546F5
:102910000E460024A14600BFA046B08900B100BF0A
:102920002C8A24F44054F08804432C82AC8941F270
:102930000C608443B088318908437189084304439B
:10294000AC81AC8A24F44074B0890443AC826846FC
:10295000FFF74FFDB548854202D0B948854202D104
:10296000DDF80C9001E0DDF80890A88900F4004043
:1029700040B109EBC90000EB091031684900B0FB18
:10298000F1F707E009EBC90000EB09103168890095
:10299000B0FBF1F76420B7FBF0F0040120096421DB
:1029A00001FB1078A88900F4004040B1322000EB10
:1029B000C800B0FBF1F000F00700044308E032204B
:1029C00000EB08106421B0FBF1F000F00F000443AD
:1029D0002C81BDE8FF874FF41651016000218180F2
:1029E000C18001810C21418100218181704710B596
:1029F00002460020108A20F470600B884C88234324
:102A00008C882343CC8823431843108210BD0021B7
:102A1000018041808180C180704721B1828942F468
:102A20000052828104E082894DF6FF731A40828150
:102A30007047028B02F47F420283028B0A430283B7
:102A4000704721B1828942F40042828103E0828989
:102A5000C2F30E028281704721B1828A42F4006281
:102A6000828204E0828A4FF2FF731A4082827047AA
:102A7000C1F308028280704701468888C0F30800CD
:102A80007047028A4FF6F0731A400282028A0A43A4
:102A90000282704721B1828942F00202828104E001
:102AA00082894FF6FD731A408281704782894FF206
:102AB000FF731A40828182890A4382817047028AA9
:102AC0004FF6DF731A400282028A0A43028270477D
:102AD00021B1028A42F48042028204E0028A4BF66B
:102AE000FF731A4002827047818941F001018181A0
:102AF000704721B1828A42F00802828204E0828A11
:102B00004FF6F7731A4082827047028BD2B202836B
:102B1000028B42EA01220283704721B1828A42F08D
:102B20002002828204E0828A4FF6DF731A4082829A
:102B3000704721B1828A42F01002828204E0828AC8
:102B40004FF6EF731A4082827047828A4FF6FB730A
:102B50001A408282828A0A438282704721B1828A25
:102B600042F00202828204E0828A4FF6FD731A402C
:102B7000828270471AB1838A0B43838202E0838A80
:102B80008B4383827047F0B503460024002600255E
:102B9000002040F66A17B94200D100BF1846C1F3C1
:102BA000421401F01F06012707FA06F5012C01D196
:102BB0000C3004E0022C01D1103000E014301AB1C6
:102BC00007682F43076002E00768AF430760F0BD66
:102BD00002460020B1F5007F00D100BF13880B40F2
:102BE0000BB1012000E00020704701F40072B2F543
:102BF000007F00D100BFCA430280704770B5024613
:102C0000002400230025002040F66A16B14200D1BE
:102C100000BFC1F3421501F01F03012606FA03F3BA
:102C2000012D13D19689334017E0000000100140B8
:102C30000044004000480040004C0040005000406C
:102C40000014014000780040007C0040022D02D1B9
:102C5000168A334001E0968A33400C12012606FAA8
:102C600004F41688344013B10CB1012000E00020B8
:102C700070BD10B50022002340F66A14A14200D1B5
:102C800000BF0A1201249440A3B2DC43048010BDAB
:102C900010B50446FE48844208D101210846FFF7DA
:102CA00028FD00210120FFF724FD9DE0B4F1804FB5
:102CB00008D101210846FFF70BFD00210120FFF795
:102CC00007FD91E0F348844208D101210220FFF77B
:102CD000FFFC00210220FFF7FBFC85E0EE48844268
:102CE00008D101210420FFF7F3FC00210420FFF7A5
:102CF000EFFC79E0E948844208D101210820FFF780
:102D0000E7FC00210820FFF7E3FC6DE0E448844283
:102D100008D101211020FFF7DBFC00211020FFF774
:102D2000D7FC61E0DF48844208D101212020FFF771
:102D3000CFFC00212020FFF7CBFC55E0DA4884428D
:102D400008D101210220FFF7D4FC00210220FFF767
:102D5000D0FC49E0D548844209D101210804FFF79D
:102D6000C8FC00214FF48030FFF7C3FC3CE0D048A2
:102D7000844209D101214804FFF7BBFC00214FF434
:102D80000030FFF7B6FC2FE0CA48844209D1012188
:102D90008804FFF7AEFC00214FF48020FFF7A9FC68
:102DA00022E0C548844208D101214020FFF790FC71
:102DB00000214020FFF78CFC16E0C048844208D177
:102DC00001218020FFF784FC00218020FFF780FC98
:102DD0000AE0BB48844207D101218015FFF778FC47
:102DE0000021A015FFF774FC10BD00220288A84B3B
:102DF00098420ED0AC4B98420BD0B0F1804F08D027
:102E0000A44B984205D0A44B984202D0A34B9842C1
:102E100004D14FF68F731A404B881A43A04B984247
:102E200007D0A04B984204D04FF6FF431A400B89BD
:102E30001A4302804B68C3620B880385944B984207
:102E400002D0994B984201D18B7A03860123838269
:102E500070474FF0FF3141600021018001814180C6
:102E6000817270470185828270470A46002101887D
:102E70004FF68F73194011430180704741627047CC
:102E8000C16270470146486A70470146088D704725
:102E900021B1028842F00202028004E002884FF66B
:102EA000FD731A400280704721B1028842F004028B
:102EB000028004E002884FF6FB731A4002807047DC
:102EC00021B1028842F08002028004E002884FF6BD
:102ED0007F731A400280704702884FF6F7731A40DA
:102EE000028002880A430280704702884FF6FF433F
:102EF0001A40028002880A430280704721B102888A
:102F000042F00102028004E002884FF6FE731A408C
:102F10000280704770B5002400220023058C4FF614
:102F2000FE7635400584028C8388048B4FF68F75BE
:102F30002C40B51E2C400D882C43751E2A408D89CF
:102F40002A434D882A43524DA84202D0564DA842EA
:102F500013D14FF6F7752A40CD892A434FF6FB75FA
:102F60002A408D882A434FF6FF652B404FF6FF55C8
:102F70002B400D8A2B434D8A2B43838004838D681D
:102F80004563028470BD70B5002400220023058CC7
:102F90004FF6EF7635400584028C8388048B48F623
:102FA000FF752C404FF6FF452C400D884FF6FF76FD
:102FB00006EA05252C434FF6DF752A408D8906EA7F
:102FC00005152A434D8806EA05152A43304DA842C7
:102FD00002D0354DA8421DD14FF67F752A40CD89CC
:102FE0004FF6FF7606EA05152A434FF6BF752A40CD
:102FF0008D8806EA05152A434FF6FF352B404FF220
:10300000FF752B400D8A06EA85052B434D8A06EA9B
:1030100085052B43838004838D688563028470BD9E
:1030200070B5002400220023058C4FF6FF66354062
:103030000584028C8388848B4FF68F752C404FF665
:10304000FC752C400D882C434FF6FF552A408D8986
:103050004FF6FF7606EA05252A434D8806EA052540
:103060002A430B4DA84202D00F4DA84238D14FF24F
:10307000FF752A40CD894FF6FF7606EA05252A43DB
:103080004FF6FF352A408D8806EA05252A4319E0C8
:10309000000001400004004000080040000C004017
:1030A00000100040001400400004014000400140B6
:1030B000004401400048014000180040001C00404E
:1030C000002000404EF6FF752B404DF6FF752B405B
:1030D0000D8A06EA05152B434D8A06EA05152B4392
:1030E000838084838D68C563028470BD70B50022BF
:1030F00000230024058C4EF6FF7635400584038CB2
:103100008488828B48F6FF752A404FF6FF452A4097
:103110000D884FF6FF7606EA05252A434DF6FF7522
:103120002B408D8906EA05352B434D8806EA053587
:103130002B43FE4DA84202D0FD4DA84208D14BF6CC
:10314000FF752C400D8A4FF6FF7606EA85152C4355
:10315000848082838D680564038470BD00210180B2
:103160004180818081608181C1810182418270477B
:1031700070B50346002000241846183001258D4004
:10318000ACB21D8CA5431D8409B108290AD100EBFE
:10319000610005684FF68F76354005600568154378
:1031A00005600FE00D1FC5F34E052844056848F67D
:1031B000FF763540056005684FF6FF7606EA022681
:1031C0003543056070BD4163704781637047C163DB
:1031D0007047016470470A460021018B4FF68F73D8
:1031E00019401143018370470A460021018B48F6BC
:1031F000FF7319404FF6FF7303EA0223194301835B
:1032000070470A460021818B4FF68F731940114396
:10321000818370470A460021818B48F6FF7319406D
:103220004FF6FF7303EA02231943818370470A466E
:103230000021018B4FF6F77319401143018370474A
:103240000A460021018B4FF2FF7319404FF6FF73BE
:1032500003EA02231943018370470A460021818B48
:103260004FF6F77319401143818370470A460021D6
:10327000818B4FF2FF7319404FF6FF7303EA02236D
:103280001943818370470A460021018B4FF6FB7377
:1032900019401143018370470A460021018B4FF604
:1032A000FF3319404FF6FF7303EA022319430183EA
:1032B00070470A460021818B4FF6FB73194011437A
:1032C000818370470A460021818B4FF6FF331940F6
:1032D0004FF6FF7303EA02231943818370470A46BE
:1032E0000021018B4FF67F73194011430183704712
:1032F0000A460021018BC1F30E014FF6FF7303EA6A
:1033000002231943018370470A460021818B4FF63F
:103310007F7319401143818370470A460021818BD6
:10332000C1F30E014FF6FF7303EA022319438183B1
:1033300070470A460021018C4FF6FD731940114376
:10334000018470470A460021018C4FF6F77319403B
:103350001143018470470A460021018C4FF6DF7348
:1033600019404FF6FF7303EA0213194301847047B3
:103370000A460021018C4FF67F7319404FF6FF7308
:1033800003EA02131943018470470A460021018CA5
:103390004FF6FF5319404FF6FF7303EA0223194318
:1033A000018470470A460021018C4FF2FF731940D7
:1033B0004FF6FF7303EA02231943018470470A465C
:1033C0000021018C4DF6FF7319404FF6FF7303EA9D
:1033D000023319430184704730B5002301248C4027
:1033E000A3B2048C9C430484048C02FA01F5ADB2B0
:1033F0002C43048430BD30B5002304248C40A3B298
:10340000048C9C430484048C02FA01F5ADB22C4375
:10341000048430BD828B4FF2FF331A408283828B4B
:103420004FF6FF7303EA01231A4382837047F0B516
:103430000C461546002100220026078C4EF6FF7C24
:1034400007EA0C070784818B028C4FF6FF7707EAA7
:10345000043640F6FF4739404FF6FF7707EA052765
:1034600039434FF6FF7707EA0337394345F6FF77CD
:103470003A4046F480573A4381830284F0BD828B00
:103480004FF6F3731A408283828B0A43828370471C
:10349000F0B50C461546002100220026078C4FF699
:1034A000FF6C07EA0C070784818B028C4FF6FF77CD
:1034B00007EA04264FF60C7739404FF6FF7707EA04
:1034C00003172F4339434FF2FF573A4046F48077B2
:1034D0003A4381830284F0BD028B4FF2FF331A40DE
:1034E0000283028B4FF6FF7303EA01231A43028320
:1034F0007047F0B50C461546002100220026078CC7
:103500004FF6EF7C07EA0C070784018B028C4FF61D
:10351000FF7707EA041640F6FF4739404FF6FF777A
:1035200007EA033739434FF6FF7703E00000014015
:103530000004014007EA052739434FF65F773A4018
:1035400046F010073A4301830284F0BD028B4FF628
:10355000F3731A400283028B0A4302837047F0B56B
:103560000C46154600210022068C4FF6FE773E40A1
:103570000684018B028C4FF60C7631407E1C06EAE5
:1035800003162E4331434FF6F576324044F00106E0
:10359000324301830284F0BD70B505460C46208895
:1035A00050B92389A28861882846FFF7D8FFE188AF
:1035B0002846FFF7CBFF25E0208804280AD123897D
:1035C000A28861882846FFF794FFE1882846FFF724
:1035D00083FF17E0208808280AD12389A288618800
:1035E0002846FFF755FFE1882846FFF748FF09E026
:1035F0002389A28861882846FFF719FFE1882846B9
:10360000FFF708FF70BD002101804180012181800A
:103610000021C180018170472DE9F04105460C462B
:1036200000260127608808B9022600E00026A0884D
:10363000012801D1022700E001272088A0B92389B1
:10364000A28861882846FFF78AFFE1882846FFF7AD
:103650007DFF23893A4631462846FFF74AFFE18835
:103660002846FFF739FF13E02389A288618828469E
:10367000FFF73FFFE1882846FFF72EFF23893A46F0
:1036800031462846FFF76BFFE1882846FFF75EFFCB
:10369000BDE8F0810146486B70470146886B704772
:1036A0000146C86B70470146086C70470A884B8812
:1036B0001A438B881A43CB881A430B891A434B89C8
:1036C0001A438B891A43A0F84420704700210180D7
:1036D00041808180C180018141818181704731B108
:1036E000B0F8442042F40042A0F8442005E0B0F8CD
:1036F0004420C2F30E02A0F84420704721B1828812
:1037000042F00402828004E082884FF6FB731A4084
:103710008280704721B1828842F00102828004E0F9
:1037200082884FF6FE731A40828070471AB18389EF
:103730000B43838102E083898B43838170478182BD
:10374000704702460020138A0B400BB1012000E0B5
:1037500000207047CA430282704730B502460020FD
:1037600000230024158A05EA0103958905EA01046E
:1037700013B10CB1012000E0002030BDCA43028229
:10378000704741EA0203A0F8483070471AB18389B4
:103790000B43838102E083898B438381704721B18E
:1037A000828842F00802828004E082884FF6F77334
:1037B0001A408280704701894FF6F87211400181EA
:1037C00070470A46002101894FF68F731940114353
:1037D0000181704730B504460D4629462046FFF763
:1037E000F0FF208940F00700208130BD2DE9F04135
:1037F00004460D4616461F46602D06D13B46012263
:1038000031462046FFF775FE05E03B460122314672
:103810002046FFF7A4FE29462046FFF7D2FF208965
:1038200040F007002081BDE8F08130B50C46002152
:103830000189C9B24FF6FF7505EA032515432543F3
:103840002943018130BD2DE9F04105460E4617465A
:103850009846002443463A4631462846FFF7E5FF9E
:103860002C894FF6F870044044F007044FF68F702F
:10387000044044F070042C81BDE8F081F0B50446AA
:103880000D4616461F463B46324629462046FFF760
:10389000CCFF208940F480402081F0BD82884FF623
:1038A0008F731A40828082880A438280704702891F
:1038B0004FF6F8731A40028102890A430281704769
:1038C00002894FF67F731A40028102890A430281FE
:1038D0007047F0B50C4615461E4600210022002315
:1038E0000189028B038C4FF6F877394021434FF65C
:1038F000FC473A4040F201173A434FF6DD773B4030
:103900004FF6FF7707EA06172F433B4301810283F7
:103910000384F0BD21B1828842F08002828004E0FD
:1039200082884FF67F731A4082807047A0F850104B
:103930007047000010B501210802FEF7DAFE0021F1
:103940004FF48070FEF7D5FE10BD30B50246002062
:1039500000235068F84C20400D790C6844EA052497
:10396000204350609068F54C2040D1E903542C432B
:103970008D682C434D7944EA450420439060D06A19
:1039800020F470000C7D641EE4B2234340EA03502F
:10399000D06230BD00210160017141718160C16060
:1039A00001610121017570470021E54A1168E54A6E
:1039B0001140D0E900231A4383681A43C3681A43AD
:1039C0001143E14AC2F804137047002101604160CD
:1039D0008160C160704721B1826842F0010282605B
:1039E00003E0826822F00102826070470A460021EB
:1039F0004168D64B19401143416070474162826271
:103A000070470A460021416821F01F0111434160BF
:103A1000704738B1CA49096841F40001CA4AC2F87E
:103A2000041306E0C649096821F40001C64AC2F839
:103A30000413704738B1C249096841F48001C24A91
:103A4000C2F8041306E0BE49096821F48001BE4AA9
:103A5000C2F804137047F0B504460D46002000215B
:103A6000092D11DDE068A5F10A0606EB46070726D9
:103A700006FA07F18843A5F10A0606EB460603FAA3
:103A800006F10843E0600CE0206905EB45070726D6
:103A900006FA07F1884305EB450603FA06F10843E9
:103AA0002061072A0FDA606B561E06EB86071F2679
:103AB00006FA07F18843561E06EB860605FA06F15C
:103AC0000843606322E00D2A0FDA206BD61F06EB55
:103AD00086071F2606FA07F18843D61F06EB8606DF
:103AE00005FA06F10843206310E0E06AA2F10D0632
:103AF00006EB86071F2606FA07F18843A2F10D069A
:103B000006EB860605FA06F10843E062F0BD81681F
:103B100041F0804181607047014600208A6802F0D0
:103B200080420AB1012000E00020704721B1826884
:103B300042F48062826003E0826822F480628260E4
:103B4000704721B1826842F00202826003E082681D
:103B500022F002028260704710B50A46002100235D
:103B6000416821F46041531E41EA4331416010BD78
:103B700021B1426842F40062426003E0426822F4EC
:103B80000062426070470146C86C80B270476C4862
:103B9000001D0068704721B1826842F48072826023
:103BA00003E0826822F480728260704721B18268EB
:103BB00042F40072826003E0826822F40072826044
:103BC000704738B15E49096841F400515E4AC2F855
:103BD000041306E05A49096821F400515A4AC2F810
:103BE00004137047F0B50446154600200022002655
:103BF000092911DDE068A1F10A0707EB470C072747
:103C000007FA0CF29043A1F10A0707EB470703FA02
:103C100007F21043E0600CE0206901EB410C07273C
:103C200007FA0CF2904301EB410703FA07F2104345
:103C30002061A06BC0F30156EF1C06F1010CA7EB4D
:103C40000C0707EB870C1F2707FA0CF29043EF1CB9
:103C500006F1010CA7EB0C0707EB870701FA07F247
:103C60001043A063F0BD10B50A4600210023816B0C
:103C700021F44011531E41EA0351816310BD08B580
:103C8000002300930090009B0B440093009B1A605C
:103C900008BD0A460021816821F47021114381602A
:103CA00070470A460021816821F440111143816068
:103CB0007047816841F480018160704701460020AF
:103CC0008A6802F480020AB1012000E000207047F7
:103CD00021B1426842F48062426003E0426822F40B
:103CE00080624260704721B1426842F48052426073
:103CF00003E0426822F480524260704708B50246F1
:103D000000200090009201F12800009B18440090D0
:103D10000098006880B208BD10B50B460021D9B2EA
:103D2000012404FA01F11AB144680C43446002E032
:103D300044688C43446010BDFFFEFFFCFDF7FFC0EC
:103D400004230140E030FCFF00200140FFFD3FFF65
:103D50000246002013680B400BB1012000E0002058
:103D60007047CA430260704770B5024600200023C6
:103D700000240B12556801268E4005EA06041568DA
:103D80001D4015B10CB1012000E0002070BD0022E3
:103D90000A12D3430360704710B50446FB488442BF
:103DA00008D101218014FEF7A4FC0021A014FEF725
:103DB000A0FC3CE0F648844208D101210014FEF743
:103DC00087FC00212014FEF783FC30E0F148844298
:103DD00008D10121C013FEF77BFC0021E013FEF7A0
:103DE00077FC24E0EC48844208D101214014FEF71E
:103DF00080FC00216014FEF77CFC18E0E748844258
:103E000009D101210805FEF774FC00214FF4801050
:103E1000FEF76FFC0BE0E248844208D1012148051F
:103E2000FEF767FC00214FF40010FEF762FC10BDA6
:103E300010B50022028802F441520B884C882343BB
:103E40008C882343CC8823430C8923434C89234308
:103E50008C892343CC8923431A430280838B4FF2FE
:103E6000FF74234083830B8A038210BD2DE9F04F3A
:103E70000025022300244FF001090022002600271C
:103E800094469046B0F81CA04FF2400B0AEA0B0A89
:103E9000A0F81CA04FF0020AA0F820A0858BD1F852
:103EA00008A0BAF1020F01D100BF82E0B1F804A06E
:103EB000BAF1000F02D14FF0010901E04FF0020901
:103EC000DFF8E0A2DAF800A00AF4000ABAF1000F65
:103ED00009D0DFF8D0A2DAF800A02AF4000ADFF84F
:103EE000C4B2CBF800A0DFF8BCA20AF17C0ADAF871
:103EF00000A0CAF3881CDFF8ACA20AF17C0ADAF849
:103F000000A0CAF30278DFF89CA2AAF1040ADAF84A
:103F100000A00AF03F07DFF88CA2AAF1040ADAF841
:103F200000A00AF4800ABAF5800F08D1DFF878A261
:103F3000BAFBF7FA0AFB0CFABAFBF8F607E0DFF86F
:103F40006CA2BAFBF7FA0AFB0CFABAFBF8F6B1F866
:103F500006A0BAF5007F0ED14FEA162A0AEB8A0AAC
:103F60004FEA4A0AD1F808B0BAFBFBFA0AF1050A8F
:103F70001FFA8AF20FE04FEA491AB6FBFAFA0AEB87
:103F80008A0A4FEA4A0AD1F808B0BAFBFBFA0AF1EA
:103F9000050A1FFA8AF24FF00A0AB2FBFAF202F09F
:103FA0000104A2EB040ACAF34F034FF6FF7A0AEAB0
:103FB0000424022B01DBFF2B01DD02230024B1F8D6
:103FC00006A04AEA040A4AEA030AA0F820A0B1F8C7
:103FD00004A0B1F80CB04AEA0B0AB1F802B04AEA00
:103FE0000B0AB1F800B04AEA0B0A4AF4006A4AEA3E
:103FF00005058583BDE8F08F002101804180818027
:10400000C180018141818181C18107210182704785
:104010000021018041808180C180022181600021D6
:104020008181704721B1028842F04002028004E0A1
:1040300002884FF6BF731A400280704721B1828B0D
:1040400042F48062828304E0828B4FF6FF331A4091
:104050008283704702884FF2FF731A400280028801
:104060000A4302807047B1F5804F04D1028842F4C0
:104070008042028004E002884BF6FF731A400280FF
:1040800070474FF6FF62914204D0028842F480727A
:10409000028004E002884FF6FF631A4002807047F6
:1040A00021B1828842F00402828004E082884FF6C7
:1040B000FB731A408280704721B1828842F010025F
:1040C000828004E082884FF6EF731A408280704746
:1040D00030B500220023848B4FF240052C408483AE
:1040E00002240484828B0C88B4F5007F01D00C88F4
:1040F00014B94FF4807308E00C88B4F5407F03D006
:104100000C88B4F5807F00D100238C888D892C43E6
:104110004D882C431C4344F400642243828330BD09
:104120000146888970478181704721B1028842F435
:104130000052028004E002884DF6FF731A400280AC
:104140007047018841F48051018070470246002089
:10415000012901D0108B00E0908A70470146088A3F
:1041600070471AB183880B43838002E083888B43B6
:104170008380704730B5002400230C110125A54031
:10418000ABB2AAB185881D43858014E000300140A0
:1041900000380040003C0040003401400050014025
:1041A000005401400838024000127A000024F40054
:1041B00085889D43858030BD0246002013890B40D1
:1041C0000BB1012000E000207047CA430281704714
:1041D000F0B50246002000240023002501F00F075F
:1041E0000126BE40B4B20B1101269E40B3B29688A0
:1041F00006EA03051689264016B10DB1012000E03C
:104200000020F0BD10B5002201F00F040123A340EF
:104210009AB2D343038110BD08B5684602F0AEF8E8
:1042200008BD08B5684602F0F3F808BD38B5044685
:104230006A460821204608F0D9FB38BD10B542482F
:104240000078012805D101F0DFFF08F05BFE01F0E6
:10425000ECFF10BD70B504466FF00400FDF758FE8A
:104260002046E11704EB5171C1F3C701374A1170C1
:10427000E11704EB5171CD10354800683549B1FBA9
:10428000F0F04543324800684FF47A71B1FBF0F02A
:10429000314908804FF0E020006940F002004FF003
:1042A000E021086108464561006940F001000861AD
:1042B00070BD2DE9F047074600264FF0E020D0F80A
:1042C00014902248007807FB00F8FFF7A5FF4FF095
:1042D000E020856911E04FF0E0208469AC420CD009
:1042E000AC4202D2281B064403E0A9EB0400284498
:1042F00006442546464500D300E0ECE700BFFFF743
:1043000090FFBDE8F08770B504460F480078A0B173
:104310001248007888B910480088844206DB0E48AD
:10432000008894FBF0F52846FFF780FF0A480088D4
:1043300094FBF0F100FB114084B24FF47A7104FB5E
:1043400001F0FFF7B6FF70BD7900002040000020AB
:104350006C07010840420F00420000207800002056
:1043600010B53F48FEF788FBC1B23E48027800789E
:10437000401C3C4B18703C48815440F2277138482F
:10438000FEF73CFC28B1002240F227713448FEF7CA
:10439000FAFB10BD10B586B0044601210846FEF7B1
:1043A000F9F801211020FEF74FF9072209212F48C3
:1043B000FDF7DDFE07220A212C48FDF7D8FE4FF459
:1043C000C060049002208DF814008DF815000020C4
:1043D0008DF8160001208DF8170004A92348FDF779
:1043E0003BFE00940020ADF80400ADF80600ADF8E7
:1043F0000800ADF80C000C20ADF80A00694618481A
:10440000FEF783FA01211648FEF707FB4021144806
:10441000FEF7EBFB06B010BD0FB438B505A8009051
:104420001348009A049909F013FC002000901048EA
:1044300009F020FC85B200240DE000BF40210848AF
:10444000FEF7C6FB0028F9D00948015D0448FEF7D5
:104450000FFB601C84B2AC42EFDB38BC5DF814FB90
:104460000010014045000020684B00200000024081
:10447000D84900201FB56846FDF7BBFF019804B07E
:1044800010BD10B5FFF7F6FF04461848006840F06D
:104490008070164908600020154948600846006889
:1044A00040F001000860204600F0B7F810BD104948
:1044B000486870472DE9F0478246FFF7DBFF4FF071
:1044C000000980460B4A00234046494609F048FB54
:1044D000064632460B465046002109F041FB044691
:1044E0000D4620462946BDE8F0870000FCED00E0BF
:1044F000001000E040420F0010B5002400BF00BFD4
:1045000000F052F9044600BF00BF1021A14800F09E
:10451000D2FA00BF00BF204600F04AF900BF00BF3A
:1045200010BD10B5FFF7E8FF10BD10B500209A4987
:104530000860FFF7A6FF10BD10B5FFF7F6FFFFF705
:10454000F0FF10BD00BFFEE770B505460C46002623
:1045500014B900BFFFF7F6FF15B90A20208070BD1F
:1045600000BF00BF00F020F9064600BF00BF1022C8
:104570008849284600F056FF00BF00BF304600F0D3
:1045800017F900BF00BF0020208000BFE7E72DE93A
:10459000F04105460C46002714B900BFFFF7D2FFD3
:1045A0001DB90A202080BDE8F0811021284600F0C6
:1045B00021FF0646102E15D200BF00BF00F0F4F810
:1045C000074600BF00BF10222946724800F02AFFAC
:1045D00000BF00BF384600F0EBF800BF00BF00206E
:1045E000208002E04FF47A70208000BFDBE710B536
:1045F000FFF75DFF0446204610BD704700B5014639
:1046000011B900BFFFF79EFF634A106808B100228E
:1046100001E04FF4FA620A8000BD5F49086070470C
:1046200070B50546284600F0CAF80446183C2046F6
:1046300070BD70B50546284600F0C1F80446103C30
:10464000204670BD70B50546284600F0B8F804460F
:1046500000BF204670BD30B502460B460024D2F1A3
:10466000FF359C4126D24FF6FF74D2F1FF359C41B5
:104670000FD26FF07F44D2F1FF359C4103D2190E67
:10468000464C605C44E0190C444C645C04F1080046
:104690003EE0FF24D2F1FF359C4105D2190A3F4C80
:1046A000645C04F1100033E019463C4C645C04F196
:1046B00018002DE04FF6FF750024AD1A9C4115D26D
:1046C0006FF07F450024AD1A9C4107D2140E44EAD6
:1046D0000321324C645C04F1200019E0140C44EA1C
:1046E00003412E4C645C04F1280011E00024D2F157
:1046F000FF059C4107D2140A44EA0361274C645C1D
:1047000004F1300004E01146244C645C04F13800EC
:1047100030BD70B504460CB9082070BD204600F0CD
:1047200051F805462846F8E770B504460CB9102044
:1047300070BD204600F046F805462846F8E770B5FB
:1047400004460CB9202070BD204600F03BF8054619
:104750002846F8E72DE9F04304460D46002184EA97
:1047600001006940084302D14020BDE8F083E243E4
:10477000E843521C40F1000102EA040601EA050781
:1047800030463946FFF767FF8046C8F13F09484683
:10479000EBE70000304C00204800002074050108C1
:1047A00072B6704762B67047EFF3108072B670470A
:1047B00080F31088704730BF704720BF7047B0FA51
:1047C00080F0704790FAA0F0B0FA80F0704790FA4D
:1047D000A0F070470146412903DB5A2901DC012280
:1047E00000E00022012A08D0612903DB7A2901DCDC
:1047F000012200E00022012A01D1012200E0002272
:10480000104670470146412903DB5A2901DC012289
:1048100000E00022012A08D0612903DB7A2901DCAB
:10482000012200E00022012A01D1012200E0002241
:10483000012A08D0302903DB392901DC012200E0FC
:104840000022012A01D1012200E000221046704717
:104850000146612903DB7A2901DC012200E0002204
:10486000104670470146412903DB5A2901DC012229
:1048700000E00022104670470146302903DB392949
:1048800001DC012200E00022104670470146302979
:1048900003DB372901DC012200E0002210467047CB
:1048A0000146302901DB392907DD412901DB462991
:1048B00003DD612903DB662901DC012200E000221F
:1048C000104670470146202901D0092901D1012253
:1048D00000E00022104670470146202909D00D292A
:1048E00007D00A2905D00C2903D0092901D00B29AA
:1048F00001D1012200E00022104670470146202924
:1049000003DB7E2901DC012200E000221046704713
:104910000146212903DB7E2901DC012200E000227F
:10492000104670470146202903DB7E2901DC012265
:1049300000E00022012A35D1202909D00D2907D015
:104940000A2905D00C2903D0092901D00B2901D14E
:10495000012200E000222ABB412903DB5A2901DCA5
:10496000012200E00022012A08D0612903DB7A2914
:1049700001DC012200E00022012A01D1012200E035
:104980000022012A08D0302903DB392901DC012269
:1049900000E00022012A01D1012200E000220AB930
:1049A000012200E000221046704701464AB2002A68
:1049B00001DB1F2901DD7F2901D1012200E0002256
:1049C000104670470146412903DB5A2901DC0122C8
:1049D00000E00022012A02D101F1200200E00A4693
:1049E000D0B270470146612903DB7A2901DC01223C
:1049F00000E00022012A02D1A1F1200200E00A46D3
:104A0000D0B27047F0B504460B462046FFF7EAFFE8
:104A100005461846FFF7E6FF0646B54201D10120DC
:104A200000E0002007463846F0BD0000FC48FD4984
:104A300001600146416000218160C1600161416106
:104A40008161C16101620163C1624162F6498163B2
:104A5000C1634FF48061016441640146F34A11600F
:104A600070472DE9F04105460B4694460027002487
:104A700002E03F021F43641C042CFAD3604605F099
:104A80000306294646B1344603E001F8013B401EC7
:104A9000641C08B1042CF8D30A4601E080C2001F50
:104AA0000428FBD2114602E001F8013B401E002819
:104AB000FAD1BDE8F08130B505460C46224600210A
:104AC0002846FFF7CEFF30BD2DE9F04F85B00746F1
:104AD0008846914646463D46AE4207D94A4641463B
:104AE000384601F01DF905B0BDE8F08F4C4607EBE4
:104AF0000900451E08EB0900461EA81B04900498F7
:104B0000042834D305F00300029006F0030101915C
:104B1000DDE90110884201D1012000E00020009071
:104B20000098012823D10298032810D0029840B29F
:104B3000039008E016F8010905F80109641E0398BE
:104B4000401E40B2039014B103980028F2DAA5F198
:104B5000030AA6F1030B04E05BF804094AF8040910
:104B6000241F042CF8D20AF103050BF1030604E01C
:104B700016F8010905F80109641E002CF8D100BFE0
:104B8000B1E72DE9F84F80468946154615B9012051
:104B9000BDE8F88FB8F1000F01D10020F8E7B9F1B6
:104BA000000F01D10020F3E70124294608EB05029C
:104BB00009EB050302F0030C03F0030BDC4501D104
:104BC000012000E0002000900098012829D1BCF1CC
:104BD000000F12D0E2460AE0521E5B1E107893F8D6
:104BE00000E0704500D00024491EAAF1010A012C02
:104BF00003D111B1BAF1000FEED1012C11D116463B
:104C00001F4608E0361F3F1F3068D7F800E07045A8
:104C100000D00024091F012C01D10429F2D2324610
:104C20003B4608E0521E5B1E107893F800E070458A
:104C300000D00024491E012C01D10029F2D12046C8
:104C4000A6E7F0B503460E461546D96BB1FBF5F065
:104C500005FB101CBCF1000F02D0A5EB0C0200E01C
:104C600000229419586CA04201D20020F0BD0F1907
:104C70001144DF63586C001B58640846F6E72DE9C1
:104C8000F04106460F46B6FBF3FC03FB1C6109B17D
:104C90005C1A00E00024B2FBF3FC03FB1C2109B109
:104CA0005D1A00E0002502EB0508A7F1010C08FBE6
:104CB0000C4C0CEB0200BDE8F0812DE9FE4F804664
:104CC000894614461E46002000900CB901AC00BF76
:104CD00000202060524F00BF00BFFFF765FD00902D
:104CE00000BF00BFF86B0290D7F844B04B46424675
:104CF00001210298FFF7C3FF05465D450FD900BFAC
:104D000000BF0098FFF754FD00BF00BFA5EB0B00EC
:104D1000206042F2E27030800020BDE8FE8F4A46FB
:104D200041463846FFF78DFF8246BAF1000F0CD19D
:104D300000BF00BF0098FFF73BFD00BF00BF25602C
:104D400042F2E27030800020E7E700BF00BF009829
:104D5000FFF72EFD00BF00BF42F2107030805046BA
:104D6000DBE72DE9FC5F07460C46904600200090EB
:104D700000BF00BFFFF718FD009000BF00BFD7F8CD
:104D80000490D9F8380008B1484600E0244882462B
:104D9000DAF84450DAF83CB000BF00BF0098FFF7E3
:104DA00007FD00BF00BF012C0AD9BBFBF4F004FBD8
:104DB00010B60EB1A01B00E00020019001982D1A42
:104DC00042F21070A8F800002846BDE8FC9F70B5BC
:104DD00004460D462A4621461148FFF7C2FF064603
:104DE000304670BD18B942F211720A807047104AFD
:104DF0000260002242608260C260026142618261A0
:104E0000C2610262826242630263C2624262826380
:104E1000C2630264426442F210720A8000BFE5E796
:104E2000404C002048454150884C00204C00002058
:104E30004E4F4E452DE9FF4F91B00446DDE92089E4
:104E400000200090B8F1000F02D10DF1180800BF4A
:104E50000020C8F8000049462046FFF7C3FFB9F814
:104E6000000042F21071884202D015B0BDE8F08F08
:104E7000FE48006820B942F2E770A9F80000F4E7A4
:104E8000DFF8ECA30020059000BF00BFFFF78CFC0B
:104E9000009000BF00BF129880BB5546AB462E461F
:104EA000DAF83C000D9004231A4614990D98FFF788
:104EB000E6FE049004990D9808440C90DDE91E2349
:104EC00014990C98FFF7DBFE0390DDE90301084419
:104ED0000590DAF844700598B8427DD900BF00BF4C
:104EE0000098FFF765FC00BF00BF0598C01BC8F81D
:104EF000000042F2E270A9F80000B6E7FFE712985E
:104F00000B90DDE912010844401E0A900025AB46D3
:104F1000D64806683BE0B16B1298814205D1316CEE
:104F20001398814201D1354633E0B06B0990316C62
:104F3000B06B0844401E0890DDE90901814200D2AF
:104F400027E009990B98884203D8DDE909108842C7
:104F50000FD209990B98884203D308990A9888427E
:104F600007D908990B9888420FD808990A9888425F
:104F70000BD300BF00BF0098FFF71AFC00BF00BFB3
:104F800042F27F70A9F800006FE7B346F668002E82
:104F9000C1D100BF45B925461298A0631298E063BD
:104FA0001398206413986064DAF83C000D90042391
:104FB0001A4614990D98FFF762FE0490DAF84470CF
:104FC0000498B84211D900BF00BF0098FFF7F0FB6A
:104FD00000BF00BF049800E024E0C01BC8F8000038
:104FE00042F2E270A9F800003FE7E86B0C90DDE9BF
:104FF0001E2314990C98FFF742FE03906F6C0398E0
:10500000B8420FD900BF00BF0098FFF7D1FB00BF27
:1050100000BF0398C01BC8F8000042F2D870A9F87E
:10502000000022E714988000029004225046029962
:10503000FFF707FE0F900F9830BBDAF8447000BFFF
:1050400000BF0098FFF7B4FB00BF00BF129858B92B
:105050000598B84204D90598C01BC8F800000EE0B6
:105060000598C8F800000AE00298B84204D90298EE
:10507000C01BC8F8000002E00298C8F8000042F225
:10508000E270A9F80000F0E60020019034E0284624
:10509000DDE91E12FFF7D5FD0E900E9820BBE86BE0
:1050A0000C906F6C00BF00BF0098FFF781FB00BF42
:1050B00000BF01991498401A0790DDE91E23079953
:1050C0000C98FFF7DCFD05900598B84204D90598C7
:1050D000C01BC8F8000002E00598C8F8000042F2C2
:1050E000D870A9F80000C0E6019ADDE90E0141F888
:1050F00022000198401C0190149901988842C6D35F
:10510000A5420DD1C4F808B0E660BBF1000F02D093
:10511000CBF80C4001E0554804605EB1B46009E092
:10512000686910902561109860616C61109808B1F1
:10513000109804614F48206065600C98A061039945
:105140000C980844401EE0610F9820620398A0620A
:105150001F9860631E9820631498E0621498606240
:1051600000BF00BF0098FFF723FB00BF00BF42F263
:105170001070A9F8000000BF77E62DE9F041044661
:105180000D46002700BF00BFFFF70EFB074600BF1C
:1051900000BF666A00BF00BF3846FFF709FB00BFCB
:1051A00000BF42F2107028803046BDE8F0812DE942
:1051B000F041044688461546002700BF00BFFFF7B0
:1051C000F3FA074600BF00BF606A60B900BF00BFC6
:1051D0003846FFF7EDFA00BF00BF42F2DE702880CC
:1051E0000020BDE8F081E16A606A88420BD900BF07
:1051F00000BF3846FFF7DCFA00BF00BF42F29570EF
:1052000028800020EDE7606A401E6062D4E9080152
:1052100050F8216000BF00BF3846FFF7C9FA00BF51
:1052200000BF42F2107028803046DAE72DE9F047DF
:1052300004460F4615464FF0000900BF00BFFFF7B8
:10524000B3FA814600BF00BFE06AC01B461EE06A99
:10525000B04213D800BF00BF4846FFF7A9FA00BF0D
:1052600000BF42F295702880002005E04C0000202D
:10527000404C0020504F4F4CBDE8F087606AB04270
:105280000BD900BF00BF4846FFF792FA00BF00BF2E
:1052900042F2957028800020E7E7206A50F82680C7
:1052A00000BF00BF4846FFF783FA00BF00BF42F2CD
:1052B000107028804046D8E72DE9F04704460E4696
:1052C00017464FF0000A00BF00BFFFF76DFA824695
:1052D00000BF00BFE16A606A88420BD300BF00BF15
:1052E0005046FFF765FA00BF00BF42F2DD7038801C
:1052F000BDE8F0874FF00008656A08E0206A50F8C2
:105300002590B14502D14FF0010803E06D1CE06A21
:10531000A842F3D800BFB8F1010F06D1D4E90801C3
:1053200050F82100216A41F82500D4E9080140F82D
:105330002160606A401C606200BF00BF5046FFF7FA
:1053400037FA00BF00BF42F21070388000BFCFE7CD
:105350002DE9F84F04460F461646002000904FF006
:10536000FF3B00BF00BFFFF71FFA009000BF00BF68
:10537000E16A606A88420CD300BF00BF0098FFF763
:1053800017FA00BF00BF42F2DD7030805846BDE81A
:10539000F88F4FF00009656A08E0206A50F8258010
:1053A000B84502D14FF0010903E06D1CE06AA84244
:1053B000F3D800BFB9F1010F0FD1E06A401EA0EB96
:1053C000050A00BF00BF0098FFF7F2F900BF00BF59
:1053D00042F2107030805046D9E700BF00BF0098FD
:1053E000FFF7E6F900BF00BF42F2887030805846F0
:1053F000CDE7000010B502460B461146002001E043
:10540000491C401C19B10C780CB19842F8D310BD5E
:1054100030B504464FF0FF312046FFF7EBFF05465D
:10542000284630BD70B504460D4616460CB900201E
:1054300070BD0DB90020FBE721462A46002304E099
:1054400010780870491C521C5B1C21B11AB11078ED
:1054500008B1B342F4D301B10AB90020E8E7B3427E
:1054600001D2002008702046E2E770B504460D46E0
:105470004FF0FF3229462046FFF7D4FF064630465C
:1054800070BD70B503460C4615460BB9002070BDC3
:105490000CB90020FBE70DB91846F8E7194600E003
:1054A000491C11B108780028FAD109B90020EEE7AB
:1054B0002246002604E010780870491C521C761C15
:1054C00021B11AB1107808B1AE42F4D301B10AB9D2
:1054D0000020DCE7002008701846D8E770B50446C5
:1054E0000D464FF0FF3229462046FFF7CAFF064619
:1054F000304670BD2DE9F04305460B469446BCF19D
:10550000000F02D10020BDE8F08335B90BB90020AF
:10551000F9E7187842421046F5E713B92A781046A1
:10552000F1E729461C460F4626467F1C761C4FF0A5
:10553000000805E0491C641C7F1C761C08F101086A
:10554000087894F80090484505D1087818B117B14B
:105550000EB1E045EED3E04501D10020D3E7087855
:1055600094F80090484505D0087894F80090A0EB96
:1055700009020BE0087808B9002207E02FB90EB93C
:10558000002203E03078424200E03A781046BAE761
:1055900070B504460D464FF0FF3229462046FFF70E
:1055A000A9FF0646304670BD2DE9F74F82B0804610
:1055B0000E46049818B9002005B0BDE8F08FB8F188
:1055C000000F09D10EB90020F6E73078FFF7FAF99D
:1055D00007467C422046EFE73EB998F80000FFF707
:1055E000F1F905462C462046E6E7C146B246C846D4
:1055F000C3465646CDF804A0D8460BF1010B019ED8
:10560000701C0190C84699F80000FFF7DBF90546C9
:1056100056469AF80000FFF7D5F90746002000909B
:1056200015E009F101090AF1010A0BF1010B0198DA
:10563000401C01900098401C009099F80000FFF772
:10564000C1F905469AF80000FFF7BCF90746BD42CC
:105650000BD199F8000040B1BBF1000F05D00198C3
:1056600018B1049900988842DBD3049900988842C5
:1056700001D10020A0E7BD4201D0EC1B16E00DB91E
:10568000002413E0BBF1000F0AD1019808B90024EF
:105690000CE001990878FFF795F907467C4205E090
:1056A0009BF80000FFF78EF905462C46204683E75D
:1056B00070B504460D464FF0FF3229462046FFF7ED
:1056C00073FF0646304670BD30B504460B4615469E
:1056D0000CB9002030BD0BB90020FBE721460022A9
:1056E00001E0491C521C31B1087820B10878A84269
:1056F00001D09A42F5D309B90020EBE79A4201D3D1
:105700000020E7E70878A84201D00020E2E7084639
:10571000E0E770B505460C4622464FF0FF312846BB
:10572000FFF7D2FF0646304670BD2DE9F04305462F
:105730000E46174615B90020BDE8F0830EB90020CB
:10574000FAE72C46A6F1010949462046FFF752FE2A
:10575000804644440CB90020EEE700E0641EAC42F1
:1057600002D02078B842F9D12078B84201D0002088
:10577000E2E72046E0E770B505460C4622464FF0CA
:10578000FF312846FFF7D1FF0646304670BD70B5A1
:1057900004460D4616460CB9002070BD0BB900201A
:1057A000FBE721461A4605E00878A84200D10E70B2
:1057B000491C521E19B1087808B1002AF4D12046BC
:1057C000EBE7F0B504460D4616464FF0FF33324680
:1057D00029462046FFF7DBFF07463846F0BD2DE996
:1057E000FF4F06460F4615461EB9002004B0BDE81F
:1057F000F08F0FB90020F9E70DB90020F6E7681C1B
:1058000000B101E04FF0FF30039029463046FFF72A
:10581000F1FD804638460399FFF7ECFD04460CB9CC
:105820003046E3E7444501D90020DFE706EB080BEB
:10583000BBF1000F01D10020D8E707EB040BBBF14F
:10584000000F01D10020D1E7A8EB040002904FF037
:1058500000090020019000BF06EB090000902246DD
:1058600039460098FFF746FE8246BAF1000F01D193
:10587000012000E00020019009F10109019810B910
:1058800002988145E8D9BAF1000F01D00020ADE7B8
:105890000098ABE770B504460D464FF0FF3229463D
:1058A0002046FFF79CFF0646304670BD2DE9FF4FAE
:1058B0008DB00F4615461A9E1D9818B9002011B0DC
:1058C000BDE8F08F002003900490012F01DA012041
:1058D0000390022D01D3242D01D90120039096B30A
:1058E0003046FFF70BF802900298012802D0012001
:1058F000039028E0302E26D0A6F13000C0B20790E9
:105900001B98012804D0A6F14100C0B2069003E024
:10591000A6F16100C0B206900A2D02D80798A842ED
:1059200009DB0A2D09D907980A2804D3A5F10A0032
:105930000699884201D9012000E0002005900598D1
:10594000012800D103901D9C0398002846D1DDF862
:1059500034A0DDF834A0CDF830A001200B9007E092
:105960000B98401CC0B20B900C98B0FBF5F00C905B
:105970000C98A842F4D21098012800D100E0002031
:1059800009900B9909980844B84225DC0020019041
:105990000B98B84201DA0B9800E038460A903EB105
:1059A000B8460A98391A0998081AC0B2089006E051
:1059B000DDE90910084400F0FF080020089008986D
:1059C000002806DD302E01D1012000E000200490E7
:1059D00004E00020049001E001200390039800B14E
:1059E000B84644441C9808B100202070641E4FF053
:1059F000000941E00398A8BBBAF1000F02D1B9F148
:105A0000000F1CD1BAFBF5F005FB10A000F0FF0B56
:105A1000BBF10A0F04D20BF1300004F801090BE0CE
:105A20001B98012804D00BF1370004F8010903E0AA
:105A30000BF1570004F80109BAFBF5FA1AE01098C7
:105A4000012810D1049808B9019828B1049850B1E0
:105A5000A8F10100484506D12D2004F801090120D4
:105A6000019007E003E02EB104F8016902E03F2055
:105A700004F8010909F10109C145BBD3039808B134
:105A800000201CE71D981AE72DE9FF5F05460E462A
:105A900017461C46DDE90F9ADDF8388000233A46A8
:105AA000314628468DE81007FFF700FF8346584629
:105AB00004B0BDE8F09F2DE9FF4F85B0044689464C
:105AC0001F46DDE913AB002C02DA6542012601E036
:105AD0002546002612983346CDE902ABCDE9007089
