:020000040800F2
:10000000881D0020D504000875020008770200084A
:100010007B0200087F020008830200080000000045
:10002000000000000000000000000000870200083F
:1000300089020008000000008B0200088D02000801
:10004000EF040008EF040008EF040008EF040008C4
:10005000EF040008EF040008F92F0008173000082B
:10006000353000085330000871300008EF040008F4
:10007000EF040008EF040008EF040008EF04000894
:10008000EF040008EF040008EF040008EF04000884
:10009000F1560008EF040008EF0400088F30000854
:1000A000E93C0008D1380008473D000855380008F1
:1000B0002F390008C9390008633A0008395B000885
:1000C000A75C0008CF5C00083D5E0008EF04000854
:1000D000EF040008514F0008A94F00080150000824
:1000E0001D310008EF040008EF040008873D0008F8
:1000F0008B3C0008E53D0008DB3B0008EF040008EE
:10010000EF040008EF040008FD3A0008EF040008BF
:1001100059500008B1500008973B0008B93B00084F
:10012000EF040008EF040008EF040008EF040008E3
:10013000EF040008EF040008EF040008EF040008D3
:10014000EF0400081B570008EF040008EF04000844
:10015000EF040008EF040008EF040008095100084C
:10016000655E0008EF5F0008EF040008EF04000878
:10017000EF040008EF040008EF040008EF04000893
:10018000EF040008EF04000800F002F800F062F845
:100190000AA090E8000C82448344AAF10107DA45E2
:1001A00001D100F057F8AFF2090EBAE80F0013F0D2
:1001B000010F18BFFB1A43F00103184794640000B5
:1001C000B464000010F8013B0A4413F0030408BFB4
:1001D00010F8014B1D1108BF10F8015B641E05D01B
:1001E00010F8016B641E01F8016BF9D1002D15D0D8
:1001F00010F8014B03F00C030C2BA1EB04040ABF15
:1002000010F8013BA4EB8314A4EB032405F10103D4
:1002100014F8016B5B1E01F8016BF9D5914238BFF0
:1002200010F8013BD1D3704700230024002500269D
:10023000103A28BF78C1FBD8520728BF30C148BF49
:100240000B6070471FB506F0F5F906F0A9F91FBD60
:1002500010B510BD06F0B6F91146FFF7F3FF06F032
:100260003DF906F0D4F903B4FFF7F2FF03BC06F042
:10027000DBF90000704700BFFEE700BFFEE700BFEC
:10028000FEE700BFFEE770477047704710B502F009
:10029000A7FE1848007820B116480078401E15497E
:1002A00008701548007820B113480078401E1249A4
:1002B00008701248007820B110480078401E0F499D
:1002C00008700F48007820B10D480078401E0C4996
:1002D00008700C48007820B10A480078401E09498F
:1002E00008700948007820B107480078401E064988
:1002F000087010BDC8070020CB090020CE0B0020DD
:10030000D10D0020D40F0020D711002066480068CE
:1003100040F08050644908606448006840F4404000
:10032000624908606048383800685F4938390860B9
:100330000846006840F4004008600846006840F441
:10034000A05008605A48091F0860081F006840F064
:100350008070091F086000BF53484038006800F0F3
:1003600000700028F8D040F20560524908604E48FD
:100370003838006820F003004B49383908600846D7
:10038000006840F00200086000BF47483838006845
:1003900000F00C000828F8D1704710B546480068F6
:1003A00040F47000444908603F484038006840F01D
:1003B00001003D494039086000203B493839086058
:1003C0003948403800683D4908403749403908609D
:1003D0003B48091D0860081F006820F48020091FA1
:1003E00008600020304934390860FFF78FFF4FF074
:1003F000006031498039086010BD70B500200022CE
:10040000022300240221284D383D2D6805F00C0000
:1004100020B1042806D0082834D107E0294D2A4EFF
:10042000356033E0294D284E35602FE01E4D3C3DB0
:100430002D68C5F380541C4D3C3D2D6805F03F01EF
:1004400054B1224DB5FBF1F5174E3C3E3668C6F36C
:10045000881605FB06F209E01A4DB5FBF1F5124EC0
:100460003C3E3668C6F3881605FB06F20E4D3C3D51
:100470002D68C5F301456D1C6B00B2FBF3F5124E00
:10048000356003E00F4D104E356000BF00BF064DD4
:10049000383D2D68C5F303150D4E705D0A4D2D686E
:1004A000C540094E356070BD4038024000700040C4
:1004B00010540007003C024088ED00E0FFFFF6FE0C
:1004C000103000240024F4000000002000127A0004
:1004D000040000200948804709480047FEE7FEE77E
:1004E000FEE7FEE7FEE7FEE7FEE7FEE7FEE7FEE7E4
:1004F00004480549054A064B704700009B03000865
:100500008901000888170020881D00208819002014
:100510008819002010B50446FE48844209D1012103
:10052000480601F066FB00214FF0007001F061FB0E
:1005300008E00121880601F05CFB00214FF080609B
:1005400001F057FB10BD30B50246002000231468AF
:1005500024F002041460146844F00104146000E004
:100560005B1C546804F001041CB94FF6FF74A342ED
:10057000F6D1546804F001040CB900206CE08C79C9
:10058000012C04D1146844F08004146003E0146862
:1005900024F080041460CC79012C04D1146844F058
:1005A0004004146003E0146824F0400414600C7AE2
:1005B000012C04D1146844F02004146003E0146892
:1005C00024F0200414604C7A012C04D1146844F007
:1005D0001004146003E0146824F0100414608C7A92
:1005E000012C04D1146844F00804146003E014687A
:1005F00024F008041460CC7A012C04D1146844F06F
:100600000404146003E0146824F0040414608C787B
:10061000A407CD7844EA05640D7944EA05444D7990
:1006200044EA05540D886D1E2C43D461146824F0EF
:1006300001041460002300E05B1C546804F0010412
:100640001CB14FF6FF74A342F6D1546804F00104C4
:100650000CB1002000E0012030BD10B50021837AEC
:10066000012202FA03F1AC4A126842F00102AA4BDD
:100670001A60A94A1C3212688A43A74B1C331A60BD
:10068000027BCAB9A44A0C3212688A43A24B0C33CB
:100690001A604288C38842EA03439F4A4032847A00
:1006A00042F834300288838842EA03439A4A40324F
:1006B000847A02EBC4025360027B012A19D1964A64
:1006C0000C3212680A43944B0C331A604288038838
:1006D00042EA0343904A4032847A42F83430C28876
:1006E000838842EA03438C4A4032847A02EBC40294
:1006F0005360C27A3AB9884A121D12688A43864BFF
:100700001B1D1A6006E0844A121D12680A43824BC0
:100710001B1D1A60028932B97F4A143212688A435B
:100720007D4B14331A600289012A06D17A4A1432A9
:1007300012680A43784B14331A60427B012A06D1AF
:10074000754A1C3212680A43734B1C331A60724A92
:10075000126822F00102704B1A6010BD00218171F5
:10076000C171017241728172C1728170C1700321C5
:1007700001710221417101210180704766490968B8
:1007800041F00101644A11601146096843F60E7296
:100790009143614A11601146096841EA00211160E4
:1007A0001146096821F001011160704721B102680A
:1007B00042F48032026003E0026822F48032026078
:1007C0007047E1B1026842F0800202604FF4C272E9
:1007D000125842F480734FF4C27213504FF4CA722D
:1007E000125842F480734FF4CA7213504FF4D2720D
:1007F000125842F480734FF4D27213501BE0026817
:1008000022F0800202604FF4C272125822F4807308
:100810004FF4C27213504FF4CA72125822F480730C
:100820004FF4CA7213504FF4D272125822F48073EC
:100830004FF4D2721350704710B5024600209368EF
:1008400003F08063B3F1806F00D110E0936803F090
:100850000063B3F1006F01D1012008E0936803F059
:100860008053B3F1805F01D1022000E0042004280E
:1008700079D002F5C07303EB00131B6803F0010489
:1008800002F5C07303EB00131C600B7A7BB94B7A43
:100890000C8843EA445302F5C07404EB0014246846
:1008A000234302F5C07404EB0014236010E00B7ABC
:1008B0004C6843EAC4034C7A234302F5C07404EB4A
:1008C00000142468234302F5C07404EB0014236071
:1008D0008B7A03F00F038B7202F5C07303EB0013E6
:1008E0005B6823F00F0402F5C07303EB00135C6038
:1008F00002F5C07303EB00135B688C7A234302F5A7
:10090000C07404EB001463608B7B1C064B7B44EAD1
:10091000034403E000640040006600400B7B44EAAF
:100920000323CC7A234302F5C07404EB0014A360C4
:100930008B7C1C064B7C44EA03440B7C44EA032377
:10094000CC7B234302F5C07404EB0014E36002F592
:10095000C07303EB00131B6843F0010402F5C0737E
:1009600003EB00131C6010BD10B50246002321B13B
:10097000012907D002290FD109E09068F94C00EA5B
:1009800004030BE09068F84C00EA040306E090686A
:10099000F64C00EA040301E0002300BF00BFF44C62
:1009A000181BA34216D007DC83B16FF08060184497
:1009B00070B1022818D111E0B0F5007F10D0ED4CD5
:1009C000204448B1B0F5003F0ED10BE002230DE00A
:1009D00000230BE0002309E0002307E0012305E0EA
:1009E000012303E0012301E0002300BF00BFD8B2D0
:1009F00010BD21B1012907D002290FD109E0826879
:100A000042F0800282600AE0826842F40042826022
:100A100005E0826842F40002826000E000BF00BF8F
:100A2000704710B500F5D87303EB01131B6803F092
:100A300004031372137A53B900F5D87303EB01134F
:100A40001B6840F2FF7404EA5353136009E000F599
:100A5000D87303EB01131B686FF0604404EAD303FF
:100A6000536000F5D87303EB01131B6803F0020316
:100A7000537200F5D87303EB01135B6803F00F03A7
:100A8000937200F5D87303EB01135B681B0AD374F0
:100A900000F5D87303EB01139B68D37200F5D8738C
:100AA00003EB01139B681C0A147300F5D87303EB66
:100AB00001139B681C0C547300F5D87303EB0113EE
:100AC0009B681B0E937300F5D87303EB0113DB686F
:100AD000D37300F5D87303EB0113DB681C0A14749D
:100AE00000F5D87303EB0113DB681C0C547400F59C
:100AF000D87303EB0113DB681B0E937421B9C36831
:100B000043F02003C36003E0036943F02003036163
:100B100010BD21B9C26842F02002C26003E0026940
:100B200042F02002026170470246002019B9D368E2
:100B300003F0030006E0012903D1136903F0030069
:100B400000E00020704710B502460B4600204FF62B
:100B5000FF71BBB9146824F0020444F0010414606E
:100B600000E0491E546804F00304012C01D0002960
:100B7000F7D1546804F00304012C01D0002032E0C6
:100B8000012030E0012B13D1146824F00304146019
:100B900000E0491E546804F003040CB10029F8D1A8
:100BA000546804F003040CB100201CE001201AE09A
:100BB000022B17D1146824F0010444F002041460DD
:100BC00000E0491E546804F00304022C01D00029FF
:100BD000F7D1546804F00304022C01D0002002E095
:100BE000012000E0002010BD014600200A6822F02C
:100BF000010242F002020A604A6802F00302022A7D
:100C000000D10120704701464FF6FF7200200B68AB
:100C100023F002030B6000E0521E4B6803F0020356
:100C2000022B01D1002AF7D14B6803F00203022BFB
:100C300000D001207047014600208A6902F0700050
:100C40007047014600208A69100E70470146002057
:100C50008A69C2F3074070471AB143690B43436185
:100C600002E043698B434361704710B502460020A0
:100C700001F4700343B19369C1F3130423400BB132
:100C800001202DE000202BE001F0807343B1536878
:100C9000C1F3130423400BB1012021E000201FE029
:100CA00001F0006343B19368C1F3130423400BB117
:100CB000012015E0002013E001F0007343B1D36878
:100CC000C1F3130423400BB1012009E0002007E029
:100CD0001369C1F3130423400BB1012000E000208D
:100CE00010BD0022244B994202D10023836111E000
:100CF000C1F3130201F000730BB1C2600AE001F00E
:100D000080630BB1026105E001F000630BB182600A
:100D100000E0426070470246002002EA01030BB186
:100D2000012000E00020704770B504460D46002603
:100D300060692840002872D0B5F5807F69D01DDC3D
:100D4000082D42D006DC012D2DD0022D31D0042DEE
:100D50007FD134E0102D3ED0202D42D0402D78D1CF
:100D600045E0000003000004000300080000031039
:100D7000000100080001FFF77000F030B5F5004FEA
:100D800061D009DCB5F5007F4AD0B5F5806F4DD054
:100D9000B5F5006F5DD150E0B5F5803F2DD0B5F5CC
:100DA000003F56D12FE0A0685549FFF7B4FF064633
:100DB00051E0E0680321FFF7AEFF06464BE0E06834
:100DC0000821FFF7A8FF064645E0E0681021FFF77D
:100DD000A2FF06463FE020690321FFF79CFF06467D
:100DE00039E020690821FFF796FF064633E02069C5
:100DF0001021FFF790FF06462DE060680821FFF7FD
:100E00008AFF064627E060681021FFF784FF064648
:100E100021E0A0690121FFF77EFF06461BE01BE0F1
:100E2000A0690221FFF777FF064614E0A0690421BC
:100E3000FFF771FF06460EE00BE0A0697021FFF797
:100E40006AFF064607E060680421FFF764FF064674
:100E500001E0002600BF00E00026304670BDB1F57D
:100E6000007F3AD00FDC202928D006DC01291CD0D5
:100E700004291DD0082940D11DE0402921D0B1F519
:100E8000807F3AD126E0B1F5004F31D006DCB1F5D4
:100E9000806F25D0B1F5006F2FD124E0B1F5803FF0
:100EA00012D0B1F5003F28D111E0154A826025E04B
:100EB0000822C26022E01022C2601FE00822026104
:100EC0001CE01022026119E00822426016E01022A4
:100ED000426013E00422426010E0042242600DE010
:100EE000042242600AE0002282610422426005E09E
:100EF000002282610422426000E000BF00BF704710
:100F000001010100002041490860091D0860091D18
:100F10000860091D08603E483C491431086070476C
:100F200000213A498279002A3AD00A4612680368B9
:100F30009A430B461A600A1D126803689A430B1DF8
:100F40001A60027911440A6803681A430A602F4A3A
:100F50000832126803689A432C4B08331A601A1D32
:100F6000126803689A43294B0C331A604279102A9D
:100F70000ED11A1F126803681A43244B08331A60F3
:100F80001A1D126803681A43204B0C331A600DE0D7
:100F90001E49427911440A6803681A430A6005E051
:100FA000027911440A6803689A430A607047002175
:100FB000016001710C214171002181717047134959
:100FC000103109680143114A10321160704701461F
:100FD00000200E4A143212680A400AB1012000E0D3
:100FE000002070470949143108607047014600200D
:100FF000064A143212680A400AB1012000E00020BB
:10100000704702491431086070470000003C0140FD
:10101000FFFF7F0010B504469848844208D10121A3
:10102000084600F0B3FD0021012000F0AFFD76E09E
:101030009348844208D10121022000F0A7FD00213D
:10104000022000F0A3FD6AE08E48844208D101210D
:10105000042000F09BFD0021042000F097FD5EE0DD
:101060008948844208D10121082000F08FFD002129
:10107000082000F08BFD52E08448844208D1012111
:10108000102000F083FD0021102000F07FFD46E0DD
:101090007F48844208D10121202000F077FD002103
:1010A000202000F073FD3AE07A48844208D1012103
:1010B000402000F06BFD0021402000F067FD2EE095
:1010C0007548844208D10121802000F05FFD002195
:1010D000802000F05BFD22E07048844208D10121AD
:1010E000801500F053FD0021A01500F04FFD16E023
:1010F0006B48844208D10121401500F047FD0021D2
:10110000601500F043FD0AE06648844207D10121E2
:10111000001500F03BFD0021201500F037FD10BD4B
:10112000F0B50A4600210023002400BF3DE0012560
:1011300005FA01F3156805EA03049C4234D10568F9
:101140004F000326BE40B543056015794E00B540FB
:101150000668354305601579012D02D01579022DF9
:1011600016D185684F000326BE40B543856055798A
:101170004E00B540866835438560456801268E403F
:10118000B5434560456896798E40B6B235434560B3
:10119000C5684F000326BE40B543C560D5794E00F3
:1011A000B540C6683543C560491C1029BFD3F0BDA2
:1011B0004FF6FF7101600021017141718171C171B0
:1011C000704708B54FF480320092009A0A430092AB
:1011D000009AC261C161009AC261C2690092C2698B
:1011E000009208BD0246002013690B400BB101209C
:1011F00000E0002070470146086980B2704702464F
:10120000002053690B400BB1012000E00020704723
:101210000146486980B27047018370474183704737
:101220000AB1018300E04183704741617047426920
:101230004A4042617047F0B5002300244D07ED0E8F
:1012400002FA05F3CE1000F1200555F826504E079E
:10125000F70E0F26BE40B543CF1000F1200646F82A
:101260002750CE1000F1200555F8265045EA03041A
:10127000CE1000F1200545F82640F0BD00000240E8
:101280000004024000080240000C0240001002402E
:101290000014024000180240001C024000200240DE
:1012A000002402400028024010B50446F848844259
:1012B00009D10121480500F09CFC00214FF40010E9
:1012C00000F097FC18E0F348844209D10121880519
:1012D00000F08FFC00214FF4800000F08AFC0BE04E
:1012E000ED48844208D10121C80500F082FC0021AC
:1012F0004FF4000000F07DFC10BD2DE9FF470446CF
:101300000D460026B1460427DFF89083A6884FF6E5
:10131000C0700640684600F0FFFADDF80880E0483B
:10132000B8FBF0F01FFA80F946EA0906A68020888B
:101330004FF6FE71084020800026DA49286888426E
:101340000CD828684000B8FBF0F087B2042F00DA10
:1013500004273E4309F10100208427E0E8884BF68A
:10136000FF71884206D1286800EB4000B8FBF0F01E
:1013700087B209E0286800EBC00101EB0010B8FB60
:10138000F0F087B247F48047C7F30B0008B947F085
:10139000010747F4004006434FF4967009FB00F044
:1013A0004FF47A7190FBF1F0401C2084A6832088D2
:1013B00040F00100208026884FF6F5300640A888CE
:1013C0006989084306432680A88929890843208122
:1013D000BDE8FF8741F288310160002181804BF632
:1013E000FF71C1800021018141814FF480418181E1
:1013F000704721B1028842F00102028004E00288B5
:101400004FF6FE731A400280704729B1828C4FF666
:10141000EF731A40828403E0828C42F010028284CF
:1014200070470A460021818C4FF6F073194002F094
:101430000F0319438184704721B1028842F48072FE
:10144000028004E002884FF6FF631A400280704772
:1014500021B1028842F40072028004E002884FF653
:10146000FF531A400280704712B141F0010101E0C0
:1014700001F0FE010182704721B1028842F48062CE
:10148000028004E002884FF6FF331A400280704762
:101490000A46002181894FF60173194002F0FE03CC
:1014A00019438181704721B1828942F00102828112
:1014B00004E082894FF6FE731A408281704721B1A1
:1014C000028842F04002028004E002884FF6BF73B7
:1014D0001A400280704721B1028842F40042028023
:1014E00003E00288C2F30E020280704721B902882D
:1014F00042F08002028004E002884FF67F731A40B7
:1015000002807047B1F5804F05D0828B4BF6FF7398
:101510001A40828303E0828B42F4804282837047C8
:10152000B1F5006F04D1028842F40062028004E049
:1015300002884FF2FF731A4002807047B1F5005FD6
:1015400004D1028842F40052028004E002884DF681
:10155000FF731A400280704721B1028842F01002E6
:10156000028004E002884FF6EF731A400280704751
:10157000018270470146088AC0B2704721B10288D3
:1015800042F48052028004E002884EF6FF731A4053
:1015900002807047B1F5006F04D1028842F4006206
:1015A000028004E002884FF2FF731A400280704705
:1015B00021B1028842F02002028004E002884FF646
:1015C000DF731A40028070470146088B0012704793
:1015D00021B1828842F40062828004E082884FF266
:1015E000FF731A408280704721B1828842F4805292
:1015F000828004E082884EF6FF731A408280704732
:1016000008B502460020009000920098084400901F
:101610000098008808BD1AB183880B43838002E0DC
:1016200083888B438380704770B502460024002571
:1016300000230020958A138B1B0445EA030626F03D
:101640007F4404EA01068E4201D1012000E000201F
:1016500070BD10B501460020002300228B8A0A8B42
:10166000120443EA020424F07F4010BD0CB5024688
:10167000002000230193009300920B0F019321F0AF
:101680007F41019B83B1009B1433009310E0000065
:101690000054004000580040005C004000127A00F6
:1016A00040420F00A0860100090C009B18330093F4
:1016B000009B1B680B400BB1012000E000200CBD1B
:1016C000002221F07F42D3438382704730B5024627
:1016D00000200023948801F0E06504EA154321F01E
:1016E0007F41948A0C4014B10BB1012000E000202E
:1016F00030BD002221F07F42D34383827047000037
:10170000F648006840F00100F44908600020F34901
:1017100008310860F1480068F1490840EF49086065
:10172000F048091D0860F048EC4984310860ED4834
:101730001038091D0860E948006820F48020E74956
:1017400008600020E5490C310860E4498C310860EC
:1017500070470021E14A921C1170114608707047D1
:1017600010B501460022002300204A11012A02D1AF
:10177000DA4C236808E0022A03D1D84C703423687D
:1017800002E0D64C7434236801F01F020124944017
:101790001C400CB1012000E0002010BD38B5002035
:1017A00000900024002500BF3120FFF7D9FF054637
:1017B0000098401C00900098B0F5A04F01D0002D7B
:1017C000F2D03120FFF7CCFF08B1012400E0002463
:1017D000204638BD01460020C04A106820F0F800BD
:1017E00040EAC10010607047C0490860704700219E
:1017F000BA4A703211701170012802D004280AD13F
:1018000004E00121B54A7032117005E00521B34AA8
:101810007032117000E000BF00BF7047B44908602B
:10182000704770B5049C41EA82150126C6EB530649
:1018300045EA0645054345EA0465A84E361D356070
:1018400070BDAA490866704710B5830143EA016379
:1018500043EA0273A14C8434236010BDA349886617
:10186000704710B5830143EA016343EA02739B4C5E
:101870008834236010BD9D49086770479B49C86440
:10188000704702460020954B0833186820F0EC6042
:1018900042EA01031843914B08331860704702462F
:1018A00000208E4B0833186820F0784042EA01038C
:1018B00018438A4B08331860704701460020874A56
:1018C0000832106820F00300084310607047834816
:1018D0000830006800F00C007047014600207F4A85
:1018E0000832106820F0F00008431060704701468D
:1018F00000207A4A0832106820F4E0500843106053
:10190000704701460020754A0832106820F4604094
:1019100040EAC10010607047F0B5002100220024A9
:101920000225002602236D4F08373F6807F00C019F
:1019300021B1042905D0082937D105E06D4F076092
:1019400036E06D4F076033E0644F3F1D3F68C7F3DB
:101950008056624F3F1D3F6807F03F036EB1664FF0
:10196000B7FBF3F7DFF874C10CF1040CDCF800C02E
:10197000CCF3881C07FB0CF40CE05E4FB7FBF3F7CD
:10198000DFF858C10CF1040CDCF800C0CCF3881C63
:1019900007FB0CF4514F3F1D3F68C7F301477F1C05
:1019A0007D00B4FBF5F7076002E0524F076000BF0F
:1019B00000BF4A4F08373F6807F0F00109094F4F51
:1019C0007A5C0768D7404760444F08373F6807F4A0
:1019D000E051890A494F7A5C4768D74087603F4F9A
:1019E00008373F6807F46041490B444F7A5C476809
:1019F000D740C760F0BD002100F44072B2F5407FCF
:101A00000AD1364A0832116821F4F8113C4A0240E2
:101A10001143324A08321160304A70321268C0F302
:101A20000B031A432D4B70331A6070473049443909
:101A3000086070472E494039086070473149086096
:101A4000704701460020254A8C32106820F01F00A4
:101A50004A1E1043214A8C32106070470146002014
:101A60001E4A8C32106820F4F8504A1E40EA0220C8
:101A70001A4A8C321060704701460020174A8C3297
:101A8000106820F4401008431060704701460020A1
:101A9000124A8C32106820F44000084310607047EE
:101AA000014600200D4A8C32106820F44030084373
:101AB0001060704714490860704739B1074A3032E6
:101AC00012680243054B30331A6006E0034A303295
:101AD00012688243014B30331A607047003802406D
:101AE000FFFFF6EA103000240030002000004742DB
:101AF000800E47420024F40000127A0014000020F7
:101B0000FFFCFF0F5C014742E011474229B1934AB5
:101B100012680243914B1A6004E0904A12688243B3
:101B20008E4B1A60704739B18C4A121D12680243FD
:101B30008A4B1B1D1A6006E0884A121D12688243F8
:101B4000864B1B1D1A60704739B1844A0C321268EB
:101B50000243824B0C331A6006E0804A0C32126852
:101B600082437E4B0C331A60704739B17B4A103286
:101B700012680243794B10331A6006E0774A10323C
:101B800012688243754B10331A60704739B1734A3B
:101B9000243A12680243714B243B1A6006E06F4AF4
:101BA000243A126882436D4B243B1A60704739B166
:101BB0006A4A203A12680243684B203B1A6006E0EA
:101BC000664A203A12688243644B203B1A60704791
:101BD00039B1624A1C3A12680243604B1C3B1A60DE
:101BE00006E05E4A1C3A126882435C4B1C3B1A605A
:101BF000704739B1594A143A12680243574B143BA3
:101C00001A6006E0554A143A12688243534B143B5B
:101C10001A60704739B1514A103A126802434F4B6B
:101C2000103B1A6006E04D4A103A126882434B4B53
:101C3000103B1A60704739B1484A1C32126802439F
:101C4000464B1C331A6006E0444A1C321268824339
:101C5000424B1C331A60704739B1404A2032126837
:101C600002433E4B20331A6006E03C4A20321268A1
:101C700082433A4B20331A60704739B1374A2432D5
:101C800012680243354B24331A6006E0334A24328B
:101C900012688243314B24331A60704739B12F4A9E
:101CA0002C32126802432D4B2C331A6006E02B4A6B
:101CB0002C3212688243294B2C331A60704739B199
:101CC000264A303212680243244B30331A6006E051
:101CD000224A303212688243204B30331A607047F8
:101CE000012808D11D493C31096841F008011B4A0F
:101CF0003C32116007E019493C31096821F00801C4
:101D0000164A3C321160704739B1144A273A1278AA
:101D10000243124B273B1A7006E0104A273A12780A
:101D200082430E4B273B1A7070470C4840300068C6
:101D300040F080700949403108607047014600203A
:101D4000064A283A12680A400AB1012000E0002041
:101D50007047024926390870704700003438024045
:101D600010B501218803FFF755FF00214FF4804093
:101D7000FFF750FF10BD1C49086070471B490862FF
:101D8000704730B500228B071C0F0F2303FA04F2B3
:101D9000154B08338C1053F824309343124C0834FD
:101DA0008D1044F8253023468C1053F824308C07CE
:101DB000240F00FA04F423430B4C08348D1044F82C
:101DC000253030BD0949DC3108607047084908609A
:101DD0007047002004492031096801F4807109B17D
:101DE000012000E000207047003801400000274239
:101DF0000004274210B50446FE48844208D1012160
:101E00000846FFF707FF00210120FFF703FF9DE0D1
:101E1000B4F1804F08D101210846FFF7EAFE002106
:101E20000120FFF7E6FE91E0F348844208D101214A
:101E30000220FFF7DEFE00210220FFF7DAFE85E038
:101E4000EE48844208D101210420FFF7D2FE002190
:101E50000420FFF7CEFE79E0E948844208D1012151
:101E60000820FFF7C6FE00210820FFF7C2FE6DE044
:101E7000E448844208D101211020FFF7BAFE002176
:101E80001020FFF7B6FE61E0DF48844208D101214F
:101E90002020FFF7AEFE00212020FFF7AAFE55E02C
:101EA000DA48844208D101210220FFF7B3FE002165
:101EB0000220FFF7AFFE49E0D548844209D1012155
:101EC0000804FFF7A7FE00214FF48030FFF7A2FEC1
:101ED0003CE0D048844209D101214804FFF79AFE32
:101EE00000214FF40030FFF795FE2FE0CA488442EE
:101EF00009D101218804FFF78DFE00214FF48020D5
:101F0000FFF788FE22E0C548844208D10121402025
:101F1000FFF76FFE00214020FFF76BFE16E0C04880
:101F2000844208D101218020FFF763FE0021802038
:101F3000FFF75FFE0AE0BB48844207D1012180150C
:101F4000FFF757FE0021A015FFF753FE10BD00223A
:101F50000288A84B98420ED0AC4B98420BD0B0F1FF
:101F6000804F08D0A44B984205D0A44B984202D091
:101F7000A34B984204D14FF68F731A404B881A43F3
:101F8000A04B984207D0A04B984204D04FF6FF4395
:101F90001A400B891A4302804B68C3620B88038581
:101FA000944B984202D0994B984201D18B7A038688
:101FB0000123838270474FF0FF314160002101808F
:101FC00001814180817270470185828270470A4693
:101FD000002101884FF68F7319401143018070472B
:101FE00041627047C16270470146486A70470146C6
:101FF000088D704721B1028842F00202028004E09D
:1020000002884FF6FD731A400280704721B10288A2
:1020100042F00402028004E002884FF6FB731A408B
:102020000280704721B1028842F08002028004E001
:1020300002884FF67F731A400280704702884FF67D
:10204000F7731A40028002880A43028070470288B0
:102050004FF6FF431A40028002880A43028070470D
:1020600021B1028842F00102028004E002884FF6AA
:10207000FE731A400280704770B5002400220023CE
:10208000058C4FF6FE7635400584028C8388048BE0
:102090004FF68F752C40B51E2C400D882C43751EB5
:1020A0002A408D892A434D882A43524DA84202D0A6
:1020B000564DA84213D14FF6F7752A40CD892A43D1
:1020C0004FF6FB752A408D882A434FF6FF652B405B
:1020D0004FF6FF552B400D8A2B434D8A2B438380AF
:1020E00004838D684563028470BD70B500240022AE
:1020F0000023058C4FF6EF7635400584028C8388EB
:10210000048B48F6FF752C404FF6FF452C400D8898
:102110004FF6FF7606EA05252C434FF6DF752A4079
:102120008D8906EA05152A434D8806EA05152A43D6
:10213000304DA84202D0354DA8421DD14FF67F75D3
:102140002A40CD894FF6FF7606EA05152A434FF659
:10215000BF752A408D8806EA05152A434FF6FF35DC
:102160002B404FF2FF752B400D8A06EA85052B4365
:102170004D8A06EA85052B43838004838D68856339
:10218000028470BD70B5002400220023058C4FF638
:10219000FF6635400584028C8388848B4FF68F75EB
:1021A0002C404FF6FC752C400D882C434FF6FF5504
:1021B0002A408D894FF6FF7606EA05252A434D8889
:1021C00006EA05252A430B4DA84202D00F4DA8422E
:1021D00038D14FF2FF752A40CD894FF6FF7606EAD7
:1021E00005252A434FF6FF352A408D8806EA052546
:1021F0002A4319E0000001400004004000080040AC
:10220000000C004000100040001400400004014099
:1022100000400140004401400048014000180040D7
:10222000001C0040002000404EF6FF752B404DF68C
:10223000FF752B400D8A06EA05152B434D8A06EAE9
:1022400005152B43838084838D68C563028470BD2C
:1022500070B5002200230024058C4EF6FF76354031
:102260000584038C8488828B48F6FF752A404FF6DC
:10227000FF452A400D884FF6FF7606EA05252A43DA
:102280004DF6FF752B408D8906EA05352B434D88A9
:1022900006EA05352B43FE4DA84202D0FD4DA8426B
:1022A00008D14BF6FF752C400D8A4FF6FF7606EAF3
:1022B00085152C43848082838D680564038470BDFA
:1022C000002101804180818081608181C181018202
:1022D0004182704770B5034600200024184618302C
:1022E00001258D40ACB21D8CA5431D8409B1082980
:1022F0000AD100EB610005684FF68F763540056026
:102300000568154305600FE00D1FC5F34E05284411
:10231000056848F6FF763540056005684FF6FF769C
:1023200006EA02263543056070BD4163704781634C
:102330007047C1637047016470470A460021018BF2
:102340004FF68F7319401143018370470A460021ED
:10235000018B48F6FF7319404FF6FF7303EA02231F
:102360001943018370470A460021818B4FF68F7312
:1023700019401143818370470A460021818B48F63A
:10238000FF7319404FF6FF7303EA02231943818359
:1023900070470A460021018B4FF6F773194011432D
:1023A000018370470A460021018B4FF2FF731940E9
:1023B0004FF6FF7303EA02231943018370470A466D
:1023C0000021818B4FF6F7731940114381837047C9
:1023D0000A460021818B4FF2FF7319404FF6FF73BD
:1023E00003EA02231943818370470A460021018BC7
:1023F0004FF6FB7319401143018370470A460021D1
:10240000018B4FF6FF3319404FF6FF7303EA0223A7
:102410001943018370470A460021818B4FF6FB73F5
:1024200019401143818370470A460021818B4FF682
:10243000FF3319404FF6FF7303EA022319438183E8
:1024400070470A460021018B4FF67F7319401143F4
:10245000018370470A460021018BC1F30E014FF63C
:10246000FF7303EA02231943018370470A460021E0
:10247000818B4FF67F7319401143818370470A4661
:102480000021818BC1F30E014FF6FF7303EA022393
:102490001943818370470A460021018C4FF6FD7372
:1024A00019401143018470470A460021018C4FF600
:1024B000F77319401143018470470A460021018CCB
:1024C0004FF6DF7319404FF6FF7303EA0213194307
:1024D000018470470A460021018C4FF67F73194032
:1024E0004FF6FF7303EA02131943018470470A464B
:1024F0000021018C4FF6FF5319404FF6FF7303EA9A
:1025000002231943018470470A460021018C4FF2CF
:10251000FF7319404FF6FF7303EA02231943018446
:1025200070470A460021018C4DF6FF7319404FF6A3
:10253000FF7303EA023319430184704730B5002367
:1025400001248C40A3B2048C9C430484048C02FAC2
:1025500001F5ADB22C43048430BD30B50023042412
:102560008C40A3B2048C9C430484048C02FA01F5D1
:10257000ADB22C43048430BD828B4FF2FF331A403E
:102580008283828B4FF6FF7303EA01231A4382830F
:102590007047F0B50C461546002100220026078C36
:1025A0004EF6FF7C07EA0C070784818B028C4FF6FE
:1025B000FF7707EA043640F6FF4739404FF6FF77CA
:1025C00007EA052739434FF6FF7707EA0337394310
:1025D00045F6FF773A4046F480573A4381830284B8
:1025E000F0BD828B4FF6F3731A408283828B0A43CD
:1025F00082837047F0B50C46154600210022002664
:10260000078C4FF6FF6C07EA0C070784818B028C5E
:102610004FF6FF7707EA04264FF60C7739404FF65E
:10262000FF7707EA03172F4339434FF2FF573A402A
:1026300046F480773A4381830284F0BD028B4FF2E7
:10264000FF331A400283028B4FF6FF7303EA012324
:102650001A4302837047F0B50C461546002100224C
:102660000026078C4FF6EF7C07EA0C070784018BE6
:10267000028C4FF6FF7707EA041640F6FF47394011
:102680004FF6FF7707EA033739434FF6FF7703E04A
:10269000000001400004014007EA052739434FF6D6
:1026A0005F773A4046F010073A4301830284F0BD59
:1026B000028B4FF6F3731A400283028B0A430283A4
:1026C0007047F0B50C46154600210022068C4FF6E7
:1026D000FE773E400684018B028C4FF60C7631402B
:1026E0007E1C06EA03162E4331434FF6F576324040
:1026F00044F00106324301830284F0BD70B5054603
:102700000C46208850B92389A28861882846FFF7A3
:10271000D8FFE1882846FFF7CBFF25E02088042872
:102720000AD12389A28861882846FFF794FFE188AF
:102730002846FFF783FF17E0208808280AD123895D
:10274000A28861882846FFF755FFE1882846FFF7F1
:1027500048FF09E02389A28861882846FFF719FF0E
:10276000E1882846FFF708FF70BD00210180418005
:10277000012181800021C180018170472DE9F04154
:1027800005460C4600260127608808B9022600E0AD
:102790000026A088012801D1022700E00127208817
:1027A000A0B92389A28861882846FFF78AFFE188BB
:1027B0002846FFF77DFF23893A4631462846FFF732
:1027C0004AFFE1882846FFF739FF13E02389A288F2
:1027D00061882846FFF73FFFE1882846FFF72EFF74
:1027E00023893A4631462846FFF76BFFE1882846A1
:1027F000FFF75EFFBDE8F0810146486B7047014678
:10280000886B70470146C86B70470146086C70477B
:102810000A884B881A438B881A43CB881A430B8942
:102820001A434B891A438B891A43A0F844207047F6
:102830000021018041808180C180018141818181AD
:10284000704731B1B0F8442042F40042A0F844206F
:1028500005E0B0F84420C2F30E02A0F8442070470F
:1028600021B1828842F00402828004E082884FF61F
:10287000FB731A408280704721B1828842F00102C6
:10288000828004E082884FF6FE731A40828070478F
:102890001AB183890B43838102E083898B4383814F
:1028A00070478182704702460020138A0B400BB1AB
:1028B000012000E000207047CA430282704730B513
:1028C0000246002000230024158A05EA01039589A9
:1028D00005EA010413B10CB1012000E0002030BD75
:1028E000CA430282704741EA0203A0F848307047A9
:1028F0001AB183890B43838102E083898B438381EF
:10290000704721B1828842F00802828004E0828808
:102910004FF6F7731A408280704701894FF6F872BC
:102920001140018170470A46002101894FF68F73DB
:10293000194011430181704730B504460D462946C0
:102940002046FFF7F0FF208940F00700208130BDCE
:102950002DE9F04104460D4616461F46602D06D16E
:102960003B46012231462046FFF775FE05E03B4617
:10297000012231462046FFF7A4FE29462046FFF7F4
:10298000D2FF208940F007002081BDE8F08130B5FA
:102990000C4600210189C9B24FF6FF7505EA0325EF
:1029A000154325432943018130BD2DE9F0410546FA
:1029B0000E4617469846002443463A463146284676
:1029C000FFF7E5FF2C894FF6F870044044F0070448
:1029D0004FF68F70044044F070042C81BDE8F08104
:1029E000F0B504460D4616461F463B46324629467C
:1029F0002046FFF7CCFF208940F480402081F0BDC5
:102A000082884FF68F731A40828082880A438280C0
:102A1000704702894FF6F8731A40028102890A430F
:102A20000281704702894FF67F731A400281028942
:102A30000A4302817047F0B50C4615461E46002138
:102A4000002200230189028B038C4FF6F87739406E
:102A500021434FF6FC473A4040F201173A434FF604
:102A6000DD773B404FF6FF7707EA06172F433B43DE
:102A7000018102830384F0BD21B1828842F080028B
:102A8000828004E082884FF67F731A40828070470C
:102A9000A0F850107047000010B50446FA48844270
:102AA00008D101211020FFF7B5F800211020FFF711
:102AB000B1F857E0F548844209D101214804FFF7F5
:102AC00098F800214FF40030FFF793F84AE0F048FF
:102AD000844209D101218804FFF78BF800214FF4CB
:102AE0008020FFF786F83DE0EA48844209D10121C1
:102AF000C804FFF77EF800214FF40020FFF779F8B3
:102B000030E0E548844209D101210805FFF771F85A
:102B100000214FF48010FFF76CF823E0DF48844277
:102B200008D101212020FFF775F800212020FFF7B0
:102B300071F817E0DA48844209D101218807FFF7CC
:102B400058F800214FF08040FFF753F80AE0D548CD
:102B5000844207D101214005FFF74BF800216005B1
:102B6000FFF747F810BD2DE9FF4705460E46002444
:102B7000A14600BFA046B08900B100BF2C8A24F452
:102B80004054F08804432C82AC8941F20C608443A9
:102B9000B08831890843718908430443AC81AC8A09
:102BA00024F44074B0890443AC826846FEF7B4FE56
:102BB000B548854202D0B948854202D1DDF80C9073
:102BC00001E0DDF80890A88900F4004040B109EB6D
:102BD000C90000EB091031684900B0FBF1F707E0CC
:102BE00009EBC90000EB091031688900B0FBF1F76F
:102BF0006420B7FBF0F004012009642101FB107888
:102C0000A88900F4004040B1322000EBC800B0FBBE
:102C1000F1F000F00700044308E0322000EB081058
:102C20006421B0FBF1F000F00F0004432C81BDE8FB
:102C3000FF874FF41651016000218180C18001811E
:102C40000C21418100218181704710B5024600208E
:102C5000108A20F470600B884C8823438C882343AF
:102C6000CC8823431843108210BD0021018041808D
:102C70008180C180704721B1828942F400528281F3
:102C800004E082894DF6FF731A4082817047028BFF
:102C900002F47F420283028B0A430283704721B110
:102CA000828942F40042828103E08289C2F30E02EB
:102CB0008281704721B1828A42F40062828204E0FC
:102CC000828A4FF2FF731A4082827047C1F3080272
:102CD0008280704701468888C0F308007047028AE6
:102CE0004FF6F0731A400282028A0A43028270474A
:102CF00021B1828942F00202828104E082894FF68A
:102D0000FD731A408281704782894FF2FF731A4027
:102D1000828182890A4382817047028A4FF6DF737B
:102D20001A400282028A0A430282704721B1028A53
:102D300042F48042028204E0028A4BF6FF731A409A
:102D400002827047818941F001018181704721B180
:102D5000828A42F00802828204E0828A4FF6F77388
:102D60001A4082827047028BD2B20283028B42EAFF
:102D700001220283704721B1828A42F020028282BE
:102D800004E0828A4FF6DF731A408282704721B1D5
:102D9000828A42F01002828204E0828A4FF6EF7348
:102DA0001A4082827047828A4FF6FB731A408282F1
:102DB000828A0A438282704721B1828A42F00202EB
:102DC000828204E0828A4FF6FD731A408282704745
:102DD0001AB1838A0B43838202E0838A8B43838206
:102DE0007047F0B50346002400260025002040F679
:102DF0006A17B94200D100BF1846C1F3421401F06E
:102E00001F06012707FA06F5012C01D10C3004E05A
:102E1000022C01D1103000E014301AB107682F43A2
:102E2000076002E00768AF430760F0BD024600207C
:102E3000B1F5007F00D100BF13880B400BB101201A
:102E400000E00020704701F40072B2F5007F00D16D
:102E500000BFCA430280704770B5024600240023B9
:102E60000025002040F66A16B14200D100BFC1F330
:102E7000421501F01F03012606FA03F3012D13D1B9
:102E80009689334017E000000010014000440040E4
:102E900000480040004C0040005000400014014039
:102EA00000780040007C0040022D02D1168A334099
:102EB00001E0968A33400C12012606FA04F41688C3
:102EC000344013B10CB1012000E0002070BD10B5FA
:102ED0000022002340F66A14A14200D100BF0A126A
:102EE00001249440A3B2DC43048010BD3249014365
:102EF000324A1160704770B5002100230F22C47858
:102F00001CB32E4C246804F4E064C4F5E064C4F3FC
:102F10000721C1F10404E3B20A4144789C40E1B2C4
:102F20008478144021430C07210E254C0578615507
:102F3000047804F01F050124AC4005786D11AD0044
:102F400005F1E025C5F8004109E0047804F01F050B
:102F50000124AC401B4D0678761145F8264070BD23
:102F6000194A0A400243154B1B1F1A60704739B1BA
:102F7000124A121D12680243104B1B1D1A6006E014
:102F80000E4A121D126882430C4B1B1D1A607047BB
:102F9000042808D14FF0E021096941F004014FF005
:102FA000E022116107E04FF0E021096921F00401FE
:102FB0004FF0E022116170470000FA050CED00E0CF
:102FC00000E400E080E100E080FFFF1F01B5094957
:102FD0000098086000BF074800680028FBD108BDC2
:102FE0000448006820B103480068401E0149086099
:102FF000704700006406002010B50120FDF7F6FFC1
:1030000040B1F748007810B1F649086880470120C0
:10301000FDF7F7FF10BD10B50220FDF7E7FF40B147
:10302000EF48407810B1EF49486880470220FDF72B
:10303000E8FF10BD10B50420FDF7D8FF40B1E84807
:10304000807810B1E749886880470420FDF7D9FFF0
:1030500010BD10B50820FDF7C9FF40B1E048C078A9
:1030600010B1E049C86880470820FDF7CAFF10BDCD
:1030700010B51020FDF7BAFF40B1D948007910B162
:10308000D849086980471020FDF7BBFF10BD10B577
:103090002020FDF7ABFF40B1D148407910B1D149B4
:1030A000486980472020FDF7ACFF4020FDF79EFFD8
:1030B00040B1CB48807910B1CA4988698047402027
:1030C000FDF79FFF8020FDF791FF40B1C448C07914
:1030D00010B1C449C86980478020FDF792FF4FF4C2
:1030E0008070FDF783FF48B1BD48007A10B1BD493B
:1030F000086A80474FF48070FDF783FF4FF400703B
:10310000FDF774FF48B1B648407A10B1B549486A36
:1031100080474FF40070FDF774FF10BD10B54FF4F9
:103120008060FDF763FF48B1AD48807A10B1AD49CA
:10313000886A80474FF48060FDF763FF4FF40060BA
:10314000FDF754FF48B14FF40060FDF75AFFA44863
:10315000C07A10B1A349C86A80474FF48050FDF788
:1031600045FF48B19E48007B10B19E49086B8047DF
:103170004FF48050FDF745FF4FF40050FDF736FF48
:1031800048B19748407B10B19649486B80474FF44F
:103190000050FDF736FF4FF48040FDF727FF48B1A0
:1031A0008F48807B10B18F49886B80474FF48040F7
:1031B000FDF727FF4FF40040FDF718FF48B188489E
:1031C000C07B10B18749C86B80474FF40040FDF7C2
:1031D00018FF10BD1FB582B0044603982060049804
:1031E00060600020A06080492068884204D10121ED
:1031F0000846FEF762FC58E07C492068884204D10A
:1032000001210220FEF759FC4FE0794920688842ED
:1032100004D101210420FEF750FC46E075492068E6
:10322000884204D101210820FEF747FC3DE07249A5
:103230002068884204D101211020FEF73EFC34E0D2
:103240006E492068884204D101212020FEF735FC18
:103250002BE06B492068884204D101214020FEF711
:103260002CFC22E067492068884204D1012180209B
:10327000FEF723FC19E064492068884204D101214B
:103280008015FEF71AFC10E060492068884204D1DE
:1032900001214015FEF711FC07E05D4920688842D6
:1032A00003D101210015FEF708FC606800900020A2
:1032B0008DF8040002208DF805008DF8070069469E
:1032C0002068FDF72DFF204606B010BD7CB50446F2
:1032D0000D466068009000208DF8040002208DF8F3
:1032E00005008DF8075069462068FDF719FF7CBD81
:1032F00010B50446A28891B22068FDF773FF10B1A3
:103300000120A06001E00020A060A06810BD10B501
:103310000446A28891B22068FDF764FF10B1012035
:10332000A06001E00020A060A06810BD1FB582B0C1
:10333000044603982060049860600020A0602A4939
:103340002068884204D101210846FEF7B6FB72E0EE
:1033500026492068884204D101210220FEF7ADFBF6
:1033600069E023492068884204D101210420FEF746
:10337000A4FB60E01F492068884204D10121082095
:10338000FEF79BFB57E01C492068884204D10121CD
:103390001020FEF792FB4EE018492068884204D1C5
:1033A00001212020FEF789FB45E01549206888426D
:1033B00004D101214020FEF780FB3CE01149206848
:1033C000884204D101218020FEF777FB33E00E49CB
:1033D000206888421ED101218015FEF76EFB2AE08D
:1033E00090060020A00600200000024000040240D9
:1033F00000080240000C024000100240001402408D
:1034000000180240001C024000200240002402403C
:1034100000280240EA492068884204D10121401571
:10342000FEF74BFB07E0E7492068884203D1012102
:103430000015FEF742FB6068009001208DF8040043
:1034400000208DF8060002208DF8050000208DF880
:10345000070069462068FDF763FE204606B010BDF0
:1034600019B9828803685A8302E0828803681A8344
:1034700070470146086840694A68104008B1012059
:1034800070470020FCE730B504460D46294620462B
:10349000FFF7E6FF204630BD00B503461846FFF7AC
:1034A000E8FF00BD1FB586B0044607982060089865
:1034B00060600998A060A06810B90620E06028E06C
:1034C000A068012802D10720E06022E0A06802285D
:1034D00002D10820E0601CE0A068032802D1092086
:1034E000E06016E0A068042802D10A20E06010E045
:1034F000A068052805DBA068092802DC1720E06029
:1035000007E0A0680A2804DBA0680F2801DC282057
:10351000E060AD492068884204D101210846FEF7E9
:10352000CCFA58E0A9492068884204D10121022040
:10353000FEF7C3FA4FE0A6492068884204D1012172
:103540000420FEF7BAFA46E0A2492068884204D176
:1035500001210820FEF7B1FA3DE09F49206888422A
:1035600004D101211020FEF7A8FA34E09B4920681D
:10357000884204D101212020FEF79FFA2BE09849D0
:103580002068884204D101214020FEF796FA22E00B
:1035900094492068884204D101218020FEF78DFAE9
:1035A00019E091492068884204D101218015FEF775
:1035B00084FA10E082492068884204D10121401534
:1035C000FEF77BFA07E07F492068884203D101219A
:1035D0000015FEF772FA01218803FEF7C6FA60684B
:1035E000029002208DF80D0000208DF80E008DF85D
:1035F0000C008DF80F0002A92068FDF791FD7249BB
:103600002068884204D1217A0020FEF7BAFB58E0F6
:103610006E492068884204D1217A0120FEF7B1FB6F
:103620004FE06B492068884204D1217A0220FEF7DE
:10363000A8FB46E067492068884204D1217A03202C
:10364000FEF79FFB3DE064492068884204D1217A5F
:103650000420FEF796FB34E060492068884204D1DC
:10366000217A0520FEF78DFB2BE05D49206888421A
:1036700004D1217A0620FEF784FB22E05949206814
:10368000884204D1217A0720FEF77BFB19E05649D6
:103690002068884204D1217A0820FEF772FB10E0EE
:1036A00047492068884204D1217A0920FEF769FB46
:1036B00007E044492068884203D1217A0A20FEF7B6
:1036C00060FB6068049000208DF814000C208DF8D9
:1036D000150001208DF8160004A8FDF721FC207BC1
:1036E0008DF8040000208DF805008DF806000120FB
:1036F0008DF8070001A8FFF7FEFB20460AB010BDB9
:103700007CB504460D463949A06841F82050012097
:10371000374AA16850546068009000208DF804007A
:1037200008208DF8050001208DF806006846FDF799
:10373000F7FB7CBD7CB504460D462C49A06841F8DA
:10374000205001202A4AA16850546068009000204F
:103750008DF804000C208DF8050001208DF806007E
:103760006846FDF7DDFB7CBD7CB504460D461F4970
:10377000A06841F8205001201D4AA168505460689B
:10378000009000208DF8040010208DF80500012025
:103790008DF806006846FDF7C3FB7CBD7CB504468A
:1037A0000D466068009000208DF8040002208DF81E
:1037B00005008DF8075069462068FDF7B1FC7CBD17
:1037C00000240240002802400000024000040240A1
:1037D00000080240000C02400010024000140240A9
:1037E00000180240001C024000200240A0060020F9
:1037F0009006002030B5144800684FF47A72B0FB90
:10380000F2F1481EB0F1807F00D31BE0481E4FF05C
:10381000E022506150170F22002807DA13071D0E0F
:103820000A4B00F00F04241F1D5503E013071C0E64
:10383000074B1C5400BF00204FF0E022906107208E
:10384000106100BF30BD00000000002018ED00E056
:1038500000E400E010B50221FE48FFF730F848B15F
:10386000FD48007810B1FD49086880470221F948F9
:10387000FFF736F80421F748FFF721F848B1F6487A
:10388000407810B1F549486880470421F148FFF7B6
:1038900027F80821EF48FFF712F848B1EE48807882
:1038A00010B1EE49886880470821EA48FFF718F808
:1038B0001021E848FFF703F848B1E748C07810B195
:1038C000E649C86880471021E248FFF709F810BDB3
:1038D00010B50121DF48FEF7F2FF48B1E04800785B
:1038E00010B1E049086880470121DA48FEF7F8FF87
:1038F0000121DD48FEF7E3FF48B1D948407A10B115
:10390000D849486A80470121D748FEF7E9FF0221DC
:10391000D548FEF7D4FF48B1CF48807E10B1CF49DB
:10392000886E80470221D048FEF7DAFF10BD10B53F
:1039300001218807FEF7C3FF48B1C948407810B19C
:10394000C8494868804701218807FEF7C9FF02215E
:103950004807FEF7B4FF48B1BF48007910B1BF492E
:103960000869804702214807FEF7BAFF04210807CB
:10397000FEF7A5FF48B1B848407910B1B74948698A
:10398000804704210807FEF7ABFF0821C806FEF7B1
:1039900096FF48B1B048807910B1B0498869804736
:1039A0000821C806FEF79CFF10218806FEF787FF56
:1039B00048B1A948C07910B1A849C8698047102109
:1039C0008806FEF78DFF10BD10B50121A748FEF750
:1039D00076FF48B1A248807810B1A2498868804734
:1039E0000121A248FEF77CFF0221A048FEF767FFF5
:1039F00048B19948007A10B19849086A8047022175
:103A00009A48FEF76DFF04219848FEF758FF48B129
:103A10009148407A10B19149486A804704219348FF
:103A2000FEF75EFF08219148FEF749FF48B18A483A
:103A3000807A10B18949886A804708218B48FEF74F
:103A40004FFF10218948FEF73AFF48B18248C07AFB
:103A500010B18249C86A804710218448FEF740FFB0
:103A600010BD10B501218248FEF729FF48B17C48FE
:103A7000C07810B17B49C868804701217C48FEF7B7
:103A80002FFF02217A48FEF71AFF48B17248007BE7
:103A900010B17249086B804702217548FEF720FF7C
:103AA00004217348FEF70BFF48B16B48407B10B10F
:103AB0006A49486B804704216D48FEF711FF0821D1
:103AC0006B48FEF7FCFE48B16348807B10B1634948
:103AD000886B804708216648FEF702FF1021644882
:103AE000FEF7EDFE48B15C48C07B10B15B49C86B86
:103AF000804710215E48FEF7F3FE10BD10B501218E
:103B00005C48FEF7DCFE48B15548007910B15549D4
:103B10000869804701215748FEF7E2FE0221554817
:103B2000FEF7CDFE48B14C48007C10B14B49086C03
:103B3000804702214F48FEF7D3FE04214D48FEF78F
:103B4000BEFE48B14448407C10B14449486C8047AF
:103B500004214848FEF7C4FE08214648FEF7AFFEA0
:103B600048B13D48807C10B13C49886C80470821B1
:103B70004048FEF7B5FE10213E48FEF7A0FE48B1D2
:103B80003548C07C10B13549C86C80471021394890
:103B9000FEF7A6FE10BD10B501213748FEF78FFED7
:103BA00048B12F48407910B12E494869804701211A
:103BB0003148FEF795FE10BD10B501212F48FEF7E4
:103BC0007EFE48B12648807910B126498869804731
:103BD00001212A48FEF784FE10BD10B502212848B5
:103BE000FEF76DFE48B11C48007D10B11B49086D01
:103BF000804702212248FEF773FE04212048FEF789
:103C00005EFE48B11448407D10B11449486D8047AC
:103C100004211B48FEF764FE08211948FEF74FFEF9
:103C200048B10D48807D10B10C49886D804708214E
:103C30001348FEF755FE10211148FEF740FE40B133
:103C40000548C07D10B10549C86D804710210C485A
:103C500018E019E000000140280700204807002074
:103C6000E0060020F006002000440140000400406F
:103C700000080040000C004000100040001400400C
:103C800000040140FEF72CFE10BD10B50121F948DB
:103C9000FEF715FE48B1F848C07910B1F749C86978
:103CA00080470121F348FEF71BFE0121F448FEF78F
:103CB00006FE48B1F048007B10B1F049086B804720
:103CC0000121EF48FEF70CFE0221ED48FEF7F7FD5B
:103CD00048B1EC48807F10B1EB49886F80470221E2
:103CE000E748FEF7FDFD10BD10B50121E748FEF7DE
:103CF000E6FD48B1E048007A10B1E049086A804723
:103D00000121E248FEF7ECFD0221E048FEF7D7FD75
:103D100048B1DC48007E10B1DB49086E80470221C3
:103D2000DA48FEF7DDFD0421D848FEF7C8FD48B1AA
:103D3000D448407E10B1D449486E80470421D3480E
:103D4000FEF7CEFD10BD10B50121D148FEF7B7FD3D
:103D500048B1C948807A10B1C849886A80470121B2
:103D6000CB48FEF7BDFD0221C948FEF7A8FD48B1CA
:103D7000C448C07E10B1C449C86E80470221C448FF
:103D8000FEF7AEFD10BD10B50121C248FEF797FD4C
:103D900048B1B948C07A10B1B849C86A8047012112
:103DA000BC48FEF79DFD0221BA48FEF788FD48B1E8
:103DB000B448007F10B1B449086F80470221B5486C
:103DC000FEF78EFD0421B348FEF779FD48B1AD48FA
:103DD000407F10B1AC49486F80470421AD48FEF7E1
:103DE0007FFD10BD10B50121AB48FEF768FD48B15D
:103DF000A148407B10B1A149486B80470121A648EA
:103E0000FEF76EFD0221A448FEF759FD48B19D481A
:103E1000C07F10B19C49C86F804702219E48FEF7C1
:103E20005FFD10BD38B504460D4625609B492068EE
:103E3000884204D101210846FDF797FE73E020680F
:103E4000B0F1804F04D101210846FDF77DFE6AE004
:103E500093492068884204D101210220FDF774FEB5
:103E600061E090492068884204D101210420FDF7D7
:103E70006BFE58E08C492068884204D1012108205B
:103E8000FDF762FE4FE089492068884204D1012194
:103E90001020FDF759FE46E085492068884204D18C
:103EA00001212020FDF750FE3DE072492068884244
:103EB00004D101210220FDF758FE34E07349206847
:103EC000884204D101210804FDF74FFE2BE0794917
:103ED0002068884204D101214804FDF746FE22E013
:103EE0006B492068884204D101218804FDF73DFE1A
:103EF00019E068492068884204D101214020FDF77B
:103F000023FE10E05E492068884204D10121802010
:103F1000FDF71AFE07E060492068884203D10121BD
:103F20008015FDF711FE5D492068884202D11920F5
:103F3000A06059E02068B0F1804F02D11C20A06041
:103F400052E057492068884202D11D20A0604BE012
:103F500054492068884202D11E20A06044E05249A2
:103F60002068884202D13220A0603DE04F4920689D
:103F7000884202D13620A06036E04D492068884250
:103F800002D13720A0602FE03A492068884202D150
:103F90002C20A06028E03D492068884202D11820EA
:103FA000A06021E043492068884202D11920A06026
:103FB0001AE037492068884202D11A20A06013E035
:103FC00034492068884202D12B20A0600CE02C49A3
:103FD0002068884202D12C20A06005E02E4920688C
:103FE000884201D12D20A0602C492068884202D14E
:103FF000002020717BE02068B0F1804F02D10120C9
:10400000207174E026492068884202D10220207184
:104010006DE024492068884202D10320207166E0C7
:1040200021492068884202D1042020715FE01F49A5
:104030002068884202D10520207158E01C49206880
:10404000884202D10620207151E00A492068884246
:1040500002D1072020714AE00C492068884202D131
:104060000820207143E013492068884224D10920A8
:1040700020713CE000040140E0060020F006002032
:10408000001C004028070020480700200040014095
:10409000004801400018004000200040000001409E
:1040A0000004004000080040000C004000100040E8
:1040B0000014004000440140F7492068884202D1C2
:1040C0000A20207113E0F5492068884202D10B20B4
:1040D00020710CE0F2492068884202D10C20207146
:1040E00005E0F0492068884201D10D202071207A36
:1040F0008DF8000000208DF8010001208DF80200ED
:104100008DF803006846FEF7F6FE204638BDFEB582
:1041100004460D4616462079E34941F82050012017
:104120002179E24A5054E249206888420FD0E1499F
:10413000206888420BD0E0492068884207D0DF49D8
:104140002068884203D0D449206888420CD1DC48DA
:1041500000684008400042F21071B0FBF1F0401ED0
:1041600080B2ADF800000BE0D54800688008400040
:1041700042F21071B0FBF1F0401E80B2ADF80000C9
:1041800006EB86000121C1EB400001900020ADF854
:104190000800ADF8020069462068FDF7D8FE01224C
:1041A00011462068FEF774FB01212068FDF758FFD7
:1041B000FEBDFEB504460D4616462079BA4941F8C3
:1041C000205001202179B94A5054B94920688842C9
:1041D0000FD0B849206888420BD0B7492068884280
:1041E00007D0B6492068884203D0AB49206888428E
:1041F0000BD1B348006840084000B249B0FBF1F071
:10420000401E80B2ADF800000AE0AD4800688008AA
:104210004000AC49B0FBF1F0401E80B2ADF80000A8
:10422000701E01900020ADF80800ADF8020069464C
:104230002068FDF78CFE012211462068FEF728FB5E
:1042400001212068FDF70CFFFEBD00210279974B8C
:104250009954704738B504460D4625609449206846
:10426000884204D101210846FDF77FFC73E02068F5
:10427000B0F1804F04D101210846FDF765FC6AE0EA
:1042800091492068884204D101210220FDF75CFC9D
:1042900061E08E492068884204D101210420FDF7A5
:1042A00053FC58E08A492068884204D10121082043
:1042B000FDF74AFC4FE087492068884204D101217C
:1042C0001020FDF741FC46E083492068884204D174
:1042D00001212020FDF738FC3DE076492068884226
:1042E00004D101210220FDF740FC34E0724920682E
:1042F000884204D101210804FDF737FC2BE06F4907
:104300002068884204D101214804FDF72EFC22E0F8
:1043100061492068884204D101218804FDF725FC09
:1043200019E05E492068884204D101214020FDF750
:104330000BFC10E05A492068884204D101218020FA
:10434000FDF702FC07E057492068884203D10121AC
:104350008015FDF7F9FB56492068884202D11920E3
:10436000A06059E02068B0F1804F02D11C20A0600D
:1043700052E055492068884202D11D20A0604BE0E0
:1043800052492068884202D11E20A06044E0504972
:104390002068884202D13220A0603DE04D4920686B
:1043A000884202D13620A06036E04B49206888421E
:1043B00002D13720A0602FE03E492068884202D118
:1043C0002C20A06028E03C492068884202D11820B7
:1043D000A06021E039492068884202D11920A060FC
:1043E0001AE02D492068884202D11A20A06013E00B
:1043F0002A492068884202D12B20A0600CE028497D
:104400002068884202D12C20A06005E02549206860
:10441000884201D12D20A06025492068884202D120
:10442000002020717CE02068B0F1804F02D1012093
:10443000207175E024492068884202D10220207151
:104440006EE022492068884202D10320207167E093
:104450001F492068884202D10420207160E01D4974
:104460002068884202D10520207159E01A4920684D
:10447000884202D10620207152E00E49206888420D
:1044800002D1072020714BE00B492068884225D1DA
:104490000820207144E0000000480140001800405E
:1044A000001C004000200040F0060020E006002034
:1044B0000000014000040140004001400044014070
:1044C0000000002040420F000004004000080040AF
:1044D000000C00400010004000140040F749206824
:1044E000884202D1092020711AE0F54920688842EB
:1044F00002D10A20207113E0F2492068884202D1DB
:104500000B2020710CE0F0492068884202D10C2079
:10451000207105E0ED492068884201D10D2020710D
:10452000207A8DF8000000208DF8010001208DF820
:1045300002008DF803006846FEF7DDFC204638BD1A
:104540003EB504460D46E249206888420FD0E14955
:10455000206888420BD0E0492068884207D0D749BC
:104560002068884203D0D649206888420CD1DB48B5
:1045700000684008400042F21071B0FBF1F0401EAC
:1045800080B2ADF800000BE0D4480068800840001D
:1045900042F21071B0FBF1F0401E80B2ADF80000A5
:1045A00005EB85000121C1EB400001900020ADF832
:1045B0000800ADF802008DF80A0069462068FDF792
:1045C000C6FC08212068FDF739FD0122114620684C
:1045D000FEF75EF93EBD70B504460E4615462079DD
:1045E000BF4941F8206001202179BE4A5054294634
:1045F0002046FFF7A5FF70BD3EB504460D46B44901
:10460000206888420FD0B349206888420BD0B24955
:104610002068884207D0A9492068884203D0A84969
:10462000206888420BD1AD48006840084000AE4980
:10463000B0FBF1F0401E80B2ADF800000AE0A748E0
:10464000006880084000A849B0FBF1F0401E80B22D
:10465000ADF80000681E01900020ADF80800ADF82C
:1046600002008DF80A0069462068FDF770FC0821F9
:104670002068FDF7E3FC012211462068FEF708F9E7
:104680003EBD70B504460E4615462079944941F862
:10469000206001202179934A505429462046FFF793
:1046A000ABFF70BD10B50446002021798D4A5054EF
:1046B00000212068FDF7D4FC10BD10B50446002190
:1046C0002068FDF78DFC01212068FDF7C9FC10BDB5
:1046D00001460868406A08B9012070470020FCE7DD
:1046E0003EB504460D46256079492068884204D1CC
:1046F00001210846FDF739FA73E02068B0F1804FD8
:1047000004D101210846FDF71FFA6AE077492068C5
:10471000884204D101210220FDF716FA61E07449B4
:104720002068884204D101210420FDF70DFA58E0E9
:1047300070492068884204D101210820FDF704FA5D
:104740004FE06D492068884204D101211020FDF717
:10475000FBF946E069492068884204D10121202004
:10476000FDF7F2F93DE05B492068884204D1012160
:104770000220FDF7FAF934E057492068884204D155
:1047800001210804FDF7F1F92BE04C49206888422B
:1047900004D101214804FDF7E8F922E048492068E6
:1047A000884204D101218804FDF7DFF919E0454969
:1047B0002068884204D101214020FDF7C5F910E0AE
:1047C00041492068884204D101218020FDF7BCF9CD
:1047D00007E03E492068884203D101218015FDF79A
:1047E000B3F93B49206888420FD03A492068884293
:1047F0000BD039492068884207D030492068884268
:1048000003D02F49206888420BD134480068400803
:1048100040003549B0FBF1F0401E80B2ADF8000019
:104820000AE02E480068800840002F49B0FBF1F0F4
:10483000401E80B2ADF800002068B0F1804F03D078
:104840002C492068884203D14FF0FF30019002E0EC
:104850004FF6FF7001900020ADF80800ADF802009F
:104860008DF80A0069462068FDF771FB20463EBDC1
:1048700010B5044601212068FDF7F2FB10BD10B50C
:10488000044600212068FDF7EBFB10BD10B504467F
:1048900000212068FDF7A4FB10BD10B50446206878
:1048A000FDF7A2FB10BD10B504462046FFF7F5FF4B
:1048B0004FF47A7190FBF1F010BD0000004401400C
:1048C0000048014000180040001C0040002000404B
:1048D00000000140000401400040014000000020B1
:1048E000F0060020E006002040420F0000040040D7
:1048F00000080040000C0040001000400014004080
:1049000010B504462046FFF7CEFF4FF47A7190FBB6
:10491000F1F010BD40F21452C16991422DDAC16824
:10492000B1F1804F29D0F94AC168914225D0F84AA7
:10493000C16891420FD0F74AC16891420BD0F64A44
:10494000C168914207D0F54AC168914203D0F44A48
:10495000C168914208D1F349096849084900F24AFF
:10496000B1FBF2F1416221E0EE4909688908490092
:10497000ED4AB1FBF2F1416218E0E54AC1689142AB
:104980000FD0E44AC16891420BD0E34AC16891421A
:1049900007D0E24AC168914203D0E14AC16891421E
:1049A00002D10221416201E0012141627047D84AEF
:1049B000C16891420FD0D74AC16891420BD0D64A04
:1049C000C168914207D0D54AC168914203D0D44A08
:1049D000C16891420CD1D349096849084900426A2B
:1049E000B1FBF2F1C269B1FBF2F1491E81610BE04A
:1049F000CC49096889084900426AB1FBF2F1C269F1
:104A0000B1FBF2F1491E816170477FB58AB004465F
:104A1000129D00260B9820600C9860600D98A06095
:104A20001398E0609DF8500020619DF851002075BA
:104A3000E5619FEDBE0A84ED080A00206062BC4972
:104A40002068884204D101210846FDF736F82BE0A2
:104A5000B8492068884204D101210220FDF72DF8D1
:104A600022E0B5492068884204D101210420FDF7E5
:104A700024F819E0B1492068884204D101210820B6
:104A8000FDF71BF810E0AE492068884204D10121EF
:104A90001020FDF712F807E0AA492068884203D1E8
:104AA00001212020FDF709F86068089002208DF8A8
:104AB000240003208DF8250000208DF82600012019
:104AC0008DF8270008A92068FCF72AFB9DF85220E2
:104AD000238999B22068FCF7AEFB2046FFF71AFF46
:104AE0002046FFF764FF8A49E068884204D101212B
:104AF0000846FDF73AF861E0E068B0F1804F04D174
:104B000001210846FDF720F858E08F49E068884207
:104B100004D101210220FDF717F84FE08B49E0682E
:104B2000884204D101210420FDF70EF846E07749C0
:104B3000E068884204D101210820FDF705F83DE036
:104B40007449E068884204D101210220FDF70DF884
:104B500034E07149E068884204D101210804FDF77E
:104B600004F82BE06D49E068884204D10121480433
:104B7000FCF7FBFF22E06A49E068884204D101218A
:104B80008804FCF7F2FF19E07149E068884204D11B
:104B900001214020FCF7D8FF10E06E49E068884210
:104BA00004D101218020FCF7CFFF07E06A49E068CB
:104BB000884203D101218015FCF7C6FFA08C401E5E
:104BC00080B2ADF814000020ADF81600A069069080
:104BD0000020ADF81C008DF81E0005A9E068FDF767
:104BE000B6F96020ADF800000120ADF80200022007
:104BF000ADF80C00C001ADF8100094ED080AF7EE16
:104C0000000A30EEC00ADFED550A60EE200AA06906
:104C1000401E00EE100AB8EEC00A20EE800ADFED5A
:104C20004F0A80EE201ABDEEC10A10EE106A0296FD
:104C3000206930B1042809D008280CD00C2814D1E0
:104C40000EE06946E068FDF717FA0EE06946E06895
:104C5000FDF74BFA09E06946E068FDF793FA04E0D6
:104C60006946E068FDF7F4FA00BF00BF0121E06883
:104C7000FDF7F6F92649E068884203D02549E06847
:104C8000884203D10121E068FDF7DBFD20460EB02C
:104C900070BD38B504460021E068FDF7E1F91C4914
:104CA000E068884201D11B256BE0E068B0F1804FDD
:104CB00001D11C2565E02449E068884201D11D2509
:104CC0005FE02249E068884201D11E2559E00F4982
:104CD000E068884201D1322553E00E49E0688842FD
:104CE00001D12E254DE00C49E068884201D11825FC
:104CF00047E00A49E068884201D1192541E00849A6
:104D0000E06888422CD11A253BE00000000C0040EE
:104D10000000014000040140004001400044014007
:104D20000048014000000020A086010000000000B3
:104D3000000002400004024000080240000C024053
:104D4000001002400014024000040040000800402F
:104D500000180040001C0040002000400000C84235
:104D60006849E068884201D12B250AE06649E0687D
:104D7000884201D12C2504E06449E068884200D1D2
:104D80002D25E8B28DF8000000208DF801000120EB
:104D90008DF802008DF803006846FEF7ACF8206934
:104DA00030B104280AD008280ED00C2818D111E000
:104DB00001220221E068FDF76BFD11E001220421D0
:104DC000E068FDF765FD0BE001220821E068FDF7D2
:104DD0005FFD05E001221021E068FDF759FD00BFED
:104DE00000BF0121E068FDF73BF938BD10B5027D39
:104DF000474B43F822100122037D464CE25410BD7C
:104E00000021027D434B99547047F7EE000AB4EE3F
:104E1000E00AF1EE10FA04DBF7EE000AB0EE600AE9
:104E200008E0B5EEC00AF1EE10FA03D85FED410AD2
:104E3000B0EE600A80ED080AD0ED080AB7EE001A5D
:104E400071EE600A1FED3B1A20EE811A8269521E34
:104E500000EE902AF8EEE00A61EE200A1FED411AFA
:104E6000C0EE811AFDEEE10A10EE901A026932B12D
:104E7000042A07D0082A08D00C2A0CD108E0C268FE
:104E8000516308E0C268916305E0C268D16302E043
:104E9000C268116400BF00BF704770B504460D467C
:104EA000E5612046FFF736FD2046FFF780FDA28C26
:104EB000521E91B20122E068FDF786F8A169E06810
:104EC000FDF790F80021E068FDF78AF8D4ED080AB4
:104ED000B0EE600A2046FFF798FF70BD00B50346AC
:104EE000B0EE402AB0EE420A1846FFF78EFF184691
:104EF00000BD90ED080A704700B501460846FFF76F
:104F0000F8FF00BD00180040001C004000200040D9
:104F1000480700202807002010B5044654F81C0F4D
:104F2000FDF7D8FEC1B22279501C20711C3C04F15F
:104F30002200815494F82000B0F5007F02DB0020AD
:104F400084F8200094F82402D4F82812087010BDC8
:104F500010B540F22771FA48FDF77EFFC8B1F94855
:104F600042784078401CF74B5870D81C815CF4485C
:104F7000FDF7ACFEF3484078F2498978884208D1C1
:104F80000020F0498870002240F22771EC48FDF7BC
:104F900028FF40F22551EA48FDF75EFF18B1EA48C4
:104FA0000068FFF7B9FF10BD10B540F22771E74860
:104FB000FDF752FFC8B1E64842784078401CE44B08
:104FC0005870D81C815CE148FDF780FEE0484078CD
:104FD000DF498978884208D10020DD4988700022A5
:104FE00040F22771D948FDF7FCFE40F22551D74821
:104FF000FDF732FF18B1D7480068FFF78DFF10BDED
:1050000010B540F22771D448FDF726FFC8B1D34848
:1050100042784078401CD14B5870D81C815CCE48F7
:10502000FDF754FECD484078CC498978884208D1B4
:105030000020CA498870002240F22771C648FDF757
:10504000D0FE40F22551C448FDF706FF18B1C44810
:105050000068FFF761FF10BD10B540F22771C1482D
:10506000FDF7FAFEC8B1C04842784078401CBE4BFC
:105070005870D81C815CBB48FDF728FEBA484078C0
:10508000B9498978884208D10020B7498870002240
:1050900040F22771B348FDF7A4FE40F22551B14814
:1050A000FDF7DAFE18B1B1480068FFF735FF10BD13
:1050B00010B540F22771AE48FDF7CEFEC8B1AD483D
:1050C00042784078401CAB4B5870D81C815CA84893
:1050D000FDF7FCFDA7484078A6498978884208D1A9
:1050E0000020A4498870002240F22771A048FDF7F3
:1050F00078FE40F225519E48FDF7AEFE18B19E485D
:105100000068FFF709FF10BD10B540F227719B48FA
:10511000FDF7A2FEC8B19A4842784078401C984BEF
:105120005870D81C815C9548FDF7D0FD94484078B4
:1051300093498978884208D10020914988700022DB
:1051400040F227718D48FDF74CFE40F225518B4807
:10515000FDF782FE18B18B480068FFF7DDFE10BD39
:105160000FB430B587B004460D460C9820600D98FA
:1051700060600E98A0600F98E06010982061119810
:1051800060614FF41650A061E5610A20C4F8240262
:105190006B49E069884205D16B4804606948C4F8EE
:1051A000280230E06949E069884205D16948046015
:1051B0006748C4F8280226E06749E069884205D1BB
:1051C000674804606548C4F828021CE06549E06946
:1051D000884205D1654804606348C4F8280212E09B
:1051E0006349E069884205D1634804606148C4F8B6
:1051F000280208E06149E069884204D161480460FE
:105200005F48C4F8280260492068884204D101211F
:105210000846FCF752FC19E05C492068884204D13A
:1052200001210220FCF749FC10E05949206888421E
:1052300004D101210420FCF740FC07E05549206817
:10524000884203D101210820FCF737FC4E49E06871
:10525000884204D101210846FCF72FFC19E04B4994
:10526000E068884204D101210220FCF726FC10E00E
:105270004749E068884204D101210420FCF71DFC65
:1052800007E04449E068884203D101210820FCF787
:1052900014FC2B49E069884204D101211020FCF75D
:1052A00064FC2BE02949E069884204D101214804CB
:1052B000FCF74AFC22E02849E069884204D1012138
:1052C0008804FCF741FC19E02649E069884204D1D2
:1052D0000121C804FCF738FC10E02549E069884248
:1052E00004D101210805FCF72FFC07E02349E06900
:1052F000884203D101212020FCF737FC1049E069E6
:10530000884206D1228991B207222068FBF793FFD9
:1053100062E00E49E069884206D1228991B20722F3
:105320002068FBF788FF57E00B49E069884233D1DA
:10533000228991B207222068FBF77DFF4CE0000034
:1053400000100140C807002068060020004400400B
:10535000CB0900206C06002000480040CE0B002046
:1053600070060020004C0040D10D00207406002083
:1053700000500040D40F00207806002000140140A7
:10538000D71100207C0600200000024000040240EB
:1053900000080240000C0240CF49E069884206D173
:1053A000228991B208222068FBF745FF14E0CB491F
:1053B000E069884206D1228991B208222068FBF771
:1053C0003AFF09E0C649E069884205D1228991B2D5
:1053D00008222068FBF72FFFC249E069884206D106
:1053E000A28A91B20722E068FBF725FF35E0BE49AB
:1053F000E069884206D1A28A91B20722E068FBF7F1
:105400001AFF2AE0B949E069884206D1A28A91B21E
:105410000722E068FBF70FFF1FE0AF49E069884211
:1054200006D1A28A91B20822E068FBF704FF14E0DB
:10543000AA49E069884206D1A28A91B20822E068AE
:10544000FBF7F9FE09E0A649E069884205D1A28A86
:1054500091B20822E068FBF7EEFE6068059002203A
:105460008DF818008DF8190000208DF81A00022020
:105470008DF81B0005A92068FBF752FE20690590F6
:1054800002208DF8180005A9E068FBF749FE954950
:10549000E069884203D125208DF8100026E092496A
:1054A000E069884203D126208DF810001EE08F4964
:1054B000E069884203D127208DF8100016E0864964
:1054C000E069884203D134208DF810000EE0834952
:1054D000E069884203D135208DF8100006E080494C
:1054E000E069884202D147208DF8100001208DF834
:1054F000110000208DF8120001208DF8130004A87F
:10550000FDF7F9FCA06900900020ADF80400ADF8AB
:105510000600ADF80800ADF80C000C20ADF80A004C
:105520006946E069FDF71FFB012240F22551E06961
:10553000FDF757FC0121E069FDF79DFB204607B010
:1055400030BC5DF814FB7FB504460D46A561002113
:10555000E069FDF790FBA06900900020ADF8040021
:10556000ADF80600ADF80800ADF80C000C20ADF861
:105570000A006946E069FDF7F6FA0121E069FDF7E6
:105580007AFB7FBD2DE9F04104460E461746D4F85C
:105590002802807810B10020BDE8F081D4F82802FC
:1055A00087700020D4F828124870002507E0317871
:1055B000D4F82802C01C4155681CC5B2761CBD42F7
:1055C000F5DB012240F22771E069FDF70AFC0120BA
:1055D000E2E72DE9F04104460F461646D4F82802CA
:1055E000807810B10020BDE8F081D4F828028670E0
:1055F0000020D4F828124870002507E03978D4F844
:105600002802C01C4155681CC5B27F1CB542F5DBA1
:10561000012240F22771E069FDF7E3FB00BFD4F8F7
:10562000280280780028FAD10120DCE730B5024654
:1056300000230024D2F82802007808B1002030BDF1
:1056400092F82402D2F82852287092F8200092F89A
:105650002150A84205DB92F8200092F82150441B0B
:1056600006E092F8200092F82150C5F50075441923
:1056700092F8200092F82150A84201D10020DEE7E4
:10568000002313E012F8215F1078401C02F8210972
:1056900002F12200405D087092F82100B0F5007F11
:1056A00002DB002082F821005B1C491CA342E9DBDD
:1056B0002046C4E770B505460E46002404E0314696
:1056C0002846FFF7B3FF0446002CF8D0204670BDF3
:1056D000C0F8241270470000004C00400050004009
:1056E0000014014000100140004400400048004008
:1056F00010B50221FA48FBF717FB68B10120F94900
:105700000870F94A0021F648FBF78BF9F748007852
:1057100010B1F7490868804710BD10B51021F54851
:10572000FBF702FB68B10120F3490870F34A01213D
:10573000F048FBF776F9ED48407810B1EC4948683D
:10574000804710BD0FB430B58BB004460D4610989D
:105750002060119860601298A0601398E06014981F
:105760002061159860612562DD49206A884207D171
:10577000DD486062DB48A062002084F82C000AE06B
:10578000DC49206A884206D1DC486062DA48A062BF
:10579000012084F82C00D249206A884204D10121DA
:1057A0004806FCF7D1F90BE0D249206A884207D1BC
:1057B00001214806FCF7C8F901218806FCF7C4F965
:1057C000CF492068884204D101210846FCF775F9C9
:1057D00019E0CC492068884204D101210220FCF75D
:1057E0006CF910E0C8492068884204D101210420E6
:1057F000FCF763F907E0C5492068884203D101211D
:105800000820FCF75AF9BE49E068884204D101211A
:105810000846FCF752F919E0BA49E068884204D119
:1058200001210220FCF749F910E0B749E0688842FD
:1058300004D101210420FCF740F907E0B349E068F6
:10584000884203D101210820FCF737F960680990EC
:1058500002208DF828008DF8290000208DF82A00FC
:1058600001208DF82B0009A92068FBF759FC20695D
:10587000099009A9E068FBF753FC9949206A88421E
:105880000CD1A28A91B20922E068FBF7D4FC2289EC
:1058900091B209222068FBF7CEFC0FE09549206AFF
:1058A00088420BD1A28A91B20922E068FBF7C3FCBF
:1058B000228991B209222068FBF7BDFC206AFAF721
:1058C00029FE05A8FAF74AFF01208DF81D000020E7
:1058D0008DF8170002208DF8180003208DF81900AC
:1058E0009DF81700401C9DF81810491C01449DF8B4
:1058F0001900401C08442076854800688100207EFD
:10590000844A5043B1FBF0F080B2ADF8140005A911
:10591000206AFAF718FE00208DF80F0001208DF89C
:1059200010000020ADF80800ADF80A00ADF8040042
:10593000ADF806006A49206A884205D100208DF83A
:105940000E00ADF80C0009E06A49206A884205D1D2
:105950000E208DF80E000120ADF80C0001208DF80E
:10596000110001A8FAF779FE5D49206A884203D147
:1059700014208DF8200006E05E49206A884202D19A
:1059800041208DF8200001208DF8210000208DF8A5
:10599000220001208DF8230008A8FDF7ACFA504939
:1059A000206A884205D101220221206AFBF754F9BE
:1059B00008E05049206A884204D101221021206A5F
:1059C000FBF74AF920460BB030BC5DF814FB444BA2
:1059D000026A9A4205D1464A11600122434B1A706D
:1059E00008E0444B026A9A4204D1414A51600122C4
:1059F0003E4B5A7070472DE9F04186B004460F4681
:105A000090461E46002594F82C10206AFAF7ACFF49
:105A1000022802D106B0BDE8F081019700208DF880
:105A20000D008DF80C00082E03DD08208DF80E0007
:105A300001E08DF80E60002506E018F805100DF164
:105A40000F004155681CC5B2082DF6DB01A9206A7C
:105A5000FAF7F2FE0120DDE72DE9F04385B00446B8
:105A60000F4690461E46002594F82C10206AFAF73F
:105A70007BFF022802D105B0BDE8F083009700202B
:105A80008DF809008DF80800082E03DD08208DF838
:105A90000A0001E08DF80A60002506E018F80510FC
:105AA0000DF10B004155681CC5B2082DF6DB6946A7
:105AB000206AFAF7C1FE00BF0021206AFAF754FFFE
:105AC00081460228F8D04846D5E710B502460B4675
:105AD000906A007868B30020946A2070002121E069
